{
	"TictactoeRegistry.sol": {
		"TictactoeRegistry": {
			"abi": [
				{
					"inputs": [
						{
							"internalType": "address",
							"name": "gameContract",
							"type": "address"
						}
					],
					"name": "GameAlreadyExists",
					"type": "error"
				},
				{
					"inputs": [
						{
							"internalType": "address",
							"name": "",
							"type": "address"
						},
						{
							"internalType": "uint256",
							"name": "",
							"type": "uint256"
						}
					],
					"name": "FirstPlayerGames",
					"outputs": [
						{
							"internalType": "address",
							"name": "firstPlayer",
							"type": "address"
						},
						{
							"internalType": "address",
							"name": "secondPlayer",
							"type": "address"
						},
						{
							"internalType": "address",
							"name": "gameContract",
							"type": "address"
						}
					],
					"stateMutability": "view",
					"type": "function"
				},
				{
					"inputs": [
						{
							"internalType": "address",
							"name": "",
							"type": "address"
						},
						{
							"internalType": "uint256",
							"name": "",
							"type": "uint256"
						}
					],
					"name": "SecondPlayerGames",
					"outputs": [
						{
							"internalType": "address",
							"name": "firstPlayer",
							"type": "address"
						},
						{
							"internalType": "address",
							"name": "secondPlayer",
							"type": "address"
						},
						{
							"internalType": "address",
							"name": "gameContract",
							"type": "address"
						}
					],
					"stateMutability": "view",
					"type": "function"
				},
				{
					"inputs": [
						{
							"internalType": "address",
							"name": "_player",
							"type": "address"
						}
					],
					"name": "getGameList",
					"outputs": [
						{
							"components": [
								{
									"internalType": "address",
									"name": "firstPlayer",
									"type": "address"
								},
								{
									"internalType": "address",
									"name": "secondPlayer",
									"type": "address"
								},
								{
									"internalType": "address",
									"name": "gameContract",
									"type": "address"
								}
							],
							"internalType": "struct TictactoeRegistry.Game[]",
							"name": "",
							"type": "tuple[]"
						}
					],
					"stateMutability": "view",
					"type": "function"
				},
				{
					"inputs": [
						{
							"internalType": "address",
							"name": "_firstPlayer",
							"type": "address"
						},
						{
							"internalType": "address",
							"name": "_secondPlayer",
							"type": "address"
						},
						{
							"internalType": "address",
							"name": "_gameContract",
							"type": "address"
						}
					],
					"name": "register",
					"outputs": [],
					"stateMutability": "nonpayable",
					"type": "function"
				}
			],
			"devdoc": {
				"kind": "dev",
				"methods": {},
				"version": 1
			},
			"evm": {
				"assembly": "    /* \"TictactoeRegistry.sol\":63:1878  contract TictactoeRegistry {... */\n  mstore(0x40, 0x80)\n  callvalue\n  dup1\n  iszero\n  tag_1\n  jumpi\n  0x00\n  dup1\n  revert\ntag_1:\n  pop\n  dataSize(sub_0)\n  dup1\n  dataOffset(sub_0)\n  0x00\n  codecopy\n  0x00\n  return\nstop\n\nsub_0: assembly {\n        /* \"TictactoeRegistry.sol\":63:1878  contract TictactoeRegistry {... */\n      mstore(0x40, 0x80)\n      callvalue\n      dup1\n      iszero\n      tag_1\n      jumpi\n      0x00\n      dup1\n      revert\n    tag_1:\n      pop\n      jumpi(tag_2, lt(calldatasize, 0x04))\n      shr(0xe0, calldataload(0x00))\n      dup1\n      0x50ac1319\n      eq\n      tag_3\n      jumpi\n      dup1\n      0xbd46b583\n      eq\n      tag_4\n      jumpi\n      dup1\n      0xed81b67d\n      eq\n      tag_5\n      jumpi\n      dup1\n      0xf3201424\n      eq\n      tag_6\n      jumpi\n    tag_2:\n      0x00\n      dup1\n      revert\n        /* \"TictactoeRegistry.sol\":1266:1876  function getGameList(address _player) public view returns (Game[] memory) {... */\n    tag_3:\n      tag_7\n      0x04\n      dup1\n      calldatasize\n      sub\n      dup2\n      add\n      swap1\n      tag_8\n      swap2\n      swap1\n      tag_9\n      jump\t// in\n    tag_8:\n      tag_10\n      jump\t// in\n    tag_7:\n      mload(0x40)\n      tag_11\n      swap2\n      swap1\n      tag_12\n      jump\t// in\n    tag_11:\n      mload(0x40)\n      dup1\n      swap2\n      sub\n      swap1\n      return\n        /* \"TictactoeRegistry.sol\":300:350  mapping(address => Game[]) public FirstPlayerGames */\n    tag_4:\n      tag_13\n      0x04\n      dup1\n      calldatasize\n      sub\n      dup2\n      add\n      swap1\n      tag_14\n      swap2\n      swap1\n      tag_15\n      jump\t// in\n    tag_14:\n      tag_16\n      jump\t// in\n    tag_13:\n      mload(0x40)\n      tag_17\n      swap4\n      swap3\n      swap2\n      swap1\n      tag_18\n      jump\t// in\n    tag_17:\n      mload(0x40)\n      dup1\n      swap2\n      sub\n      swap1\n      return\n        /* \"TictactoeRegistry.sol\":356:407  mapping(address => Game[]) public SecondPlayerGames */\n    tag_5:\n      tag_19\n      0x04\n      dup1\n      calldatasize\n      sub\n      dup2\n      add\n      swap1\n      tag_20\n      swap2\n      swap1\n      tag_15\n      jump\t// in\n    tag_20:\n      tag_21\n      jump\t// in\n    tag_19:\n      mload(0x40)\n      tag_22\n      swap4\n      swap3\n      swap2\n      swap1\n      tag_18\n      jump\t// in\n    tag_22:\n      mload(0x40)\n      dup1\n      swap2\n      sub\n      swap1\n      return\n        /* \"TictactoeRegistry.sol\":472:1260  function register(address _firstPlayer, address _secondPlayer, address _gameContract) public {... */\n    tag_6:\n      tag_23\n      0x04\n      dup1\n      calldatasize\n      sub\n      dup2\n      add\n      swap1\n      tag_24\n      swap2\n      swap1\n      tag_25\n      jump\t// in\n    tag_24:\n      tag_26\n      jump\t// in\n    tag_23:\n      stop\n        /* \"TictactoeRegistry.sol\":1266:1876  function getGameList(address _player) public view returns (Game[] memory) {... */\n    tag_10:\n        /* \"TictactoeRegistry.sol\":1325:1338  Game[] memory */\n      0x60\n        /* \"TictactoeRegistry.sol\":1350:1368  uint256 totalGames */\n      0x00\n        /* \"TictactoeRegistry.sol\":1406:1423  SecondPlayerGames */\n      0x01\n        /* \"TictactoeRegistry.sol\":1406:1432  SecondPlayerGames[_player] */\n      0x00\n        /* \"TictactoeRegistry.sol\":1424:1431  _player */\n      dup5\n        /* \"TictactoeRegistry.sol\":1406:1432  SecondPlayerGames[_player] */\n      0xffffffffffffffffffffffffffffffffffffffff\n      and\n      0xffffffffffffffffffffffffffffffffffffffff\n      and\n      dup2\n      mstore\n      0x20\n      add\n      swap1\n      dup2\n      mstore\n      0x20\n      add\n      0x00\n      keccak256\n        /* \"TictactoeRegistry.sol\":1406:1439  SecondPlayerGames[_player].length */\n      dup1\n      sload\n      swap1\n      pop\n        /* \"TictactoeRegistry.sol\":1371:1387  FirstPlayerGames */\n      0x00\n        /* \"TictactoeRegistry.sol\":1371:1396  FirstPlayerGames[_player] */\n      dup1\n        /* \"TictactoeRegistry.sol\":1388:1395  _player */\n      dup6\n        /* \"TictactoeRegistry.sol\":1371:1396  FirstPlayerGames[_player] */\n      0xffffffffffffffffffffffffffffffffffffffff\n      and\n      0xffffffffffffffffffffffffffffffffffffffff\n      and\n      dup2\n      mstore\n      0x20\n      add\n      swap1\n      dup2\n      mstore\n      0x20\n      add\n      0x00\n      keccak256\n        /* \"TictactoeRegistry.sol\":1371:1403  FirstPlayerGames[_player].length */\n      dup1\n      sload\n      swap1\n      pop\n        /* \"TictactoeRegistry.sol\":1371:1439  FirstPlayerGames[_player].length + SecondPlayerGames[_player].length */\n      tag_28\n      swap2\n      swap1\n      tag_29\n      jump\t// in\n    tag_28:\n        /* \"TictactoeRegistry.sol\":1350:1439  uint256 totalGames = FirstPlayerGames[_player].length + SecondPlayerGames[_player].length */\n      swap1\n      pop\n        /* \"TictactoeRegistry.sol\":1449:1468  Game[] memory games */\n      0x00\n        /* \"TictactoeRegistry.sol\":1482:1492  totalGames */\n      dup2\n        /* \"TictactoeRegistry.sol\":1471:1493  new Game[](totalGames) */\n      0xffffffffffffffff\n      dup2\n      gt\n      iszero\n      tag_30\n      jumpi\n      tag_31\n      tag_32\n      jump\t// in\n    tag_31:\n    tag_30:\n      mload(0x40)\n      swap1\n      dup1\n      dup3\n      mstore\n      dup1\n      0x20\n      mul\n      0x20\n      add\n      dup3\n      add\n      0x40\n      mstore\n      dup1\n      iszero\n      tag_33\n      jumpi\n      dup2\n      0x20\n      add\n    tag_34:\n      tag_35\n      tag_36\n      jump\t// in\n    tag_35:\n      dup2\n      mstore\n      0x20\n      add\n      swap1\n      0x01\n      swap1\n      sub\n      swap1\n      dup2\n      tag_34\n      jumpi\n      swap1\n      pop\n    tag_33:\n      pop\n        /* \"TictactoeRegistry.sol\":1449:1493  Game[] memory games = new Game[](totalGames) */\n      swap1\n      pop\n        /* \"TictactoeRegistry.sol\":1503:1516  uint256 count */\n      0x00\n        /* \"TictactoeRegistry.sol\":1536:1545  uint256 i */\n      dup1\n        /* \"TictactoeRegistry.sol\":1531:1683  for (uint256 i = 0; i < FirstPlayerGames[_player].length; i++) {... */\n    tag_37:\n        /* \"TictactoeRegistry.sol\":1555:1571  FirstPlayerGames */\n      0x00\n        /* \"TictactoeRegistry.sol\":1555:1580  FirstPlayerGames[_player] */\n      dup1\n        /* \"TictactoeRegistry.sol\":1572:1579  _player */\n      dup8\n        /* \"TictactoeRegistry.sol\":1555:1580  FirstPlayerGames[_player] */\n      0xffffffffffffffffffffffffffffffffffffffff\n      and\n      0xffffffffffffffffffffffffffffffffffffffff\n      and\n      dup2\n      mstore\n      0x20\n      add\n      swap1\n      dup2\n      mstore\n      0x20\n      add\n      0x00\n      keccak256\n        /* \"TictactoeRegistry.sol\":1555:1587  FirstPlayerGames[_player].length */\n      dup1\n      sload\n      swap1\n      pop\n        /* \"TictactoeRegistry.sol\":1551:1552  i */\n      dup2\n        /* \"TictactoeRegistry.sol\":1551:1587  i < FirstPlayerGames[_player].length */\n      lt\n        /* \"TictactoeRegistry.sol\":1531:1683  for (uint256 i = 0; i < FirstPlayerGames[_player].length; i++) {... */\n      iszero\n      tag_38\n      jumpi\n        /* \"TictactoeRegistry.sol\":1623:1639  FirstPlayerGames */\n      0x00\n        /* \"TictactoeRegistry.sol\":1623:1648  FirstPlayerGames[_player] */\n      dup1\n        /* \"TictactoeRegistry.sol\":1640:1647  _player */\n      dup8\n        /* \"TictactoeRegistry.sol\":1623:1648  FirstPlayerGames[_player] */\n      0xffffffffffffffffffffffffffffffffffffffff\n      and\n      0xffffffffffffffffffffffffffffffffffffffff\n      and\n      dup2\n      mstore\n      0x20\n      add\n      swap1\n      dup2\n      mstore\n      0x20\n      add\n      0x00\n      keccak256\n        /* \"TictactoeRegistry.sol\":1649:1650  i */\n      dup2\n        /* \"TictactoeRegistry.sol\":1623:1651  FirstPlayerGames[_player][i] */\n      dup2\n      sload\n      dup2\n      lt\n      tag_40\n      jumpi\n      tag_41\n      tag_42\n      jump\t// in\n    tag_41:\n    tag_40:\n      swap1\n      0x00\n      mstore\n      keccak256(0x00, 0x20)\n      swap1\n      0x03\n      mul\n      add\n        /* \"TictactoeRegistry.sol\":1608:1651  games[count] = FirstPlayerGames[_player][i] */\n      mload(0x40)\n      dup1\n      0x60\n      add\n      0x40\n      mstore\n      swap1\n      dup2\n      0x00\n      dup3\n      add\n      0x00\n      swap1\n      sload\n      swap1\n      0x0100\n      exp\n      swap1\n      div\n      0xffffffffffffffffffffffffffffffffffffffff\n      and\n      0xffffffffffffffffffffffffffffffffffffffff\n      and\n      0xffffffffffffffffffffffffffffffffffffffff\n      and\n      dup2\n      mstore\n      0x20\n      add\n      0x01\n      dup3\n      add\n      0x00\n      swap1\n      sload\n      swap1\n      0x0100\n      exp\n      swap1\n      div\n      0xffffffffffffffffffffffffffffffffffffffff\n      and\n      0xffffffffffffffffffffffffffffffffffffffff\n      and\n      0xffffffffffffffffffffffffffffffffffffffff\n      and\n      dup2\n      mstore\n      0x20\n      add\n      0x02\n      dup3\n      add\n      0x00\n      swap1\n      sload\n      swap1\n      0x0100\n      exp\n      swap1\n      div\n      0xffffffffffffffffffffffffffffffffffffffff\n      and\n      0xffffffffffffffffffffffffffffffffffffffff\n      and\n      0xffffffffffffffffffffffffffffffffffffffff\n      and\n      dup2\n      mstore\n      pop\n      pop\n        /* \"TictactoeRegistry.sol\":1608:1613  games */\n      dup4\n        /* \"TictactoeRegistry.sol\":1614:1619  count */\n      dup4\n        /* \"TictactoeRegistry.sol\":1608:1620  games[count] */\n      dup2\n      mload\n      dup2\n      lt\n      tag_44\n      jumpi\n      tag_45\n      tag_42\n      jump\t// in\n    tag_45:\n    tag_44:\n      0x20\n      mul\n      0x20\n      add\n      add\n        /* \"TictactoeRegistry.sol\":1608:1651  games[count] = FirstPlayerGames[_player][i] */\n      dup2\n      swap1\n      mstore\n      pop\n        /* \"TictactoeRegistry.sol\":1665:1672  count++ */\n      dup2\n      dup1\n      tag_46\n      swap1\n      tag_47\n      jump\t// in\n    tag_46:\n      swap3\n      pop\n      pop\n        /* \"TictactoeRegistry.sol\":1589:1592  i++ */\n      dup1\n      dup1\n      0x01\n      add\n      swap2\n      pop\n      pop\n        /* \"TictactoeRegistry.sol\":1531:1683  for (uint256 i = 0; i < FirstPlayerGames[_player].length; i++) {... */\n      jump(tag_37)\n    tag_38:\n      pop\n        /* \"TictactoeRegistry.sol\":1698:1707  uint256 i */\n      0x00\n        /* \"TictactoeRegistry.sol\":1693:1847  for (uint256 i = 0; i < SecondPlayerGames[_player].length; i++) {... */\n    tag_48:\n        /* \"TictactoeRegistry.sol\":1717:1734  SecondPlayerGames */\n      0x01\n        /* \"TictactoeRegistry.sol\":1717:1743  SecondPlayerGames[_player] */\n      0x00\n        /* \"TictactoeRegistry.sol\":1735:1742  _player */\n      dup8\n        /* \"TictactoeRegistry.sol\":1717:1743  SecondPlayerGames[_player] */\n      0xffffffffffffffffffffffffffffffffffffffff\n      and\n      0xffffffffffffffffffffffffffffffffffffffff\n      and\n      dup2\n      mstore\n      0x20\n      add\n      swap1\n      dup2\n      mstore\n      0x20\n      add\n      0x00\n      keccak256\n        /* \"TictactoeRegistry.sol\":1717:1750  SecondPlayerGames[_player].length */\n      dup1\n      sload\n      swap1\n      pop\n        /* \"TictactoeRegistry.sol\":1713:1714  i */\n      dup2\n        /* \"TictactoeRegistry.sol\":1713:1750  i < SecondPlayerGames[_player].length */\n      lt\n        /* \"TictactoeRegistry.sol\":1693:1847  for (uint256 i = 0; i < SecondPlayerGames[_player].length; i++) {... */\n      iszero\n      tag_49\n      jumpi\n        /* \"TictactoeRegistry.sol\":1786:1803  SecondPlayerGames */\n      0x01\n        /* \"TictactoeRegistry.sol\":1786:1812  SecondPlayerGames[_player] */\n      0x00\n        /* \"TictactoeRegistry.sol\":1804:1811  _player */\n      dup8\n        /* \"TictactoeRegistry.sol\":1786:1812  SecondPlayerGames[_player] */\n      0xffffffffffffffffffffffffffffffffffffffff\n      and\n      0xffffffffffffffffffffffffffffffffffffffff\n      and\n      dup2\n      mstore\n      0x20\n      add\n      swap1\n      dup2\n      mstore\n      0x20\n      add\n      0x00\n      keccak256\n        /* \"TictactoeRegistry.sol\":1813:1814  i */\n      dup2\n        /* \"TictactoeRegistry.sol\":1786:1815  SecondPlayerGames[_player][i] */\n      dup2\n      sload\n      dup2\n      lt\n      tag_51\n      jumpi\n      tag_52\n      tag_42\n      jump\t// in\n    tag_52:\n    tag_51:\n      swap1\n      0x00\n      mstore\n      keccak256(0x00, 0x20)\n      swap1\n      0x03\n      mul\n      add\n        /* \"TictactoeRegistry.sol\":1771:1815  games[count] = SecondPlayerGames[_player][i] */\n      mload(0x40)\n      dup1\n      0x60\n      add\n      0x40\n      mstore\n      swap1\n      dup2\n      0x00\n      dup3\n      add\n      0x00\n      swap1\n      sload\n      swap1\n      0x0100\n      exp\n      swap1\n      div\n      0xffffffffffffffffffffffffffffffffffffffff\n      and\n      0xffffffffffffffffffffffffffffffffffffffff\n      and\n      0xffffffffffffffffffffffffffffffffffffffff\n      and\n      dup2\n      mstore\n      0x20\n      add\n      0x01\n      dup3\n      add\n      0x00\n      swap1\n      sload\n      swap1\n      0x0100\n      exp\n      swap1\n      div\n      0xffffffffffffffffffffffffffffffffffffffff\n      and\n      0xffffffffffffffffffffffffffffffffffffffff\n      and\n      0xffffffffffffffffffffffffffffffffffffffff\n      and\n      dup2\n      mstore\n      0x20\n      add\n      0x02\n      dup3\n      add\n      0x00\n      swap1\n      sload\n      swap1\n      0x0100\n      exp\n      swap1\n      div\n      0xffffffffffffffffffffffffffffffffffffffff\n      and\n      0xffffffffffffffffffffffffffffffffffffffff\n      and\n      0xffffffffffffffffffffffffffffffffffffffff\n      and\n      dup2\n      mstore\n      pop\n      pop\n        /* \"TictactoeRegistry.sol\":1771:1776  games */\n      dup4\n        /* \"TictactoeRegistry.sol\":1777:1782  count */\n      dup4\n        /* \"TictactoeRegistry.sol\":1771:1783  games[count] */\n      dup2\n      mload\n      dup2\n      lt\n      tag_54\n      jumpi\n      tag_55\n      tag_42\n      jump\t// in\n    tag_55:\n    tag_54:\n      0x20\n      mul\n      0x20\n      add\n      add\n        /* \"TictactoeRegistry.sol\":1771:1815  games[count] = SecondPlayerGames[_player][i] */\n      dup2\n      swap1\n      mstore\n      pop\n        /* \"TictactoeRegistry.sol\":1829:1836  count++ */\n      dup2\n      dup1\n      tag_56\n      swap1\n      tag_47\n      jump\t// in\n    tag_56:\n      swap3\n      pop\n      pop\n        /* \"TictactoeRegistry.sol\":1752:1755  i++ */\n      dup1\n      dup1\n      0x01\n      add\n      swap2\n      pop\n      pop\n        /* \"TictactoeRegistry.sol\":1693:1847  for (uint256 i = 0; i < SecondPlayerGames[_player].length; i++) {... */\n      jump(tag_48)\n    tag_49:\n      pop\n        /* \"TictactoeRegistry.sol\":1864:1869  games */\n      dup2\n        /* \"TictactoeRegistry.sol\":1857:1869  return games */\n      swap4\n      pop\n      pop\n      pop\n      pop\n        /* \"TictactoeRegistry.sol\":1266:1876  function getGameList(address _player) public view returns (Game[] memory) {... */\n      swap2\n      swap1\n      pop\n      jump\t// out\n        /* \"TictactoeRegistry.sol\":300:350  mapping(address => Game[]) public FirstPlayerGames */\n    tag_16:\n      mstore(0x20, 0x00)\n      dup2\n      0x00\n      mstore\n      keccak256(0x00, 0x40)\n      dup2\n      dup2\n      sload\n      dup2\n      lt\n      tag_57\n      jumpi\n      0x00\n      dup1\n      revert\n    tag_57:\n      swap1\n      0x00\n      mstore\n      keccak256(0x00, 0x20)\n      swap1\n      0x03\n      mul\n      add\n      0x00\n      swap2\n      pop\n      swap2\n      pop\n      pop\n      dup1\n      0x00\n      add\n      0x00\n      swap1\n      sload\n      swap1\n      0x0100\n      exp\n      swap1\n      div\n      0xffffffffffffffffffffffffffffffffffffffff\n      and\n      swap1\n      dup1\n      0x01\n      add\n      0x00\n      swap1\n      sload\n      swap1\n      0x0100\n      exp\n      swap1\n      div\n      0xffffffffffffffffffffffffffffffffffffffff\n      and\n      swap1\n      dup1\n      0x02\n      add\n      0x00\n      swap1\n      sload\n      swap1\n      0x0100\n      exp\n      swap1\n      div\n      0xffffffffffffffffffffffffffffffffffffffff\n      and\n      swap1\n      pop\n      dup4\n      jump\t// out\n        /* \"TictactoeRegistry.sol\":356:407  mapping(address => Game[]) public SecondPlayerGames */\n    tag_21:\n      mstore(0x20, 0x01)\n      dup2\n      0x00\n      mstore\n      keccak256(0x00, 0x40)\n      dup2\n      dup2\n      sload\n      dup2\n      lt\n      tag_59\n      jumpi\n      0x00\n      dup1\n      revert\n    tag_59:\n      swap1\n      0x00\n      mstore\n      keccak256(0x00, 0x20)\n      swap1\n      0x03\n      mul\n      add\n      0x00\n      swap2\n      pop\n      swap2\n      pop\n      pop\n      dup1\n      0x00\n      add\n      0x00\n      swap1\n      sload\n      swap1\n      0x0100\n      exp\n      swap1\n      div\n      0xffffffffffffffffffffffffffffffffffffffff\n      and\n      swap1\n      dup1\n      0x01\n      add\n      0x00\n      swap1\n      sload\n      swap1\n      0x0100\n      exp\n      swap1\n      div\n      0xffffffffffffffffffffffffffffffffffffffff\n      and\n      swap1\n      dup1\n      0x02\n      add\n      0x00\n      swap1\n      sload\n      swap1\n      0x0100\n      exp\n      swap1\n      div\n      0xffffffffffffffffffffffffffffffffffffffff\n      and\n      swap1\n      pop\n      dup4\n      jump\t// out\n        /* \"TictactoeRegistry.sol\":472:1260  function register(address _firstPlayer, address _secondPlayer, address _gameContract) public {... */\n    tag_26:\n        /* \"TictactoeRegistry.sol\":597:609  _firstPlayer */\n      dup3\n        /* \"TictactoeRegistry.sol\":583:609  msg.sender == _firstPlayer */\n      0xffffffffffffffffffffffffffffffffffffffff\n      and\n        /* \"TictactoeRegistry.sol\":583:593  msg.sender */\n      caller\n        /* \"TictactoeRegistry.sol\":583:609  msg.sender == _firstPlayer */\n      0xffffffffffffffffffffffffffffffffffffffff\n      and\n      eq\n        /* \"TictactoeRegistry.sol\":583:640  msg.sender == _firstPlayer || msg.sender == _secondPlayer */\n      dup1\n      tag_62\n      jumpi\n      pop\n        /* \"TictactoeRegistry.sol\":627:640  _secondPlayer */\n      dup2\n        /* \"TictactoeRegistry.sol\":613:640  msg.sender == _secondPlayer */\n      0xffffffffffffffffffffffffffffffffffffffff\n      and\n        /* \"TictactoeRegistry.sol\":613:623  msg.sender */\n      caller\n        /* \"TictactoeRegistry.sol\":613:640  msg.sender == _secondPlayer */\n      0xffffffffffffffffffffffffffffffffffffffff\n      and\n      eq\n        /* \"TictactoeRegistry.sol\":583:640  msg.sender == _firstPlayer || msg.sender == _secondPlayer */\n    tag_62:\n        /* \"TictactoeRegistry.sol\":575:641  require(msg.sender == _firstPlayer || msg.sender == _secondPlayer) */\n      tag_63\n      jumpi\n      0x00\n      dup1\n      revert\n    tag_63:\n        /* \"TictactoeRegistry.sol\":651:663  bool newGame */\n      0x00\n        /* \"TictactoeRegistry.sol\":666:670  true */\n      0x01\n        /* \"TictactoeRegistry.sol\":651:670  bool newGame = true */\n      swap1\n      pop\n        /* \"TictactoeRegistry.sol\":685:694  uint256 i */\n      0x00\n        /* \"TictactoeRegistry.sol\":680:942  for (uint256 i = 0; i < FirstPlayerGames[msg.sender].length; i++) {... */\n    tag_64:\n        /* \"TictactoeRegistry.sol\":704:720  FirstPlayerGames */\n      0x00\n        /* \"TictactoeRegistry.sol\":704:732  FirstPlayerGames[msg.sender] */\n      dup1\n        /* \"TictactoeRegistry.sol\":721:731  msg.sender */\n      caller\n        /* \"TictactoeRegistry.sol\":704:732  FirstPlayerGames[msg.sender] */\n      0xffffffffffffffffffffffffffffffffffffffff\n      and\n      0xffffffffffffffffffffffffffffffffffffffff\n      and\n      dup2\n      mstore\n      0x20\n      add\n      swap1\n      dup2\n      mstore\n      0x20\n      add\n      0x00\n      keccak256\n        /* \"TictactoeRegistry.sol\":704:739  FirstPlayerGames[msg.sender].length */\n      dup1\n      sload\n      swap1\n      pop\n        /* \"TictactoeRegistry.sol\":700:701  i */\n      dup2\n        /* \"TictactoeRegistry.sol\":700:739  i < FirstPlayerGames[msg.sender].length */\n      lt\n        /* \"TictactoeRegistry.sol\":680:942  for (uint256 i = 0; i < FirstPlayerGames[msg.sender].length; i++) {... */\n      iszero\n      tag_65\n      jumpi\n        /* \"TictactoeRegistry.sol\":812:825  _secondPlayer */\n      dup4\n        /* \"TictactoeRegistry.sol\":764:825  FirstPlayerGames[msg.sender][i].secondPlayer == _secondPlayer */\n      0xffffffffffffffffffffffffffffffffffffffff\n      and\n        /* \"TictactoeRegistry.sol\":764:780  FirstPlayerGames */\n      0x00\n        /* \"TictactoeRegistry.sol\":764:792  FirstPlayerGames[msg.sender] */\n      dup1\n        /* \"TictactoeRegistry.sol\":781:791  msg.sender */\n      caller\n        /* \"TictactoeRegistry.sol\":764:792  FirstPlayerGames[msg.sender] */\n      0xffffffffffffffffffffffffffffffffffffffff\n      and\n      0xffffffffffffffffffffffffffffffffffffffff\n      and\n      dup2\n      mstore\n      0x20\n      add\n      swap1\n      dup2\n      mstore\n      0x20\n      add\n      0x00\n      keccak256\n        /* \"TictactoeRegistry.sol\":793:794  i */\n      dup3\n        /* \"TictactoeRegistry.sol\":764:795  FirstPlayerGames[msg.sender][i] */\n      dup2\n      sload\n      dup2\n      lt\n      tag_67\n      jumpi\n      tag_68\n      tag_42\n      jump\t// in\n    tag_68:\n    tag_67:\n      swap1\n      0x00\n      mstore\n      keccak256(0x00, 0x20)\n      swap1\n      0x03\n      mul\n      add\n        /* \"TictactoeRegistry.sol\":764:808  FirstPlayerGames[msg.sender][i].secondPlayer */\n      0x01\n      add\n      0x00\n      swap1\n      sload\n      swap1\n      0x0100\n      exp\n      swap1\n      div\n      0xffffffffffffffffffffffffffffffffffffffff\n      and\n        /* \"TictactoeRegistry.sol\":764:825  FirstPlayerGames[msg.sender][i].secondPlayer == _secondPlayer */\n      0xffffffffffffffffffffffffffffffffffffffff\n      and\n      sub\n        /* \"TictactoeRegistry.sol\":760:932  if (FirstPlayerGames[msg.sender][i].secondPlayer == _secondPlayer) {... */\n      tag_70\n      jumpi\n        /* \"TictactoeRegistry.sol\":855:860  false */\n      0x00\n        /* \"TictactoeRegistry.sol\":845:860  newGame = false */\n      swap2\n      pop\n        /* \"TictactoeRegistry.sol\":903:916  _gameContract */\n      dup3\n        /* \"TictactoeRegistry.sol\":885:917  GameAlreadyExists(_gameContract) */\n      mload(0x40)\n      0x75e39c8c00000000000000000000000000000000000000000000000000000000\n      dup2\n      mstore\n      0x04\n      add\n      tag_71\n      swap2\n      swap1\n      tag_72\n      jump\t// in\n    tag_71:\n      mload(0x40)\n      dup1\n      swap2\n      sub\n      swap1\n      revert\n        /* \"TictactoeRegistry.sol\":760:932  if (FirstPlayerGames[msg.sender][i].secondPlayer == _secondPlayer) {... */\n    tag_70:\n        /* \"TictactoeRegistry.sol\":741:744  i++ */\n      dup1\n      dup1\n      0x01\n      add\n      swap2\n      pop\n      pop\n        /* \"TictactoeRegistry.sol\":680:942  for (uint256 i = 0; i < FirstPlayerGames[msg.sender].length; i++) {... */\n      jump(tag_64)\n    tag_65:\n      pop\n        /* \"TictactoeRegistry.sol\":955:962  newGame */\n      dup1\n        /* \"TictactoeRegistry.sol\":951:1254  if (newGame) {... */\n      iszero\n      tag_73\n      jumpi\n        /* \"TictactoeRegistry.sol\":978:994  Game memory game */\n      tag_74\n      tag_36\n      jump\t// in\n    tag_74:\n        /* \"TictactoeRegistry.sol\":1027:1037  msg.sender */\n      caller\n        /* \"TictactoeRegistry.sol\":1008:1012  game */\n      dup2\n        /* \"TictactoeRegistry.sol\":1008:1024  game.firstPlayer */\n      0x00\n      add\n        /* \"TictactoeRegistry.sol\":1008:1037  game.firstPlayer = msg.sender */\n      swap1\n      0xffffffffffffffffffffffffffffffffffffffff\n      and\n      swap1\n      dup2\n      0xffffffffffffffffffffffffffffffffffffffff\n      and\n      dup2\n      mstore\n      pop\n      pop\n        /* \"TictactoeRegistry.sol\":1071:1084  _secondPlayer */\n      dup4\n        /* \"TictactoeRegistry.sol\":1051:1055  game */\n      dup2\n        /* \"TictactoeRegistry.sol\":1051:1068  game.secondPlayer */\n      0x20\n      add\n        /* \"TictactoeRegistry.sol\":1051:1084  game.secondPlayer = _secondPlayer */\n      swap1\n      0xffffffffffffffffffffffffffffffffffffffff\n      and\n      swap1\n      dup2\n      0xffffffffffffffffffffffffffffffffffffffff\n      and\n      dup2\n      mstore\n      pop\n      pop\n        /* \"TictactoeRegistry.sol\":1118:1131  _gameContract */\n      dup3\n        /* \"TictactoeRegistry.sol\":1098:1102  game */\n      dup2\n        /* \"TictactoeRegistry.sol\":1098:1115  game.gameContract */\n      0x40\n      add\n        /* \"TictactoeRegistry.sol\":1098:1131  game.gameContract = _gameContract */\n      swap1\n      0xffffffffffffffffffffffffffffffffffffffff\n      and\n      swap1\n      dup2\n      0xffffffffffffffffffffffffffffffffffffffff\n      and\n      dup2\n      mstore\n      pop\n      pop\n        /* \"TictactoeRegistry.sol\":1145:1161  FirstPlayerGames */\n      0x00\n        /* \"TictactoeRegistry.sol\":1145:1175  FirstPlayerGames[_firstPlayer] */\n      dup1\n        /* \"TictactoeRegistry.sol\":1162:1174  _firstPlayer */\n      dup7\n        /* \"TictactoeRegistry.sol\":1145:1175  FirstPlayerGames[_firstPlayer] */\n      0xffffffffffffffffffffffffffffffffffffffff\n      and\n      0xffffffffffffffffffffffffffffffffffffffff\n      and\n      dup2\n      mstore\n      0x20\n      add\n      swap1\n      dup2\n      mstore\n      0x20\n      add\n      0x00\n      keccak256\n        /* \"TictactoeRegistry.sol\":1181:1185  game */\n      dup2\n        /* \"TictactoeRegistry.sol\":1145:1186  FirstPlayerGames[_firstPlayer].push(game) */\n      swap1\n      dup1\n      0x01\n      dup2\n      sload\n      add\n      dup1\n      dup3\n      sstore\n      dup1\n      swap2\n      pop\n      pop\n      0x01\n      swap1\n      sub\n      swap1\n      0x00\n      mstore\n      keccak256(0x00, 0x20)\n      swap1\n      0x03\n      mul\n      add\n      0x00\n      swap1\n      swap2\n      swap1\n      swap2\n      swap1\n      swap2\n      pop\n      0x00\n      dup3\n      add\n      mload\n      dup2\n      0x00\n      add\n      exp(0x0100, 0x00)\n      dup2\n      sload\n      dup2\n      0xffffffffffffffffffffffffffffffffffffffff\n      mul\n      not\n      and\n      swap1\n      dup4\n      0xffffffffffffffffffffffffffffffffffffffff\n      and\n      mul\n      or\n      swap1\n      sstore\n      pop\n      0x20\n      dup3\n      add\n      mload\n      dup2\n      0x01\n      add\n      exp(0x0100, 0x00)\n      dup2\n      sload\n      dup2\n      0xffffffffffffffffffffffffffffffffffffffff\n      mul\n      not\n      and\n      swap1\n      dup4\n      0xffffffffffffffffffffffffffffffffffffffff\n      and\n      mul\n      or\n      swap1\n      sstore\n      pop\n      0x40\n      dup3\n      add\n      mload\n      dup2\n      0x02\n      add\n      exp(0x0100, 0x00)\n      dup2\n      sload\n      dup2\n      0xffffffffffffffffffffffffffffffffffffffff\n      mul\n      not\n      and\n      swap1\n      dup4\n      0xffffffffffffffffffffffffffffffffffffffff\n      and\n      mul\n      or\n      swap1\n      sstore\n      pop\n      pop\n      pop\n        /* \"TictactoeRegistry.sol\":1200:1217  SecondPlayerGames */\n      0x01\n        /* \"TictactoeRegistry.sol\":1200:1232  SecondPlayerGames[_secondPlayer] */\n      0x00\n        /* \"TictactoeRegistry.sol\":1218:1231  _secondPlayer */\n      dup6\n        /* \"TictactoeRegistry.sol\":1200:1232  SecondPlayerGames[_secondPlayer] */\n      0xffffffffffffffffffffffffffffffffffffffff\n      and\n      0xffffffffffffffffffffffffffffffffffffffff\n      and\n      dup2\n      mstore\n      0x20\n      add\n      swap1\n      dup2\n      mstore\n      0x20\n      add\n      0x00\n      keccak256\n        /* \"TictactoeRegistry.sol\":1238:1242  game */\n      dup2\n        /* \"TictactoeRegistry.sol\":1200:1243  SecondPlayerGames[_secondPlayer].push(game) */\n      swap1\n      dup1\n      0x01\n      dup2\n      sload\n      add\n      dup1\n      dup3\n      sstore\n      dup1\n      swap2\n      pop\n      pop\n      0x01\n      swap1\n      sub\n      swap1\n      0x00\n      mstore\n      keccak256(0x00, 0x20)\n      swap1\n      0x03\n      mul\n      add\n      0x00\n      swap1\n      swap2\n      swap1\n      swap2\n      swap1\n      swap2\n      pop\n      0x00\n      dup3\n      add\n      mload\n      dup2\n      0x00\n      add\n      exp(0x0100, 0x00)\n      dup2\n      sload\n      dup2\n      0xffffffffffffffffffffffffffffffffffffffff\n      mul\n      not\n      and\n      swap1\n      dup4\n      0xffffffffffffffffffffffffffffffffffffffff\n      and\n      mul\n      or\n      swap1\n      sstore\n      pop\n      0x20\n      dup3\n      add\n      mload\n      dup2\n      0x01\n      add\n      exp(0x0100, 0x00)\n      dup2\n      sload\n      dup2\n      0xffffffffffffffffffffffffffffffffffffffff\n      mul\n      not\n      and\n      swap1\n      dup4\n      0xffffffffffffffffffffffffffffffffffffffff\n      and\n      mul\n      or\n      swap1\n      sstore\n      pop\n      0x40\n      dup3\n      add\n      mload\n      dup2\n      0x02\n      add\n      exp(0x0100, 0x00)\n      dup2\n      sload\n      dup2\n      0xffffffffffffffffffffffffffffffffffffffff\n      mul\n      not\n      and\n      swap1\n      dup4\n      0xffffffffffffffffffffffffffffffffffffffff\n      and\n      mul\n      or\n      swap1\n      sstore\n      pop\n      pop\n      pop\n        /* \"TictactoeRegistry.sol\":964:1254  {... */\n      pop\n        /* \"TictactoeRegistry.sol\":951:1254  if (newGame) {... */\n    tag_73:\n        /* \"TictactoeRegistry.sol\":565:1260  {... */\n      pop\n        /* \"TictactoeRegistry.sol\":472:1260  function register(address _firstPlayer, address _secondPlayer, address _gameContract) public {... */\n      pop\n      pop\n      pop\n      jump\t// out\n    tag_36:\n      mload(0x40)\n      dup1\n      0x60\n      add\n      0x40\n      mstore\n      dup1\n      and(0xffffffffffffffffffffffffffffffffffffffff, 0x00)\n      dup2\n      mstore\n      0x20\n      add\n      and(0xffffffffffffffffffffffffffffffffffffffff, 0x00)\n      dup2\n      mstore\n      0x20\n      add\n      and(0xffffffffffffffffffffffffffffffffffffffff, 0x00)\n      dup2\n      mstore\n      pop\n      swap1\n      jump\t// out\n        /* \"#utility.yul\":88:205   */\n    tag_78:\n        /* \"#utility.yul\":197:198   */\n      0x00\n        /* \"#utility.yul\":194:195   */\n      dup1\n        /* \"#utility.yul\":187:199   */\n      revert\n        /* \"#utility.yul\":334:460   */\n    tag_80:\n        /* \"#utility.yul\":371:378   */\n      0x00\n        /* \"#utility.yul\":411:453   */\n      0xffffffffffffffffffffffffffffffffffffffff\n        /* \"#utility.yul\":404:409   */\n      dup3\n        /* \"#utility.yul\":400:454   */\n      and\n        /* \"#utility.yul\":389:454   */\n      swap1\n      pop\n        /* \"#utility.yul\":334:460   */\n      swap2\n      swap1\n      pop\n      jump\t// out\n        /* \"#utility.yul\":466:562   */\n    tag_81:\n        /* \"#utility.yul\":503:510   */\n      0x00\n        /* \"#utility.yul\":532:556   */\n      tag_103\n        /* \"#utility.yul\":550:555   */\n      dup3\n        /* \"#utility.yul\":532:556   */\n      tag_80\n      jump\t// in\n    tag_103:\n        /* \"#utility.yul\":521:556   */\n      swap1\n      pop\n        /* \"#utility.yul\":466:562   */\n      swap2\n      swap1\n      pop\n      jump\t// out\n        /* \"#utility.yul\":568:690   */\n    tag_82:\n        /* \"#utility.yul\":641:665   */\n      tag_105\n        /* \"#utility.yul\":659:664   */\n      dup2\n        /* \"#utility.yul\":641:665   */\n      tag_81\n      jump\t// in\n    tag_105:\n        /* \"#utility.yul\":634:639   */\n      dup2\n        /* \"#utility.yul\":631:666   */\n      eq\n        /* \"#utility.yul\":621:684   */\n      tag_106\n      jumpi\n        /* \"#utility.yul\":680:681   */\n      0x00\n        /* \"#utility.yul\":677:678   */\n      dup1\n        /* \"#utility.yul\":670:682   */\n      revert\n        /* \"#utility.yul\":621:684   */\n    tag_106:\n        /* \"#utility.yul\":568:690   */\n      pop\n      jump\t// out\n        /* \"#utility.yul\":696:835   */\n    tag_83:\n        /* \"#utility.yul\":742:747   */\n      0x00\n        /* \"#utility.yul\":780:786   */\n      dup2\n        /* \"#utility.yul\":767:787   */\n      calldataload\n        /* \"#utility.yul\":758:787   */\n      swap1\n      pop\n        /* \"#utility.yul\":796:829   */\n      tag_108\n        /* \"#utility.yul\":823:828   */\n      dup2\n        /* \"#utility.yul\":796:829   */\n      tag_82\n      jump\t// in\n    tag_108:\n        /* \"#utility.yul\":696:835   */\n      swap3\n      swap2\n      pop\n      pop\n      jump\t// out\n        /* \"#utility.yul\":841:1170   */\n    tag_9:\n        /* \"#utility.yul\":900:906   */\n      0x00\n        /* \"#utility.yul\":949:951   */\n      0x20\n        /* \"#utility.yul\":937:946   */\n      dup3\n        /* \"#utility.yul\":928:935   */\n      dup5\n        /* \"#utility.yul\":924:947   */\n      sub\n        /* \"#utility.yul\":920:952   */\n      slt\n        /* \"#utility.yul\":917:1036   */\n      iszero\n      tag_110\n      jumpi\n        /* \"#utility.yul\":955:1034   */\n      tag_111\n      tag_78\n      jump\t// in\n    tag_111:\n        /* \"#utility.yul\":917:1036   */\n    tag_110:\n        /* \"#utility.yul\":1075:1076   */\n      0x00\n        /* \"#utility.yul\":1100:1153   */\n      tag_112\n        /* \"#utility.yul\":1145:1152   */\n      dup5\n        /* \"#utility.yul\":1136:1142   */\n      dup3\n        /* \"#utility.yul\":1125:1134   */\n      dup6\n        /* \"#utility.yul\":1121:1143   */\n      add\n        /* \"#utility.yul\":1100:1153   */\n      tag_83\n      jump\t// in\n    tag_112:\n        /* \"#utility.yul\":1090:1153   */\n      swap2\n      pop\n        /* \"#utility.yul\":1046:1163   */\n      pop\n        /* \"#utility.yul\":841:1170   */\n      swap3\n      swap2\n      pop\n      pop\n      jump\t// out\n        /* \"#utility.yul\":1176:1309   */\n    tag_84:\n        /* \"#utility.yul\":1262:1268   */\n      0x00\n        /* \"#utility.yul\":1296:1301   */\n      dup2\n        /* \"#utility.yul\":1290:1302   */\n      mload\n        /* \"#utility.yul\":1280:1302   */\n      swap1\n      pop\n        /* \"#utility.yul\":1176:1309   */\n      swap2\n      swap1\n      pop\n      jump\t// out\n        /* \"#utility.yul\":1315:1518   */\n    tag_85:\n        /* \"#utility.yul\":1433:1444   */\n      0x00\n        /* \"#utility.yul\":1467:1473   */\n      dup3\n        /* \"#utility.yul\":1462:1465   */\n      dup3\n        /* \"#utility.yul\":1455:1474   */\n      mstore\n        /* \"#utility.yul\":1507:1511   */\n      0x20\n        /* \"#utility.yul\":1502:1505   */\n      dup3\n        /* \"#utility.yul\":1498:1512   */\n      add\n        /* \"#utility.yul\":1483:1512   */\n      swap1\n      pop\n        /* \"#utility.yul\":1315:1518   */\n      swap3\n      swap2\n      pop\n      pop\n      jump\t// out\n        /* \"#utility.yul\":1524:1675   */\n    tag_86:\n        /* \"#utility.yul\":1610:1614   */\n      0x00\n        /* \"#utility.yul\":1633:1636   */\n      dup2\n        /* \"#utility.yul\":1625:1636   */\n      swap1\n      pop\n        /* \"#utility.yul\":1663:1667   */\n      0x20\n        /* \"#utility.yul\":1658:1661   */\n      dup3\n        /* \"#utility.yul\":1654:1668   */\n      add\n        /* \"#utility.yul\":1646:1668   */\n      swap1\n      pop\n        /* \"#utility.yul\":1524:1675   */\n      swap2\n      swap1\n      pop\n      jump\t// out\n        /* \"#utility.yul\":1681:1789   */\n    tag_87:\n        /* \"#utility.yul\":1758:1782   */\n      tag_117\n        /* \"#utility.yul\":1776:1781   */\n      dup2\n        /* \"#utility.yul\":1758:1782   */\n      tag_81\n      jump\t// in\n    tag_117:\n        /* \"#utility.yul\":1753:1756   */\n      dup3\n        /* \"#utility.yul\":1746:1783   */\n      mstore\n        /* \"#utility.yul\":1681:1789   */\n      pop\n      pop\n      jump\t// out\n        /* \"#utility.yul\":1865:2547   */\n    tag_88:\n        /* \"#utility.yul\":1990:1994   */\n      0x60\n        /* \"#utility.yul\":1985:1988   */\n      dup3\n        /* \"#utility.yul\":1981:1995   */\n      add\n        /* \"#utility.yul\":2084:2088   */\n      0x00\n        /* \"#utility.yul\":2077:2082   */\n      dup3\n        /* \"#utility.yul\":2073:2089   */\n      add\n        /* \"#utility.yul\":2067:2090   */\n      mload\n        /* \"#utility.yul\":2103:2166   */\n      tag_119\n        /* \"#utility.yul\":2160:2164   */\n      0x00\n        /* \"#utility.yul\":2155:2158   */\n      dup6\n        /* \"#utility.yul\":2151:2165   */\n      add\n        /* \"#utility.yul\":2137:2149   */\n      dup3\n        /* \"#utility.yul\":2103:2166   */\n      tag_87\n      jump\t// in\n    tag_119:\n        /* \"#utility.yul\":2005:2176   */\n      pop\n        /* \"#utility.yul\":2266:2270   */\n      0x20\n        /* \"#utility.yul\":2259:2264   */\n      dup3\n        /* \"#utility.yul\":2255:2271   */\n      add\n        /* \"#utility.yul\":2249:2272   */\n      mload\n        /* \"#utility.yul\":2285:2348   */\n      tag_120\n        /* \"#utility.yul\":2342:2346   */\n      0x20\n        /* \"#utility.yul\":2337:2340   */\n      dup6\n        /* \"#utility.yul\":2333:2347   */\n      add\n        /* \"#utility.yul\":2319:2331   */\n      dup3\n        /* \"#utility.yul\":2285:2348   */\n      tag_87\n      jump\t// in\n    tag_120:\n        /* \"#utility.yul\":2186:2358   */\n      pop\n        /* \"#utility.yul\":2448:2452   */\n      0x40\n        /* \"#utility.yul\":2441:2446   */\n      dup3\n        /* \"#utility.yul\":2437:2453   */\n      add\n        /* \"#utility.yul\":2431:2454   */\n      mload\n        /* \"#utility.yul\":2467:2530   */\n      tag_121\n        /* \"#utility.yul\":2524:2528   */\n      0x40\n        /* \"#utility.yul\":2519:2522   */\n      dup6\n        /* \"#utility.yul\":2515:2529   */\n      add\n        /* \"#utility.yul\":2501:2513   */\n      dup3\n        /* \"#utility.yul\":2467:2530   */\n      tag_87\n      jump\t// in\n    tag_121:\n        /* \"#utility.yul\":2368:2540   */\n      pop\n        /* \"#utility.yul\":1959:2547   */\n      pop\n        /* \"#utility.yul\":1865:2547   */\n      pop\n      pop\n      jump\t// out\n        /* \"#utility.yul\":2553:2808   */\n    tag_89:\n        /* \"#utility.yul\":2660:2670   */\n      0x00\n        /* \"#utility.yul\":2681:2765   */\n      tag_123\n        /* \"#utility.yul\":2761:2764   */\n      dup4\n        /* \"#utility.yul\":2753:2759   */\n      dup4\n        /* \"#utility.yul\":2681:2765   */\n      tag_88\n      jump\t// in\n    tag_123:\n        /* \"#utility.yul\":2797:2801   */\n      0x60\n        /* \"#utility.yul\":2792:2795   */\n      dup4\n        /* \"#utility.yul\":2788:2802   */\n      add\n        /* \"#utility.yul\":2774:2802   */\n      swap1\n      pop\n        /* \"#utility.yul\":2553:2808   */\n      swap3\n      swap2\n      pop\n      pop\n      jump\t// out\n        /* \"#utility.yul\":2814:2946   */\n    tag_90:\n        /* \"#utility.yul\":2903:2907   */\n      0x00\n        /* \"#utility.yul\":2935:2939   */\n      0x20\n        /* \"#utility.yul\":2930:2933   */\n      dup3\n        /* \"#utility.yul\":2926:2940   */\n      add\n        /* \"#utility.yul\":2918:2940   */\n      swap1\n      pop\n        /* \"#utility.yul\":2814:2946   */\n      swap2\n      swap1\n      pop\n      jump\t// out\n        /* \"#utility.yul\":3026:3910   */\n    tag_91:\n        /* \"#utility.yul\":3183:3186   */\n      0x00\n        /* \"#utility.yul\":3212:3285   */\n      tag_126\n        /* \"#utility.yul\":3279:3284   */\n      dup3\n        /* \"#utility.yul\":3212:3285   */\n      tag_84\n      jump\t// in\n    tag_126:\n        /* \"#utility.yul\":3301:3406   */\n      tag_127\n        /* \"#utility.yul\":3399:3405   */\n      dup2\n        /* \"#utility.yul\":3394:3397   */\n      dup6\n        /* \"#utility.yul\":3301:3406   */\n      tag_85\n      jump\t// in\n    tag_127:\n        /* \"#utility.yul\":3294:3406   */\n      swap4\n      pop\n        /* \"#utility.yul\":3430:3505   */\n      tag_128\n        /* \"#utility.yul\":3499:3504   */\n      dup4\n        /* \"#utility.yul\":3430:3505   */\n      tag_86\n      jump\t// in\n    tag_128:\n        /* \"#utility.yul\":3528:3535   */\n      dup1\n        /* \"#utility.yul\":3559:3560   */\n      0x00\n        /* \"#utility.yul\":3544:3885   */\n    tag_129:\n        /* \"#utility.yul\":3569:3575   */\n      dup4\n        /* \"#utility.yul\":3566:3567   */\n      dup2\n        /* \"#utility.yul\":3563:3576   */\n      lt\n        /* \"#utility.yul\":3544:3885   */\n      iszero\n      tag_131\n      jumpi\n        /* \"#utility.yul\":3645:3651   */\n      dup2\n        /* \"#utility.yul\":3639:3652   */\n      mload\n        /* \"#utility.yul\":3672:3773   */\n      tag_132\n        /* \"#utility.yul\":3769:3772   */\n      dup9\n        /* \"#utility.yul\":3754:3767   */\n      dup3\n        /* \"#utility.yul\":3672:3773   */\n      tag_89\n      jump\t// in\n    tag_132:\n        /* \"#utility.yul\":3665:3773   */\n      swap8\n      pop\n        /* \"#utility.yul\":3796:3875   */\n      tag_133\n        /* \"#utility.yul\":3868:3874   */\n      dup4\n        /* \"#utility.yul\":3796:3875   */\n      tag_90\n      jump\t// in\n    tag_133:\n        /* \"#utility.yul\":3786:3875   */\n      swap3\n      pop\n        /* \"#utility.yul\":3604:3885   */\n      pop\n        /* \"#utility.yul\":3591:3592   */\n      0x01\n        /* \"#utility.yul\":3588:3589   */\n      dup2\n        /* \"#utility.yul\":3584:3593   */\n      add\n        /* \"#utility.yul\":3579:3593   */\n      swap1\n      pop\n        /* \"#utility.yul\":3544:3885   */\n      jump(tag_129)\n    tag_131:\n        /* \"#utility.yul\":3548:3562   */\n      pop\n        /* \"#utility.yul\":3901:3904   */\n      dup6\n        /* \"#utility.yul\":3894:3904   */\n      swap4\n      pop\n        /* \"#utility.yul\":3188:3910   */\n      pop\n      pop\n      pop\n        /* \"#utility.yul\":3026:3910   */\n      swap3\n      swap2\n      pop\n      pop\n      jump\t// out\n        /* \"#utility.yul\":3916:4365   */\n    tag_12:\n        /* \"#utility.yul\":4097:4101   */\n      0x00\n        /* \"#utility.yul\":4135:4137   */\n      0x20\n        /* \"#utility.yul\":4124:4133   */\n      dup3\n        /* \"#utility.yul\":4120:4138   */\n      add\n        /* \"#utility.yul\":4112:4138   */\n      swap1\n      pop\n        /* \"#utility.yul\":4184:4193   */\n      dup2\n        /* \"#utility.yul\":4178:4182   */\n      dup2\n        /* \"#utility.yul\":4174:4194   */\n      sub\n        /* \"#utility.yul\":4170:4171   */\n      0x00\n        /* \"#utility.yul\":4159:4168   */\n      dup4\n        /* \"#utility.yul\":4155:4172   */\n      add\n        /* \"#utility.yul\":4148:4195   */\n      mstore\n        /* \"#utility.yul\":4212:4358   */\n      tag_135\n        /* \"#utility.yul\":4353:4357   */\n      dup2\n        /* \"#utility.yul\":4344:4350   */\n      dup5\n        /* \"#utility.yul\":4212:4358   */\n      tag_91\n      jump\t// in\n    tag_135:\n        /* \"#utility.yul\":4204:4358   */\n      swap1\n      pop\n        /* \"#utility.yul\":3916:4365   */\n      swap3\n      swap2\n      pop\n      pop\n      jump\t// out\n        /* \"#utility.yul\":4371:4448   */\n    tag_92:\n        /* \"#utility.yul\":4408:4415   */\n      0x00\n        /* \"#utility.yul\":4437:4442   */\n      dup2\n        /* \"#utility.yul\":4426:4442   */\n      swap1\n      pop\n        /* \"#utility.yul\":4371:4448   */\n      swap2\n      swap1\n      pop\n      jump\t// out\n        /* \"#utility.yul\":4454:4576   */\n    tag_93:\n        /* \"#utility.yul\":4527:4551   */\n      tag_138\n        /* \"#utility.yul\":4545:4550   */\n      dup2\n        /* \"#utility.yul\":4527:4551   */\n      tag_92\n      jump\t// in\n    tag_138:\n        /* \"#utility.yul\":4520:4525   */\n      dup2\n        /* \"#utility.yul\":4517:4552   */\n      eq\n        /* \"#utility.yul\":4507:4570   */\n      tag_139\n      jumpi\n        /* \"#utility.yul\":4566:4567   */\n      0x00\n        /* \"#utility.yul\":4563:4564   */\n      dup1\n        /* \"#utility.yul\":4556:4568   */\n      revert\n        /* \"#utility.yul\":4507:4570   */\n    tag_139:\n        /* \"#utility.yul\":4454:4576   */\n      pop\n      jump\t// out\n        /* \"#utility.yul\":4582:4721   */\n    tag_94:\n        /* \"#utility.yul\":4628:4633   */\n      0x00\n        /* \"#utility.yul\":4666:4672   */\n      dup2\n        /* \"#utility.yul\":4653:4673   */\n      calldataload\n        /* \"#utility.yul\":4644:4673   */\n      swap1\n      pop\n        /* \"#utility.yul\":4682:4715   */\n      tag_141\n        /* \"#utility.yul\":4709:4714   */\n      dup2\n        /* \"#utility.yul\":4682:4715   */\n      tag_93\n      jump\t// in\n    tag_141:\n        /* \"#utility.yul\":4582:4721   */\n      swap3\n      swap2\n      pop\n      pop\n      jump\t// out\n        /* \"#utility.yul\":4727:5201   */\n    tag_15:\n        /* \"#utility.yul\":4795:4801   */\n      0x00\n        /* \"#utility.yul\":4803:4809   */\n      dup1\n        /* \"#utility.yul\":4852:4854   */\n      0x40\n        /* \"#utility.yul\":4840:4849   */\n      dup4\n        /* \"#utility.yul\":4831:4838   */\n      dup6\n        /* \"#utility.yul\":4827:4850   */\n      sub\n        /* \"#utility.yul\":4823:4855   */\n      slt\n        /* \"#utility.yul\":4820:4939   */\n      iszero\n      tag_143\n      jumpi\n        /* \"#utility.yul\":4858:4937   */\n      tag_144\n      tag_78\n      jump\t// in\n    tag_144:\n        /* \"#utility.yul\":4820:4939   */\n    tag_143:\n        /* \"#utility.yul\":4978:4979   */\n      0x00\n        /* \"#utility.yul\":5003:5056   */\n      tag_145\n        /* \"#utility.yul\":5048:5055   */\n      dup6\n        /* \"#utility.yul\":5039:5045   */\n      dup3\n        /* \"#utility.yul\":5028:5037   */\n      dup7\n        /* \"#utility.yul\":5024:5046   */\n      add\n        /* \"#utility.yul\":5003:5056   */\n      tag_83\n      jump\t// in\n    tag_145:\n        /* \"#utility.yul\":4993:5056   */\n      swap3\n      pop\n        /* \"#utility.yul\":4949:5066   */\n      pop\n        /* \"#utility.yul\":5105:5107   */\n      0x20\n        /* \"#utility.yul\":5131:5184   */\n      tag_146\n        /* \"#utility.yul\":5176:5183   */\n      dup6\n        /* \"#utility.yul\":5167:5173   */\n      dup3\n        /* \"#utility.yul\":5156:5165   */\n      dup7\n        /* \"#utility.yul\":5152:5174   */\n      add\n        /* \"#utility.yul\":5131:5184   */\n      tag_94\n      jump\t// in\n    tag_146:\n        /* \"#utility.yul\":5121:5184   */\n      swap2\n      pop\n        /* \"#utility.yul\":5076:5194   */\n      pop\n        /* \"#utility.yul\":4727:5201   */\n      swap3\n      pop\n      swap3\n      swap1\n      pop\n      jump\t// out\n        /* \"#utility.yul\":5207:5325   */\n    tag_95:\n        /* \"#utility.yul\":5294:5318   */\n      tag_148\n        /* \"#utility.yul\":5312:5317   */\n      dup2\n        /* \"#utility.yul\":5294:5318   */\n      tag_81\n      jump\t// in\n    tag_148:\n        /* \"#utility.yul\":5289:5292   */\n      dup3\n        /* \"#utility.yul\":5282:5319   */\n      mstore\n        /* \"#utility.yul\":5207:5325   */\n      pop\n      pop\n      jump\t// out\n        /* \"#utility.yul\":5331:5773   */\n    tag_18:\n        /* \"#utility.yul\":5480:5484   */\n      0x00\n        /* \"#utility.yul\":5518:5520   */\n      0x60\n        /* \"#utility.yul\":5507:5516   */\n      dup3\n        /* \"#utility.yul\":5503:5521   */\n      add\n        /* \"#utility.yul\":5495:5521   */\n      swap1\n      pop\n        /* \"#utility.yul\":5531:5602   */\n      tag_150\n        /* \"#utility.yul\":5599:5600   */\n      0x00\n        /* \"#utility.yul\":5588:5597   */\n      dup4\n        /* \"#utility.yul\":5584:5601   */\n      add\n        /* \"#utility.yul\":5575:5581   */\n      dup7\n        /* \"#utility.yul\":5531:5602   */\n      tag_95\n      jump\t// in\n    tag_150:\n        /* \"#utility.yul\":5612:5684   */\n      tag_151\n        /* \"#utility.yul\":5680:5682   */\n      0x20\n        /* \"#utility.yul\":5669:5678   */\n      dup4\n        /* \"#utility.yul\":5665:5683   */\n      add\n        /* \"#utility.yul\":5656:5662   */\n      dup6\n        /* \"#utility.yul\":5612:5684   */\n      tag_95\n      jump\t// in\n    tag_151:\n        /* \"#utility.yul\":5694:5766   */\n      tag_152\n        /* \"#utility.yul\":5762:5764   */\n      0x40\n        /* \"#utility.yul\":5751:5760   */\n      dup4\n        /* \"#utility.yul\":5747:5765   */\n      add\n        /* \"#utility.yul\":5738:5744   */\n      dup5\n        /* \"#utility.yul\":5694:5766   */\n      tag_95\n      jump\t// in\n    tag_152:\n        /* \"#utility.yul\":5331:5773   */\n      swap5\n      swap4\n      pop\n      pop\n      pop\n      pop\n      jump\t// out\n        /* \"#utility.yul\":5779:6398   */\n    tag_25:\n        /* \"#utility.yul\":5856:5862   */\n      0x00\n        /* \"#utility.yul\":5864:5870   */\n      dup1\n        /* \"#utility.yul\":5872:5878   */\n      0x00\n        /* \"#utility.yul\":5921:5923   */\n      0x60\n        /* \"#utility.yul\":5909:5918   */\n      dup5\n        /* \"#utility.yul\":5900:5907   */\n      dup7\n        /* \"#utility.yul\":5896:5919   */\n      sub\n        /* \"#utility.yul\":5892:5924   */\n      slt\n        /* \"#utility.yul\":5889:6008   */\n      iszero\n      tag_154\n      jumpi\n        /* \"#utility.yul\":5927:6006   */\n      tag_155\n      tag_78\n      jump\t// in\n    tag_155:\n        /* \"#utility.yul\":5889:6008   */\n    tag_154:\n        /* \"#utility.yul\":6047:6048   */\n      0x00\n        /* \"#utility.yul\":6072:6125   */\n      tag_156\n        /* \"#utility.yul\":6117:6124   */\n      dup7\n        /* \"#utility.yul\":6108:6114   */\n      dup3\n        /* \"#utility.yul\":6097:6106   */\n      dup8\n        /* \"#utility.yul\":6093:6115   */\n      add\n        /* \"#utility.yul\":6072:6125   */\n      tag_83\n      jump\t// in\n    tag_156:\n        /* \"#utility.yul\":6062:6125   */\n      swap4\n      pop\n        /* \"#utility.yul\":6018:6135   */\n      pop\n        /* \"#utility.yul\":6174:6176   */\n      0x20\n        /* \"#utility.yul\":6200:6253   */\n      tag_157\n        /* \"#utility.yul\":6245:6252   */\n      dup7\n        /* \"#utility.yul\":6236:6242   */\n      dup3\n        /* \"#utility.yul\":6225:6234   */\n      dup8\n        /* \"#utility.yul\":6221:6243   */\n      add\n        /* \"#utility.yul\":6200:6253   */\n      tag_83\n      jump\t// in\n    tag_157:\n        /* \"#utility.yul\":6190:6253   */\n      swap3\n      pop\n        /* \"#utility.yul\":6145:6263   */\n      pop\n        /* \"#utility.yul\":6302:6304   */\n      0x40\n        /* \"#utility.yul\":6328:6381   */\n      tag_158\n        /* \"#utility.yul\":6373:6380   */\n      dup7\n        /* \"#utility.yul\":6364:6370   */\n      dup3\n        /* \"#utility.yul\":6353:6362   */\n      dup8\n        /* \"#utility.yul\":6349:6371   */\n      add\n        /* \"#utility.yul\":6328:6381   */\n      tag_83\n      jump\t// in\n    tag_158:\n        /* \"#utility.yul\":6318:6381   */\n      swap2\n      pop\n        /* \"#utility.yul\":6273:6391   */\n      pop\n        /* \"#utility.yul\":5779:6398   */\n      swap3\n      pop\n      swap3\n      pop\n      swap3\n      jump\t// out\n        /* \"#utility.yul\":6404:6584   */\n    tag_96:\n        /* \"#utility.yul\":6452:6529   */\n      0x4e487b7100000000000000000000000000000000000000000000000000000000\n        /* \"#utility.yul\":6449:6450   */\n      0x00\n        /* \"#utility.yul\":6442:6530   */\n      mstore\n        /* \"#utility.yul\":6549:6553   */\n      0x11\n        /* \"#utility.yul\":6546:6547   */\n      0x04\n        /* \"#utility.yul\":6539:6554   */\n      mstore\n        /* \"#utility.yul\":6573:6577   */\n      0x24\n        /* \"#utility.yul\":6570:6571   */\n      0x00\n        /* \"#utility.yul\":6563:6578   */\n      revert\n        /* \"#utility.yul\":6590:6781   */\n    tag_29:\n        /* \"#utility.yul\":6630:6633   */\n      0x00\n        /* \"#utility.yul\":6649:6669   */\n      tag_161\n        /* \"#utility.yul\":6667:6668   */\n      dup3\n        /* \"#utility.yul\":6649:6669   */\n      tag_92\n      jump\t// in\n    tag_161:\n        /* \"#utility.yul\":6644:6669   */\n      swap2\n      pop\n        /* \"#utility.yul\":6683:6703   */\n      tag_162\n        /* \"#utility.yul\":6701:6702   */\n      dup4\n        /* \"#utility.yul\":6683:6703   */\n      tag_92\n      jump\t// in\n    tag_162:\n        /* \"#utility.yul\":6678:6703   */\n      swap3\n      pop\n        /* \"#utility.yul\":6726:6727   */\n      dup3\n        /* \"#utility.yul\":6723:6724   */\n      dup3\n        /* \"#utility.yul\":6719:6728   */\n      add\n        /* \"#utility.yul\":6712:6728   */\n      swap1\n      pop\n        /* \"#utility.yul\":6747:6750   */\n      dup1\n        /* \"#utility.yul\":6744:6745   */\n      dup3\n        /* \"#utility.yul\":6741:6751   */\n      gt\n        /* \"#utility.yul\":6738:6774   */\n      iszero\n      tag_163\n      jumpi\n        /* \"#utility.yul\":6754:6772   */\n      tag_164\n      tag_96\n      jump\t// in\n    tag_164:\n        /* \"#utility.yul\":6738:6774   */\n    tag_163:\n        /* \"#utility.yul\":6590:6781   */\n      swap3\n      swap2\n      pop\n      pop\n      jump\t// out\n        /* \"#utility.yul\":6787:6967   */\n    tag_32:\n        /* \"#utility.yul\":6835:6912   */\n      0x4e487b7100000000000000000000000000000000000000000000000000000000\n        /* \"#utility.yul\":6832:6833   */\n      0x00\n        /* \"#utility.yul\":6825:6913   */\n      mstore\n        /* \"#utility.yul\":6932:6936   */\n      0x41\n        /* \"#utility.yul\":6929:6930   */\n      0x04\n        /* \"#utility.yul\":6922:6937   */\n      mstore\n        /* \"#utility.yul\":6956:6960   */\n      0x24\n        /* \"#utility.yul\":6953:6954   */\n      0x00\n        /* \"#utility.yul\":6946:6961   */\n      revert\n        /* \"#utility.yul\":6973:7153   */\n    tag_42:\n        /* \"#utility.yul\":7021:7098   */\n      0x4e487b7100000000000000000000000000000000000000000000000000000000\n        /* \"#utility.yul\":7018:7019   */\n      0x00\n        /* \"#utility.yul\":7011:7099   */\n      mstore\n        /* \"#utility.yul\":7118:7122   */\n      0x32\n        /* \"#utility.yul\":7115:7116   */\n      0x04\n        /* \"#utility.yul\":7108:7123   */\n      mstore\n        /* \"#utility.yul\":7142:7146   */\n      0x24\n        /* \"#utility.yul\":7139:7140   */\n      0x00\n        /* \"#utility.yul\":7132:7147   */\n      revert\n        /* \"#utility.yul\":7159:7392   */\n    tag_47:\n        /* \"#utility.yul\":7198:7201   */\n      0x00\n        /* \"#utility.yul\":7221:7245   */\n      tag_168\n        /* \"#utility.yul\":7239:7244   */\n      dup3\n        /* \"#utility.yul\":7221:7245   */\n      tag_92\n      jump\t// in\n    tag_168:\n        /* \"#utility.yul\":7212:7245   */\n      swap2\n      pop\n        /* \"#utility.yul\":7267:7333   */\n      0xffffffffffffffffffffffffffffffffffffffffffffffffffffffffffffffff\n        /* \"#utility.yul\":7260:7265   */\n      dup3\n        /* \"#utility.yul\":7257:7334   */\n      sub\n        /* \"#utility.yul\":7254:7357   */\n      tag_169\n      jumpi\n        /* \"#utility.yul\":7337:7355   */\n      tag_170\n      tag_96\n      jump\t// in\n    tag_170:\n        /* \"#utility.yul\":7254:7357   */\n    tag_169:\n        /* \"#utility.yul\":7384:7385   */\n      0x01\n        /* \"#utility.yul\":7377:7382   */\n      dup3\n        /* \"#utility.yul\":7373:7386   */\n      add\n        /* \"#utility.yul\":7366:7386   */\n      swap1\n      pop\n        /* \"#utility.yul\":7159:7392   */\n      swap2\n      swap1\n      pop\n      jump\t// out\n        /* \"#utility.yul\":7398:7620   */\n    tag_72:\n        /* \"#utility.yul\":7491:7495   */\n      0x00\n        /* \"#utility.yul\":7529:7531   */\n      0x20\n        /* \"#utility.yul\":7518:7527   */\n      dup3\n        /* \"#utility.yul\":7514:7532   */\n      add\n        /* \"#utility.yul\":7506:7532   */\n      swap1\n      pop\n        /* \"#utility.yul\":7542:7613   */\n      tag_172\n        /* \"#utility.yul\":7610:7611   */\n      0x00\n        /* \"#utility.yul\":7599:7608   */\n      dup4\n        /* \"#utility.yul\":7595:7612   */\n      add\n        /* \"#utility.yul\":7586:7592   */\n      dup5\n        /* \"#utility.yul\":7542:7613   */\n      tag_95\n      jump\t// in\n    tag_172:\n        /* \"#utility.yul\":7398:7620   */\n      swap3\n      swap2\n      pop\n      pop\n      jump\t// out\n\n    auxdata: 0xa26469706673582212201df14b25689368b7ce053ec655bcb53f5ccc60ee595ec13dd4e6c431f9f2e00764736f6c63430008160033\n}\n",
				"bytecode": {
					"linkReferences": {},
					"object": "608060405234801561000f575f80fd5b5061102d8061001d5f395ff3fe608060405234801561000f575f80fd5b506004361061004a575f3560e01c806350ac13191461004e578063bd46b5831461007e578063ed81b67d146100b0578063f3201424146100e2575b5f80fd5b61006860048036038101906100639190610c96565b6100fe565b6040516100759190610db8565b60405180910390f35b61009860048036038101906100939190610e0b565b6105bf565b6040516100a793929190610e58565b60405180910390f35b6100ca60048036038101906100c59190610e0b565b61065b565b6040516100d993929190610e58565b60405180910390f35b6100fc60048036038101906100f79190610e8d565b6106f8565b005b60605f60015f8473ffffffffffffffffffffffffffffffffffffffff1673ffffffffffffffffffffffffffffffffffffffff1681526020019081526020015f20805490505f808573ffffffffffffffffffffffffffffffffffffffff1673ffffffffffffffffffffffffffffffffffffffff1681526020019081526020015f208054905061018c9190610f0a565b90505f8167ffffffffffffffff8111156101a9576101a8610f3d565b5b6040519080825280602002602001820160405280156101e257816020015b6101cf610bd8565b8152602001906001900390816101c75790505b5090505f805b5f808773ffffffffffffffffffffffffffffffffffffffff1673ffffffffffffffffffffffffffffffffffffffff1681526020019081526020015f20805490508110156103cb575f808773ffffffffffffffffffffffffffffffffffffffff1673ffffffffffffffffffffffffffffffffffffffff1681526020019081526020015f20818154811061027d5761027c610f6a565b5b905f5260205f2090600302016040518060600160405290815f82015f9054906101000a900473ffffffffffffffffffffffffffffffffffffffff1673ffffffffffffffffffffffffffffffffffffffff1673ffffffffffffffffffffffffffffffffffffffff168152602001600182015f9054906101000a900473ffffffffffffffffffffffffffffffffffffffff1673ffffffffffffffffffffffffffffffffffffffff1673ffffffffffffffffffffffffffffffffffffffff168152602001600282015f9054906101000a900473ffffffffffffffffffffffffffffffffffffffff1673ffffffffffffffffffffffffffffffffffffffff1673ffffffffffffffffffffffffffffffffffffffff16815250508383815181106103a5576103a4610f6a565b5b602002602001018190525081806103bb90610f97565b92505080806001019150506101e8565b505f5b60015f8773ffffffffffffffffffffffffffffffffffffffff1673ffffffffffffffffffffffffffffffffffffffff1681526020019081526020015f20805490508110156105b35760015f8773ffffffffffffffffffffffffffffffffffffffff1673ffffffffffffffffffffffffffffffffffffffff1681526020019081526020015f20818154811061046557610464610f6a565b5b905f5260205f2090600302016040518060600160405290815f82015f9054906101000a900473ffffffffffffffffffffffffffffffffffffffff1673ffffffffffffffffffffffffffffffffffffffff1673ffffffffffffffffffffffffffffffffffffffff168152602001600182015f9054906101000a900473ffffffffffffffffffffffffffffffffffffffff1673ffffffffffffffffffffffffffffffffffffffff1673ffffffffffffffffffffffffffffffffffffffff168152602001600282015f9054906101000a900473ffffffffffffffffffffffffffffffffffffffff1673ffffffffffffffffffffffffffffffffffffffff1673ffffffffffffffffffffffffffffffffffffffff168152505083838151811061058d5761058c610f6a565b5b602002602001018190525081806105a390610f97565b92505080806001019150506103ce565b50819350505050919050565b5f602052815f5260405f2081815481106105d7575f80fd5b905f5260205f2090600302015f9150915050805f015f9054906101000a900473ffffffffffffffffffffffffffffffffffffffff1690806001015f9054906101000a900473ffffffffffffffffffffffffffffffffffffffff1690806002015f9054906101000a900473ffffffffffffffffffffffffffffffffffffffff16905083565b6001602052815f5260405f208181548110610674575f80fd5b905f5260205f2090600302015f9150915050805f015f9054906101000a900473ffffffffffffffffffffffffffffffffffffffff1690806001015f9054906101000a900473ffffffffffffffffffffffffffffffffffffffff1690806002015f9054906101000a900473ffffffffffffffffffffffffffffffffffffffff16905083565b8273ffffffffffffffffffffffffffffffffffffffff163373ffffffffffffffffffffffffffffffffffffffff16148061075d57508173ffffffffffffffffffffffffffffffffffffffff163373ffffffffffffffffffffffffffffffffffffffff16145b610765575f80fd5b5f600190505f5b5f803373ffffffffffffffffffffffffffffffffffffffff1673ffffffffffffffffffffffffffffffffffffffff1681526020019081526020015f20805490508110156108af578373ffffffffffffffffffffffffffffffffffffffff165f803373ffffffffffffffffffffffffffffffffffffffff1673ffffffffffffffffffffffffffffffffffffffff1681526020019081526020015f20828154811061081857610817610f6a565b5b905f5260205f2090600302016001015f9054906101000a900473ffffffffffffffffffffffffffffffffffffffff1673ffffffffffffffffffffffffffffffffffffffff16036108a2575f9150826040517f75e39c8c0000000000000000000000000000000000000000000000000000000081526004016108999190610fde565b60405180910390fd5b808060010191505061076c565b508015610bd2576108be610bd8565b33815f019073ffffffffffffffffffffffffffffffffffffffff16908173ffffffffffffffffffffffffffffffffffffffff168152505083816020019073ffffffffffffffffffffffffffffffffffffffff16908173ffffffffffffffffffffffffffffffffffffffff168152505082816040019073ffffffffffffffffffffffffffffffffffffffff16908173ffffffffffffffffffffffffffffffffffffffff16815250505f808673ffffffffffffffffffffffffffffffffffffffff1673ffffffffffffffffffffffffffffffffffffffff1681526020019081526020015f2081908060018154018082558091505060019003905f5260205f2090600302015f909190919091505f820151815f015f6101000a81548173ffffffffffffffffffffffffffffffffffffffff021916908373ffffffffffffffffffffffffffffffffffffffff1602179055506020820151816001015f6101000a81548173ffffffffffffffffffffffffffffffffffffffff021916908373ffffffffffffffffffffffffffffffffffffffff1602179055506040820151816002015f6101000a81548173ffffffffffffffffffffffffffffffffffffffff021916908373ffffffffffffffffffffffffffffffffffffffff160217905550505060015f8573ffffffffffffffffffffffffffffffffffffffff1673ffffffffffffffffffffffffffffffffffffffff1681526020019081526020015f2081908060018154018082558091505060019003905f5260205f2090600302015f909190919091505f820151815f015f6101000a81548173ffffffffffffffffffffffffffffffffffffffff021916908373ffffffffffffffffffffffffffffffffffffffff1602179055506020820151816001015f6101000a81548173ffffffffffffffffffffffffffffffffffffffff021916908373ffffffffffffffffffffffffffffffffffffffff1602179055506040820151816002015f6101000a81548173ffffffffffffffffffffffffffffffffffffffff021916908373ffffffffffffffffffffffffffffffffffffffff1602179055505050505b50505050565b60405180606001604052805f73ffffffffffffffffffffffffffffffffffffffff1681526020015f73ffffffffffffffffffffffffffffffffffffffff1681526020015f73ffffffffffffffffffffffffffffffffffffffff1681525090565b5f80fd5b5f73ffffffffffffffffffffffffffffffffffffffff82169050919050565b5f610c6582610c3c565b9050919050565b610c7581610c5b565b8114610c7f575f80fd5b50565b5f81359050610c9081610c6c565b92915050565b5f60208284031215610cab57610caa610c38565b5b5f610cb884828501610c82565b91505092915050565b5f81519050919050565b5f82825260208201905092915050565b5f819050602082019050919050565b610cf381610c5b565b82525050565b606082015f820151610d0d5f850182610cea565b506020820151610d206020850182610cea565b506040820151610d336040850182610cea565b50505050565b5f610d448383610cf9565b60608301905092915050565b5f602082019050919050565b5f610d6682610cc1565b610d708185610ccb565b9350610d7b83610cdb565b805f5b83811015610dab578151610d928882610d39565b9750610d9d83610d50565b925050600181019050610d7e565b5085935050505092915050565b5f6020820190508181035f830152610dd08184610d5c565b905092915050565b5f819050919050565b610dea81610dd8565b8114610df4575f80fd5b50565b5f81359050610e0581610de1565b92915050565b5f8060408385031215610e2157610e20610c38565b5b5f610e2e85828601610c82565b9250506020610e3f85828601610df7565b9150509250929050565b610e5281610c5b565b82525050565b5f606082019050610e6b5f830186610e49565b610e786020830185610e49565b610e856040830184610e49565b949350505050565b5f805f60608486031215610ea457610ea3610c38565b5b5f610eb186828701610c82565b9350506020610ec286828701610c82565b9250506040610ed386828701610c82565b9150509250925092565b7f4e487b71000000000000000000000000000000000000000000000000000000005f52601160045260245ffd5b5f610f1482610dd8565b9150610f1f83610dd8565b9250828201905080821115610f3757610f36610edd565b5b92915050565b7f4e487b71000000000000000000000000000000000000000000000000000000005f52604160045260245ffd5b7f4e487b71000000000000000000000000000000000000000000000000000000005f52603260045260245ffd5b5f610fa182610dd8565b91507fffffffffffffffffffffffffffffffffffffffffffffffffffffffffffffffff8203610fd357610fd2610edd565b5b600182019050919050565b5f602082019050610ff15f830184610e49565b9291505056fea26469706673582212201df14b25689368b7ce053ec655bcb53f5ccc60ee595ec13dd4e6c431f9f2e00764736f6c63430008160033",
					"opcodes": "PUSH1 0x80 PUSH1 0x40 MSTORE CALLVALUE DUP1 ISZERO PUSH2 0xF JUMPI PUSH0 DUP1 REVERT JUMPDEST POP PUSH2 0x102D DUP1 PUSH2 0x1D PUSH0 CODECOPY PUSH0 RETURN INVALID PUSH1 0x80 PUSH1 0x40 MSTORE CALLVALUE DUP1 ISZERO PUSH2 0xF JUMPI PUSH0 DUP1 REVERT JUMPDEST POP PUSH1 0x4 CALLDATASIZE LT PUSH2 0x4A JUMPI PUSH0 CALLDATALOAD PUSH1 0xE0 SHR DUP1 PUSH4 0x50AC1319 EQ PUSH2 0x4E JUMPI DUP1 PUSH4 0xBD46B583 EQ PUSH2 0x7E JUMPI DUP1 PUSH4 0xED81B67D EQ PUSH2 0xB0 JUMPI DUP1 PUSH4 0xF3201424 EQ PUSH2 0xE2 JUMPI JUMPDEST PUSH0 DUP1 REVERT JUMPDEST PUSH2 0x68 PUSH1 0x4 DUP1 CALLDATASIZE SUB DUP2 ADD SWAP1 PUSH2 0x63 SWAP2 SWAP1 PUSH2 0xC96 JUMP JUMPDEST PUSH2 0xFE JUMP JUMPDEST PUSH1 0x40 MLOAD PUSH2 0x75 SWAP2 SWAP1 PUSH2 0xDB8 JUMP JUMPDEST PUSH1 0x40 MLOAD DUP1 SWAP2 SUB SWAP1 RETURN JUMPDEST PUSH2 0x98 PUSH1 0x4 DUP1 CALLDATASIZE SUB DUP2 ADD SWAP1 PUSH2 0x93 SWAP2 SWAP1 PUSH2 0xE0B JUMP JUMPDEST PUSH2 0x5BF JUMP JUMPDEST PUSH1 0x40 MLOAD PUSH2 0xA7 SWAP4 SWAP3 SWAP2 SWAP1 PUSH2 0xE58 JUMP JUMPDEST PUSH1 0x40 MLOAD DUP1 SWAP2 SUB SWAP1 RETURN JUMPDEST PUSH2 0xCA PUSH1 0x4 DUP1 CALLDATASIZE SUB DUP2 ADD SWAP1 PUSH2 0xC5 SWAP2 SWAP1 PUSH2 0xE0B JUMP JUMPDEST PUSH2 0x65B JUMP JUMPDEST PUSH1 0x40 MLOAD PUSH2 0xD9 SWAP4 SWAP3 SWAP2 SWAP1 PUSH2 0xE58 JUMP JUMPDEST PUSH1 0x40 MLOAD DUP1 SWAP2 SUB SWAP1 RETURN JUMPDEST PUSH2 0xFC PUSH1 0x4 DUP1 CALLDATASIZE SUB DUP2 ADD SWAP1 PUSH2 0xF7 SWAP2 SWAP1 PUSH2 0xE8D JUMP JUMPDEST PUSH2 0x6F8 JUMP JUMPDEST STOP JUMPDEST PUSH1 0x60 PUSH0 PUSH1 0x1 PUSH0 DUP5 PUSH20 0xFFFFFFFFFFFFFFFFFFFFFFFFFFFFFFFFFFFFFFFF AND PUSH20 0xFFFFFFFFFFFFFFFFFFFFFFFFFFFFFFFFFFFFFFFF AND DUP2 MSTORE PUSH1 0x20 ADD SWAP1 DUP2 MSTORE PUSH1 0x20 ADD PUSH0 KECCAK256 DUP1 SLOAD SWAP1 POP PUSH0 DUP1 DUP6 PUSH20 0xFFFFFFFFFFFFFFFFFFFFFFFFFFFFFFFFFFFFFFFF AND PUSH20 0xFFFFFFFFFFFFFFFFFFFFFFFFFFFFFFFFFFFFFFFF AND DUP2 MSTORE PUSH1 0x20 ADD SWAP1 DUP2 MSTORE PUSH1 0x20 ADD PUSH0 KECCAK256 DUP1 SLOAD SWAP1 POP PUSH2 0x18C SWAP2 SWAP1 PUSH2 0xF0A JUMP JUMPDEST SWAP1 POP PUSH0 DUP2 PUSH8 0xFFFFFFFFFFFFFFFF DUP2 GT ISZERO PUSH2 0x1A9 JUMPI PUSH2 0x1A8 PUSH2 0xF3D JUMP JUMPDEST JUMPDEST PUSH1 0x40 MLOAD SWAP1 DUP1 DUP3 MSTORE DUP1 PUSH1 0x20 MUL PUSH1 0x20 ADD DUP3 ADD PUSH1 0x40 MSTORE DUP1 ISZERO PUSH2 0x1E2 JUMPI DUP2 PUSH1 0x20 ADD JUMPDEST PUSH2 0x1CF PUSH2 0xBD8 JUMP JUMPDEST DUP2 MSTORE PUSH1 0x20 ADD SWAP1 PUSH1 0x1 SWAP1 SUB SWAP1 DUP2 PUSH2 0x1C7 JUMPI SWAP1 POP JUMPDEST POP SWAP1 POP PUSH0 DUP1 JUMPDEST PUSH0 DUP1 DUP8 PUSH20 0xFFFFFFFFFFFFFFFFFFFFFFFFFFFFFFFFFFFFFFFF AND PUSH20 0xFFFFFFFFFFFFFFFFFFFFFFFFFFFFFFFFFFFFFFFF AND DUP2 MSTORE PUSH1 0x20 ADD SWAP1 DUP2 MSTORE PUSH1 0x20 ADD PUSH0 KECCAK256 DUP1 SLOAD SWAP1 POP DUP2 LT ISZERO PUSH2 0x3CB JUMPI PUSH0 DUP1 DUP8 PUSH20 0xFFFFFFFFFFFFFFFFFFFFFFFFFFFFFFFFFFFFFFFF AND PUSH20 0xFFFFFFFFFFFFFFFFFFFFFFFFFFFFFFFFFFFFFFFF AND DUP2 MSTORE PUSH1 0x20 ADD SWAP1 DUP2 MSTORE PUSH1 0x20 ADD PUSH0 KECCAK256 DUP2 DUP2 SLOAD DUP2 LT PUSH2 0x27D JUMPI PUSH2 0x27C PUSH2 0xF6A JUMP JUMPDEST JUMPDEST SWAP1 PUSH0 MSTORE PUSH1 0x20 PUSH0 KECCAK256 SWAP1 PUSH1 0x3 MUL ADD PUSH1 0x40 MLOAD DUP1 PUSH1 0x60 ADD PUSH1 0x40 MSTORE SWAP1 DUP2 PUSH0 DUP3 ADD PUSH0 SWAP1 SLOAD SWAP1 PUSH2 0x100 EXP SWAP1 DIV PUSH20 0xFFFFFFFFFFFFFFFFFFFFFFFFFFFFFFFFFFFFFFFF AND PUSH20 0xFFFFFFFFFFFFFFFFFFFFFFFFFFFFFFFFFFFFFFFF AND PUSH20 0xFFFFFFFFFFFFFFFFFFFFFFFFFFFFFFFFFFFFFFFF AND DUP2 MSTORE PUSH1 0x20 ADD PUSH1 0x1 DUP3 ADD PUSH0 SWAP1 SLOAD SWAP1 PUSH2 0x100 EXP SWAP1 DIV PUSH20 0xFFFFFFFFFFFFFFFFFFFFFFFFFFFFFFFFFFFFFFFF AND PUSH20 0xFFFFFFFFFFFFFFFFFFFFFFFFFFFFFFFFFFFFFFFF AND PUSH20 0xFFFFFFFFFFFFFFFFFFFFFFFFFFFFFFFFFFFFFFFF AND DUP2 MSTORE PUSH1 0x20 ADD PUSH1 0x2 DUP3 ADD PUSH0 SWAP1 SLOAD SWAP1 PUSH2 0x100 EXP SWAP1 DIV PUSH20 0xFFFFFFFFFFFFFFFFFFFFFFFFFFFFFFFFFFFFFFFF AND PUSH20 0xFFFFFFFFFFFFFFFFFFFFFFFFFFFFFFFFFFFFFFFF AND PUSH20 0xFFFFFFFFFFFFFFFFFFFFFFFFFFFFFFFFFFFFFFFF AND DUP2 MSTORE POP POP DUP4 DUP4 DUP2 MLOAD DUP2 LT PUSH2 0x3A5 JUMPI PUSH2 0x3A4 PUSH2 0xF6A JUMP JUMPDEST JUMPDEST PUSH1 0x20 MUL PUSH1 0x20 ADD ADD DUP2 SWAP1 MSTORE POP DUP2 DUP1 PUSH2 0x3BB SWAP1 PUSH2 0xF97 JUMP JUMPDEST SWAP3 POP POP DUP1 DUP1 PUSH1 0x1 ADD SWAP2 POP POP PUSH2 0x1E8 JUMP JUMPDEST POP PUSH0 JUMPDEST PUSH1 0x1 PUSH0 DUP8 PUSH20 0xFFFFFFFFFFFFFFFFFFFFFFFFFFFFFFFFFFFFFFFF AND PUSH20 0xFFFFFFFFFFFFFFFFFFFFFFFFFFFFFFFFFFFFFFFF AND DUP2 MSTORE PUSH1 0x20 ADD SWAP1 DUP2 MSTORE PUSH1 0x20 ADD PUSH0 KECCAK256 DUP1 SLOAD SWAP1 POP DUP2 LT ISZERO PUSH2 0x5B3 JUMPI PUSH1 0x1 PUSH0 DUP8 PUSH20 0xFFFFFFFFFFFFFFFFFFFFFFFFFFFFFFFFFFFFFFFF AND PUSH20 0xFFFFFFFFFFFFFFFFFFFFFFFFFFFFFFFFFFFFFFFF AND DUP2 MSTORE PUSH1 0x20 ADD SWAP1 DUP2 MSTORE PUSH1 0x20 ADD PUSH0 KECCAK256 DUP2 DUP2 SLOAD DUP2 LT PUSH2 0x465 JUMPI PUSH2 0x464 PUSH2 0xF6A JUMP JUMPDEST JUMPDEST SWAP1 PUSH0 MSTORE PUSH1 0x20 PUSH0 KECCAK256 SWAP1 PUSH1 0x3 MUL ADD PUSH1 0x40 MLOAD DUP1 PUSH1 0x60 ADD PUSH1 0x40 MSTORE SWAP1 DUP2 PUSH0 DUP3 ADD PUSH0 SWAP1 SLOAD SWAP1 PUSH2 0x100 EXP SWAP1 DIV PUSH20 0xFFFFFFFFFFFFFFFFFFFFFFFFFFFFFFFFFFFFFFFF AND PUSH20 0xFFFFFFFFFFFFFFFFFFFFFFFFFFFFFFFFFFFFFFFF AND PUSH20 0xFFFFFFFFFFFFFFFFFFFFFFFFFFFFFFFFFFFFFFFF AND DUP2 MSTORE PUSH1 0x20 ADD PUSH1 0x1 DUP3 ADD PUSH0 SWAP1 SLOAD SWAP1 PUSH2 0x100 EXP SWAP1 DIV PUSH20 0xFFFFFFFFFFFFFFFFFFFFFFFFFFFFFFFFFFFFFFFF AND PUSH20 0xFFFFFFFFFFFFFFFFFFFFFFFFFFFFFFFFFFFFFFFF AND PUSH20 0xFFFFFFFFFFFFFFFFFFFFFFFFFFFFFFFFFFFFFFFF AND DUP2 MSTORE PUSH1 0x20 ADD PUSH1 0x2 DUP3 ADD PUSH0 SWAP1 SLOAD SWAP1 PUSH2 0x100 EXP SWAP1 DIV PUSH20 0xFFFFFFFFFFFFFFFFFFFFFFFFFFFFFFFFFFFFFFFF AND PUSH20 0xFFFFFFFFFFFFFFFFFFFFFFFFFFFFFFFFFFFFFFFF AND PUSH20 0xFFFFFFFFFFFFFFFFFFFFFFFFFFFFFFFFFFFFFFFF AND DUP2 MSTORE POP POP DUP4 DUP4 DUP2 MLOAD DUP2 LT PUSH2 0x58D JUMPI PUSH2 0x58C PUSH2 0xF6A JUMP JUMPDEST JUMPDEST PUSH1 0x20 MUL PUSH1 0x20 ADD ADD DUP2 SWAP1 MSTORE POP DUP2 DUP1 PUSH2 0x5A3 SWAP1 PUSH2 0xF97 JUMP JUMPDEST SWAP3 POP POP DUP1 DUP1 PUSH1 0x1 ADD SWAP2 POP POP PUSH2 0x3CE JUMP JUMPDEST POP DUP2 SWAP4 POP POP POP POP SWAP2 SWAP1 POP JUMP JUMPDEST PUSH0 PUSH1 0x20 MSTORE DUP2 PUSH0 MSTORE PUSH1 0x40 PUSH0 KECCAK256 DUP2 DUP2 SLOAD DUP2 LT PUSH2 0x5D7 JUMPI PUSH0 DUP1 REVERT JUMPDEST SWAP1 PUSH0 MSTORE PUSH1 0x20 PUSH0 KECCAK256 SWAP1 PUSH1 0x3 MUL ADD PUSH0 SWAP2 POP SWAP2 POP POP DUP1 PUSH0 ADD PUSH0 SWAP1 SLOAD SWAP1 PUSH2 0x100 EXP SWAP1 DIV PUSH20 0xFFFFFFFFFFFFFFFFFFFFFFFFFFFFFFFFFFFFFFFF AND SWAP1 DUP1 PUSH1 0x1 ADD PUSH0 SWAP1 SLOAD SWAP1 PUSH2 0x100 EXP SWAP1 DIV PUSH20 0xFFFFFFFFFFFFFFFFFFFFFFFFFFFFFFFFFFFFFFFF AND SWAP1 DUP1 PUSH1 0x2 ADD PUSH0 SWAP1 SLOAD SWAP1 PUSH2 0x100 EXP SWAP1 DIV PUSH20 0xFFFFFFFFFFFFFFFFFFFFFFFFFFFFFFFFFFFFFFFF AND SWAP1 POP DUP4 JUMP JUMPDEST PUSH1 0x1 PUSH1 0x20 MSTORE DUP2 PUSH0 MSTORE PUSH1 0x40 PUSH0 KECCAK256 DUP2 DUP2 SLOAD DUP2 LT PUSH2 0x674 JUMPI PUSH0 DUP1 REVERT JUMPDEST SWAP1 PUSH0 MSTORE PUSH1 0x20 PUSH0 KECCAK256 SWAP1 PUSH1 0x3 MUL ADD PUSH0 SWAP2 POP SWAP2 POP POP DUP1 PUSH0 ADD PUSH0 SWAP1 SLOAD SWAP1 PUSH2 0x100 EXP SWAP1 DIV PUSH20 0xFFFFFFFFFFFFFFFFFFFFFFFFFFFFFFFFFFFFFFFF AND SWAP1 DUP1 PUSH1 0x1 ADD PUSH0 SWAP1 SLOAD SWAP1 PUSH2 0x100 EXP SWAP1 DIV PUSH20 0xFFFFFFFFFFFFFFFFFFFFFFFFFFFFFFFFFFFFFFFF AND SWAP1 DUP1 PUSH1 0x2 ADD PUSH0 SWAP1 SLOAD SWAP1 PUSH2 0x100 EXP SWAP1 DIV PUSH20 0xFFFFFFFFFFFFFFFFFFFFFFFFFFFFFFFFFFFFFFFF AND SWAP1 POP DUP4 JUMP JUMPDEST DUP3 PUSH20 0xFFFFFFFFFFFFFFFFFFFFFFFFFFFFFFFFFFFFFFFF AND CALLER PUSH20 0xFFFFFFFFFFFFFFFFFFFFFFFFFFFFFFFFFFFFFFFF AND EQ DUP1 PUSH2 0x75D JUMPI POP DUP2 PUSH20 0xFFFFFFFFFFFFFFFFFFFFFFFFFFFFFFFFFFFFFFFF AND CALLER PUSH20 0xFFFFFFFFFFFFFFFFFFFFFFFFFFFFFFFFFFFFFFFF AND EQ JUMPDEST PUSH2 0x765 JUMPI PUSH0 DUP1 REVERT JUMPDEST PUSH0 PUSH1 0x1 SWAP1 POP PUSH0 JUMPDEST PUSH0 DUP1 CALLER PUSH20 0xFFFFFFFFFFFFFFFFFFFFFFFFFFFFFFFFFFFFFFFF AND PUSH20 0xFFFFFFFFFFFFFFFFFFFFFFFFFFFFFFFFFFFFFFFF AND DUP2 MSTORE PUSH1 0x20 ADD SWAP1 DUP2 MSTORE PUSH1 0x20 ADD PUSH0 KECCAK256 DUP1 SLOAD SWAP1 POP DUP2 LT ISZERO PUSH2 0x8AF JUMPI DUP4 PUSH20 0xFFFFFFFFFFFFFFFFFFFFFFFFFFFFFFFFFFFFFFFF AND PUSH0 DUP1 CALLER PUSH20 0xFFFFFFFFFFFFFFFFFFFFFFFFFFFFFFFFFFFFFFFF AND PUSH20 0xFFFFFFFFFFFFFFFFFFFFFFFFFFFFFFFFFFFFFFFF AND DUP2 MSTORE PUSH1 0x20 ADD SWAP1 DUP2 MSTORE PUSH1 0x20 ADD PUSH0 KECCAK256 DUP3 DUP2 SLOAD DUP2 LT PUSH2 0x818 JUMPI PUSH2 0x817 PUSH2 0xF6A JUMP JUMPDEST JUMPDEST SWAP1 PUSH0 MSTORE PUSH1 0x20 PUSH0 KECCAK256 SWAP1 PUSH1 0x3 MUL ADD PUSH1 0x1 ADD PUSH0 SWAP1 SLOAD SWAP1 PUSH2 0x100 EXP SWAP1 DIV PUSH20 0xFFFFFFFFFFFFFFFFFFFFFFFFFFFFFFFFFFFFFFFF AND PUSH20 0xFFFFFFFFFFFFFFFFFFFFFFFFFFFFFFFFFFFFFFFF AND SUB PUSH2 0x8A2 JUMPI PUSH0 SWAP2 POP DUP3 PUSH1 0x40 MLOAD PUSH32 0x75E39C8C00000000000000000000000000000000000000000000000000000000 DUP2 MSTORE PUSH1 0x4 ADD PUSH2 0x899 SWAP2 SWAP1 PUSH2 0xFDE JUMP JUMPDEST PUSH1 0x40 MLOAD DUP1 SWAP2 SUB SWAP1 REVERT JUMPDEST DUP1 DUP1 PUSH1 0x1 ADD SWAP2 POP POP PUSH2 0x76C JUMP JUMPDEST POP DUP1 ISZERO PUSH2 0xBD2 JUMPI PUSH2 0x8BE PUSH2 0xBD8 JUMP JUMPDEST CALLER DUP2 PUSH0 ADD SWAP1 PUSH20 0xFFFFFFFFFFFFFFFFFFFFFFFFFFFFFFFFFFFFFFFF AND SWAP1 DUP2 PUSH20 0xFFFFFFFFFFFFFFFFFFFFFFFFFFFFFFFFFFFFFFFF AND DUP2 MSTORE POP POP DUP4 DUP2 PUSH1 0x20 ADD SWAP1 PUSH20 0xFFFFFFFFFFFFFFFFFFFFFFFFFFFFFFFFFFFFFFFF AND SWAP1 DUP2 PUSH20 0xFFFFFFFFFFFFFFFFFFFFFFFFFFFFFFFFFFFFFFFF AND DUP2 MSTORE POP POP DUP3 DUP2 PUSH1 0x40 ADD SWAP1 PUSH20 0xFFFFFFFFFFFFFFFFFFFFFFFFFFFFFFFFFFFFFFFF AND SWAP1 DUP2 PUSH20 0xFFFFFFFFFFFFFFFFFFFFFFFFFFFFFFFFFFFFFFFF AND DUP2 MSTORE POP POP PUSH0 DUP1 DUP7 PUSH20 0xFFFFFFFFFFFFFFFFFFFFFFFFFFFFFFFFFFFFFFFF AND PUSH20 0xFFFFFFFFFFFFFFFFFFFFFFFFFFFFFFFFFFFFFFFF AND DUP2 MSTORE PUSH1 0x20 ADD SWAP1 DUP2 MSTORE PUSH1 0x20 ADD PUSH0 KECCAK256 DUP2 SWAP1 DUP1 PUSH1 0x1 DUP2 SLOAD ADD DUP1 DUP3 SSTORE DUP1 SWAP2 POP POP PUSH1 0x1 SWAP1 SUB SWAP1 PUSH0 MSTORE PUSH1 0x20 PUSH0 KECCAK256 SWAP1 PUSH1 0x3 MUL ADD PUSH0 SWAP1 SWAP2 SWAP1 SWAP2 SWAP1 SWAP2 POP PUSH0 DUP3 ADD MLOAD DUP2 PUSH0 ADD PUSH0 PUSH2 0x100 EXP DUP2 SLOAD DUP2 PUSH20 0xFFFFFFFFFFFFFFFFFFFFFFFFFFFFFFFFFFFFFFFF MUL NOT AND SWAP1 DUP4 PUSH20 0xFFFFFFFFFFFFFFFFFFFFFFFFFFFFFFFFFFFFFFFF AND MUL OR SWAP1 SSTORE POP PUSH1 0x20 DUP3 ADD MLOAD DUP2 PUSH1 0x1 ADD PUSH0 PUSH2 0x100 EXP DUP2 SLOAD DUP2 PUSH20 0xFFFFFFFFFFFFFFFFFFFFFFFFFFFFFFFFFFFFFFFF MUL NOT AND SWAP1 DUP4 PUSH20 0xFFFFFFFFFFFFFFFFFFFFFFFFFFFFFFFFFFFFFFFF AND MUL OR SWAP1 SSTORE POP PUSH1 0x40 DUP3 ADD MLOAD DUP2 PUSH1 0x2 ADD PUSH0 PUSH2 0x100 EXP DUP2 SLOAD DUP2 PUSH20 0xFFFFFFFFFFFFFFFFFFFFFFFFFFFFFFFFFFFFFFFF MUL NOT AND SWAP1 DUP4 PUSH20 0xFFFFFFFFFFFFFFFFFFFFFFFFFFFFFFFFFFFFFFFF AND MUL OR SWAP1 SSTORE POP POP POP PUSH1 0x1 PUSH0 DUP6 PUSH20 0xFFFFFFFFFFFFFFFFFFFFFFFFFFFFFFFFFFFFFFFF AND PUSH20 0xFFFFFFFFFFFFFFFFFFFFFFFFFFFFFFFFFFFFFFFF AND DUP2 MSTORE PUSH1 0x20 ADD SWAP1 DUP2 MSTORE PUSH1 0x20 ADD PUSH0 KECCAK256 DUP2 SWAP1 DUP1 PUSH1 0x1 DUP2 SLOAD ADD DUP1 DUP3 SSTORE DUP1 SWAP2 POP POP PUSH1 0x1 SWAP1 SUB SWAP1 PUSH0 MSTORE PUSH1 0x20 PUSH0 KECCAK256 SWAP1 PUSH1 0x3 MUL ADD PUSH0 SWAP1 SWAP2 SWAP1 SWAP2 SWAP1 SWAP2 POP PUSH0 DUP3 ADD MLOAD DUP2 PUSH0 ADD PUSH0 PUSH2 0x100 EXP DUP2 SLOAD DUP2 PUSH20 0xFFFFFFFFFFFFFFFFFFFFFFFFFFFFFFFFFFFFFFFF MUL NOT AND SWAP1 DUP4 PUSH20 0xFFFFFFFFFFFFFFFFFFFFFFFFFFFFFFFFFFFFFFFF AND MUL OR SWAP1 SSTORE POP PUSH1 0x20 DUP3 ADD MLOAD DUP2 PUSH1 0x1 ADD PUSH0 PUSH2 0x100 EXP DUP2 SLOAD DUP2 PUSH20 0xFFFFFFFFFFFFFFFFFFFFFFFFFFFFFFFFFFFFFFFF MUL NOT AND SWAP1 DUP4 PUSH20 0xFFFFFFFFFFFFFFFFFFFFFFFFFFFFFFFFFFFFFFFF AND MUL OR SWAP1 SSTORE POP PUSH1 0x40 DUP3 ADD MLOAD DUP2 PUSH1 0x2 ADD PUSH0 PUSH2 0x100 EXP DUP2 SLOAD DUP2 PUSH20 0xFFFFFFFFFFFFFFFFFFFFFFFFFFFFFFFFFFFFFFFF MUL NOT AND SWAP1 DUP4 PUSH20 0xFFFFFFFFFFFFFFFFFFFFFFFFFFFFFFFFFFFFFFFF AND MUL OR SWAP1 SSTORE POP POP POP POP JUMPDEST POP POP POP POP JUMP JUMPDEST PUSH1 0x40 MLOAD DUP1 PUSH1 0x60 ADD PUSH1 0x40 MSTORE DUP1 PUSH0 PUSH20 0xFFFFFFFFFFFFFFFFFFFFFFFFFFFFFFFFFFFFFFFF AND DUP2 MSTORE PUSH1 0x20 ADD PUSH0 PUSH20 0xFFFFFFFFFFFFFFFFFFFFFFFFFFFFFFFFFFFFFFFF AND DUP2 MSTORE PUSH1 0x20 ADD PUSH0 PUSH20 0xFFFFFFFFFFFFFFFFFFFFFFFFFFFFFFFFFFFFFFFF AND DUP2 MSTORE POP SWAP1 JUMP JUMPDEST PUSH0 DUP1 REVERT JUMPDEST PUSH0 PUSH20 0xFFFFFFFFFFFFFFFFFFFFFFFFFFFFFFFFFFFFFFFF DUP3 AND SWAP1 POP SWAP2 SWAP1 POP JUMP JUMPDEST PUSH0 PUSH2 0xC65 DUP3 PUSH2 0xC3C JUMP JUMPDEST SWAP1 POP SWAP2 SWAP1 POP JUMP JUMPDEST PUSH2 0xC75 DUP2 PUSH2 0xC5B JUMP JUMPDEST DUP2 EQ PUSH2 0xC7F JUMPI PUSH0 DUP1 REVERT JUMPDEST POP JUMP JUMPDEST PUSH0 DUP2 CALLDATALOAD SWAP1 POP PUSH2 0xC90 DUP2 PUSH2 0xC6C JUMP JUMPDEST SWAP3 SWAP2 POP POP JUMP JUMPDEST PUSH0 PUSH1 0x20 DUP3 DUP5 SUB SLT ISZERO PUSH2 0xCAB JUMPI PUSH2 0xCAA PUSH2 0xC38 JUMP JUMPDEST JUMPDEST PUSH0 PUSH2 0xCB8 DUP5 DUP3 DUP6 ADD PUSH2 0xC82 JUMP JUMPDEST SWAP2 POP POP SWAP3 SWAP2 POP POP JUMP JUMPDEST PUSH0 DUP2 MLOAD SWAP1 POP SWAP2 SWAP1 POP JUMP JUMPDEST PUSH0 DUP3 DUP3 MSTORE PUSH1 0x20 DUP3 ADD SWAP1 POP SWAP3 SWAP2 POP POP JUMP JUMPDEST PUSH0 DUP2 SWAP1 POP PUSH1 0x20 DUP3 ADD SWAP1 POP SWAP2 SWAP1 POP JUMP JUMPDEST PUSH2 0xCF3 DUP2 PUSH2 0xC5B JUMP JUMPDEST DUP3 MSTORE POP POP JUMP JUMPDEST PUSH1 0x60 DUP3 ADD PUSH0 DUP3 ADD MLOAD PUSH2 0xD0D PUSH0 DUP6 ADD DUP3 PUSH2 0xCEA JUMP JUMPDEST POP PUSH1 0x20 DUP3 ADD MLOAD PUSH2 0xD20 PUSH1 0x20 DUP6 ADD DUP3 PUSH2 0xCEA JUMP JUMPDEST POP PUSH1 0x40 DUP3 ADD MLOAD PUSH2 0xD33 PUSH1 0x40 DUP6 ADD DUP3 PUSH2 0xCEA JUMP JUMPDEST POP POP POP POP JUMP JUMPDEST PUSH0 PUSH2 0xD44 DUP4 DUP4 PUSH2 0xCF9 JUMP JUMPDEST PUSH1 0x60 DUP4 ADD SWAP1 POP SWAP3 SWAP2 POP POP JUMP JUMPDEST PUSH0 PUSH1 0x20 DUP3 ADD SWAP1 POP SWAP2 SWAP1 POP JUMP JUMPDEST PUSH0 PUSH2 0xD66 DUP3 PUSH2 0xCC1 JUMP JUMPDEST PUSH2 0xD70 DUP2 DUP6 PUSH2 0xCCB JUMP JUMPDEST SWAP4 POP PUSH2 0xD7B DUP4 PUSH2 0xCDB JUMP JUMPDEST DUP1 PUSH0 JUMPDEST DUP4 DUP2 LT ISZERO PUSH2 0xDAB JUMPI DUP2 MLOAD PUSH2 0xD92 DUP9 DUP3 PUSH2 0xD39 JUMP JUMPDEST SWAP8 POP PUSH2 0xD9D DUP4 PUSH2 0xD50 JUMP JUMPDEST SWAP3 POP POP PUSH1 0x1 DUP2 ADD SWAP1 POP PUSH2 0xD7E JUMP JUMPDEST POP DUP6 SWAP4 POP POP POP POP SWAP3 SWAP2 POP POP JUMP JUMPDEST PUSH0 PUSH1 0x20 DUP3 ADD SWAP1 POP DUP2 DUP2 SUB PUSH0 DUP4 ADD MSTORE PUSH2 0xDD0 DUP2 DUP5 PUSH2 0xD5C JUMP JUMPDEST SWAP1 POP SWAP3 SWAP2 POP POP JUMP JUMPDEST PUSH0 DUP2 SWAP1 POP SWAP2 SWAP1 POP JUMP JUMPDEST PUSH2 0xDEA DUP2 PUSH2 0xDD8 JUMP JUMPDEST DUP2 EQ PUSH2 0xDF4 JUMPI PUSH0 DUP1 REVERT JUMPDEST POP JUMP JUMPDEST PUSH0 DUP2 CALLDATALOAD SWAP1 POP PUSH2 0xE05 DUP2 PUSH2 0xDE1 JUMP JUMPDEST SWAP3 SWAP2 POP POP JUMP JUMPDEST PUSH0 DUP1 PUSH1 0x40 DUP4 DUP6 SUB SLT ISZERO PUSH2 0xE21 JUMPI PUSH2 0xE20 PUSH2 0xC38 JUMP JUMPDEST JUMPDEST PUSH0 PUSH2 0xE2E DUP6 DUP3 DUP7 ADD PUSH2 0xC82 JUMP JUMPDEST SWAP3 POP POP PUSH1 0x20 PUSH2 0xE3F DUP6 DUP3 DUP7 ADD PUSH2 0xDF7 JUMP JUMPDEST SWAP2 POP POP SWAP3 POP SWAP3 SWAP1 POP JUMP JUMPDEST PUSH2 0xE52 DUP2 PUSH2 0xC5B JUMP JUMPDEST DUP3 MSTORE POP POP JUMP JUMPDEST PUSH0 PUSH1 0x60 DUP3 ADD SWAP1 POP PUSH2 0xE6B PUSH0 DUP4 ADD DUP7 PUSH2 0xE49 JUMP JUMPDEST PUSH2 0xE78 PUSH1 0x20 DUP4 ADD DUP6 PUSH2 0xE49 JUMP JUMPDEST PUSH2 0xE85 PUSH1 0x40 DUP4 ADD DUP5 PUSH2 0xE49 JUMP JUMPDEST SWAP5 SWAP4 POP POP POP POP JUMP JUMPDEST PUSH0 DUP1 PUSH0 PUSH1 0x60 DUP5 DUP7 SUB SLT ISZERO PUSH2 0xEA4 JUMPI PUSH2 0xEA3 PUSH2 0xC38 JUMP JUMPDEST JUMPDEST PUSH0 PUSH2 0xEB1 DUP7 DUP3 DUP8 ADD PUSH2 0xC82 JUMP JUMPDEST SWAP4 POP POP PUSH1 0x20 PUSH2 0xEC2 DUP7 DUP3 DUP8 ADD PUSH2 0xC82 JUMP JUMPDEST SWAP3 POP POP PUSH1 0x40 PUSH2 0xED3 DUP7 DUP3 DUP8 ADD PUSH2 0xC82 JUMP JUMPDEST SWAP2 POP POP SWAP3 POP SWAP3 POP SWAP3 JUMP JUMPDEST PUSH32 0x4E487B7100000000000000000000000000000000000000000000000000000000 PUSH0 MSTORE PUSH1 0x11 PUSH1 0x4 MSTORE PUSH1 0x24 PUSH0 REVERT JUMPDEST PUSH0 PUSH2 0xF14 DUP3 PUSH2 0xDD8 JUMP JUMPDEST SWAP2 POP PUSH2 0xF1F DUP4 PUSH2 0xDD8 JUMP JUMPDEST SWAP3 POP DUP3 DUP3 ADD SWAP1 POP DUP1 DUP3 GT ISZERO PUSH2 0xF37 JUMPI PUSH2 0xF36 PUSH2 0xEDD JUMP JUMPDEST JUMPDEST SWAP3 SWAP2 POP POP JUMP JUMPDEST PUSH32 0x4E487B7100000000000000000000000000000000000000000000000000000000 PUSH0 MSTORE PUSH1 0x41 PUSH1 0x4 MSTORE PUSH1 0x24 PUSH0 REVERT JUMPDEST PUSH32 0x4E487B7100000000000000000000000000000000000000000000000000000000 PUSH0 MSTORE PUSH1 0x32 PUSH1 0x4 MSTORE PUSH1 0x24 PUSH0 REVERT JUMPDEST PUSH0 PUSH2 0xFA1 DUP3 PUSH2 0xDD8 JUMP JUMPDEST SWAP2 POP PUSH32 0xFFFFFFFFFFFFFFFFFFFFFFFFFFFFFFFFFFFFFFFFFFFFFFFFFFFFFFFFFFFFFFFF DUP3 SUB PUSH2 0xFD3 JUMPI PUSH2 0xFD2 PUSH2 0xEDD JUMP JUMPDEST JUMPDEST PUSH1 0x1 DUP3 ADD SWAP1 POP SWAP2 SWAP1 POP JUMP JUMPDEST PUSH0 PUSH1 0x20 DUP3 ADD SWAP1 POP PUSH2 0xFF1 PUSH0 DUP4 ADD DUP5 PUSH2 0xE49 JUMP JUMPDEST SWAP3 SWAP2 POP POP JUMP INVALID LOG2 PUSH5 0x6970667358 0x22 SLT KECCAK256 SAR CALL 0x4B 0x25 PUSH9 0x9368B7CE053EC655BC 0xB5 EXTCODEHASH 0x5C 0xCC PUSH1 0xEE MSIZE 0x5E 0xC1 RETURNDATASIZE 0xD4 0xE6 0xC4 BALANCE 0xF9 CALLCODE 0xE0 SMOD PUSH5 0x736F6C6343 STOP ADDMOD AND STOP CALLER "
				},
				"gasEstimates": {
					"creation": {
						"codeDepositCost": "828200",
						"executionCost": "862",
						"totalCost": "829062"
					},
					"external": {
						"FirstPlayerGames(address,uint256)": "infinite",
						"SecondPlayerGames(address,uint256)": "infinite",
						"getGameList(address)": "infinite",
						"register(address,address,address)": "infinite"
					}
				},
				"methodIdentifiers": {
					"FirstPlayerGames(address,uint256)": "bd46b583",
					"SecondPlayerGames(address,uint256)": "ed81b67d",
					"getGameList(address)": "50ac1319",
					"register(address,address,address)": "f3201424"
				}
			},
			"storageLayout": {
				"storage": [
					{
						"astId": 18,
						"contract": "TictactoeRegistry.sol:TictactoeRegistry",
						"label": "FirstPlayerGames",
						"offset": 0,
						"slot": "0",
						"type": "t_mapping(t_address,t_array(t_struct(Game)8_storage)dyn_storage)"
					},
					{
						"astId": 24,
						"contract": "TictactoeRegistry.sol:TictactoeRegistry",
						"label": "SecondPlayerGames",
						"offset": 0,
						"slot": "1",
						"type": "t_mapping(t_address,t_array(t_struct(Game)8_storage)dyn_storage)"
					}
				],
				"types": {
					"t_address": {
						"encoding": "inplace",
						"label": "address",
						"numberOfBytes": "20"
					},
					"t_array(t_struct(Game)8_storage)dyn_storage": {
						"base": "t_struct(Game)8_storage",
						"encoding": "dynamic_array",
						"label": "struct TictactoeRegistry.Game[]",
						"numberOfBytes": "32"
					},
					"t_mapping(t_address,t_array(t_struct(Game)8_storage)dyn_storage)": {
						"encoding": "mapping",
						"key": "t_address",
						"label": "mapping(address => struct TictactoeRegistry.Game[])",
						"numberOfBytes": "32",
						"value": "t_array(t_struct(Game)8_storage)dyn_storage"
					},
					"t_struct(Game)8_storage": {
						"encoding": "inplace",
						"label": "struct TictactoeRegistry.Game",
						"members": [
							{
								"astId": 3,
								"contract": "TictactoeRegistry.sol:TictactoeRegistry",
								"label": "firstPlayer",
								"offset": 0,
								"slot": "0",
								"type": "t_address"
							},
							{
								"astId": 5,
								"contract": "TictactoeRegistry.sol:TictactoeRegistry",
								"label": "secondPlayer",
								"offset": 0,
								"slot": "1",
								"type": "t_address"
							},
							{
								"astId": 7,
								"contract": "TictactoeRegistry.sol:TictactoeRegistry",
								"label": "gameContract",
								"offset": 0,
								"slot": "2",
								"type": "t_address"
							}
						],
						"numberOfBytes": "96"
					}
				}
			},
			"userdoc": {
				"kind": "user",
				"methods": {},
				"version": 1
			}
		}
	}
}