{
	"Tictactoe.sol": {
		"Tictactoe": {
			"abi": [
				{
					"inputs": [
						{
							"internalType": "address",
							"name": "_playerTwo",
							"type": "address"
						}
					],
					"stateMutability": "nonpayable",
					"type": "constructor"
				},
				{
					"inputs": [],
					"name": "Unauthorized",
					"type": "error"
				},
				{
					"inputs": [
						{
							"internalType": "uint256",
							"name": "_playerId",
							"type": "uint256"
						}
					],
					"name": "checkState",
					"outputs": [
						{
							"internalType": "uint256",
							"name": "",
							"type": "uint256"
						}
					],
					"stateMutability": "view",
					"type": "function"
				},
				{
					"inputs": [],
					"name": "getGame",
					"outputs": [
						{
							"internalType": "uint256",
							"name": "",
							"type": "uint256"
						}
					],
					"stateMutability": "view",
					"type": "function"
				},
				{
					"inputs": [],
					"name": "getPlayers",
					"outputs": [
						{
							"internalType": "address[]",
							"name": "",
							"type": "address[]"
						}
					],
					"stateMutability": "view",
					"type": "function"
				},
				{
					"inputs": [
						{
							"internalType": "uint256",
							"name": "_move",
							"type": "uint256"
						}
					],
					"name": "move",
					"outputs": [
						{
							"internalType": "uint256",
							"name": "",
							"type": "uint256"
						}
					],
					"stateMutability": "nonpayable",
					"type": "function"
				},
				{
					"inputs": [],
					"name": "newGame",
					"outputs": [],
					"stateMutability": "nonpayable",
					"type": "function"
				}
			],
			"devdoc": {
				"details": "A Game board is represented by a uint256,",
				"kind": "dev",
				"methods": {
					"move(uint256)": {
						"details": "here is what a board looks like 1st - 18th bits 00 00 00 |   0  1  2 00 00 00 |=  3  4  5 00 00 00 |   6  7  8",
						"params": {
							"_move": "the position `playerN` chooses to play"
						}
					}
				},
				"version": 1
			},
			"evm": {
				"assembly": "    /* \"Tictactoe.sol\":491:9331  contract Tictactoe {... */\n  mstore(0x40, 0x80)\n    /* \"Tictactoe.sol\":563:564  0 */\n  0x00\n    /* \"Tictactoe.sol\":543:564  uint256 gameBoard = 0 */\n  dup1\n  sstore\n    /* \"Tictactoe.sol\":1322:1613  constructor(address _playerTwo) {... */\n  callvalue\n  dup1\n  iszero\n  tag_1\n  jumpi\n  0x00\n  dup1\n  revert\ntag_1:\n  pop\n  mload(0x40)\n  sub(codesize, bytecodeSize)\n  dup1\n  bytecodeSize\n  dup4\n  codecopy\n  dup2\n  dup2\n  add\n  0x40\n  mstore\n  dup2\n  add\n  swap1\n  tag_2\n  swap2\n  swap1\n  tag_3\n  jump\t// in\ntag_2:\n    /* \"Tictactoe.sol\":1394:1395  0 */\n  0x00\n    /* \"Tictactoe.sol\":1372:1396  _playerTwo != address(0) */\n  0xffffffffffffffffffffffffffffffffffffffff\n  and\n    /* \"Tictactoe.sol\":1372:1382  _playerTwo */\n  dup2\n    /* \"Tictactoe.sol\":1372:1396  _playerTwo != address(0) */\n  0xffffffffffffffffffffffffffffffffffffffff\n  and\n  sub\n    /* \"Tictactoe.sol\":1364:1397  require(_playerTwo != address(0)) */\n  tag_6\n  jumpi\n  0x00\n  dup1\n  revert\ntag_6:\n    /* \"Tictactoe.sol\":1419:1429  msg.sender */\n  caller\n    /* \"Tictactoe.sol\":1407:1416  playerOne */\n  0x01\n  0x00\n    /* \"Tictactoe.sol\":1407:1429  playerOne = msg.sender */\n  0x0100\n  exp\n  dup2\n  sload\n  dup2\n  0xffffffffffffffffffffffffffffffffffffffff\n  mul\n  not\n  and\n  swap1\n  dup4\n  0xffffffffffffffffffffffffffffffffffffffff\n  and\n  mul\n  or\n  swap1\n  sstore\n  pop\n    /* \"Tictactoe.sol\":1451:1461  _playerTwo */\n  dup1\n    /* \"Tictactoe.sol\":1439:1448  playerTwo */\n  0x02\n  0x00\n    /* \"Tictactoe.sol\":1439:1461  playerTwo = _playerTwo */\n  0x0100\n  exp\n  dup2\n  sload\n  dup2\n  0xffffffffffffffffffffffffffffffffffffffff\n  mul\n  not\n  and\n  swap1\n  dup4\n  0xffffffffffffffffffffffffffffffffffffffff\n  and\n  mul\n  or\n  swap1\n  sstore\n  pop\n    /* \"Tictactoe.sol\":1471:1478  players */\n  0x03\n    /* \"Tictactoe.sol\":1484:1493  playerOne */\n  0x01\n  0x00\n  swap1\n  sload\n  swap1\n  0x0100\n  exp\n  swap1\n  div\n  0xffffffffffffffffffffffffffffffffffffffff\n  and\n    /* \"Tictactoe.sol\":1471:1494  players.push(playerOne) */\n  swap1\n  dup1\n  0x01\n  dup2\n  sload\n  add\n  dup1\n  dup3\n  sstore\n  dup1\n  swap2\n  pop\n  pop\n  0x01\n  swap1\n  sub\n  swap1\n  0x00\n  mstore\n  keccak256(0x00, 0x20)\n  add\n  0x00\n  swap1\n  swap2\n  swap1\n  swap2\n  swap1\n  swap2\n  0x0100\n  exp\n  dup2\n  sload\n  dup2\n  0xffffffffffffffffffffffffffffffffffffffff\n  mul\n  not\n  and\n  swap1\n  dup4\n  0xffffffffffffffffffffffffffffffffffffffff\n  and\n  mul\n  or\n  swap1\n  sstore\n  pop\n    /* \"Tictactoe.sol\":1504:1511  players */\n  0x03\n    /* \"Tictactoe.sol\":1517:1526  playerTwo */\n  0x02\n  0x00\n  swap1\n  sload\n  swap1\n  0x0100\n  exp\n  swap1\n  div\n  0xffffffffffffffffffffffffffffffffffffffff\n  and\n    /* \"Tictactoe.sol\":1504:1527  players.push(playerTwo) */\n  swap1\n  dup1\n  0x01\n  dup2\n  sload\n  add\n  dup1\n  dup3\n  sstore\n  dup1\n  swap2\n  pop\n  pop\n  0x01\n  swap1\n  sub\n  swap1\n  0x00\n  mstore\n  keccak256(0x00, 0x20)\n  add\n  0x00\n  swap1\n  swap2\n  swap1\n  swap2\n  swap1\n  swap2\n  0x0100\n  exp\n  dup2\n  sload\n  dup2\n  0xffffffffffffffffffffffffffffffffffffffff\n  mul\n  not\n  and\n  swap1\n  dup4\n  0xffffffffffffffffffffffffffffffffffffffff\n  and\n  mul\n  or\n  swap1\n  sstore\n  pop\n    /* \"Tictactoe.sol\":1599:1606  1 << 20 */\n  0x100000\n    /* \"Tictactoe.sol\":1587:1596  gameBoard */\n  sload(0x00)\n    /* \"Tictactoe.sol\":1587:1606  gameBoard | 1 << 20 */\n  or\n    /* \"Tictactoe.sol\":1575:1584  gameBoard */\n  0x00\n    /* \"Tictactoe.sol\":1575:1606  gameBoard = gameBoard | 1 << 20 */\n  dup2\n  swap1\n  sstore\n  pop\n    /* \"Tictactoe.sol\":1322:1613  constructor(address _playerTwo) {... */\n  pop\n    /* \"Tictactoe.sol\":491:9331  contract Tictactoe {... */\n  jump(tag_9)\n    /* \"#utility.yul\":88:205   */\ntag_11:\n    /* \"#utility.yul\":197:198   */\n  0x00\n    /* \"#utility.yul\":194:195   */\n  dup1\n    /* \"#utility.yul\":187:199   */\n  revert\n    /* \"#utility.yul\":334:460   */\ntag_13:\n    /* \"#utility.yul\":371:378   */\n  0x00\n    /* \"#utility.yul\":411:453   */\n  0xffffffffffffffffffffffffffffffffffffffff\n    /* \"#utility.yul\":404:409   */\n  dup3\n    /* \"#utility.yul\":400:454   */\n  and\n    /* \"#utility.yul\":389:454   */\n  swap1\n  pop\n    /* \"#utility.yul\":334:460   */\n  swap2\n  swap1\n  pop\n  jump\t// out\n    /* \"#utility.yul\":466:562   */\ntag_14:\n    /* \"#utility.yul\":503:510   */\n  0x00\n    /* \"#utility.yul\":532:556   */\n  tag_23\n    /* \"#utility.yul\":550:555   */\n  dup3\n    /* \"#utility.yul\":532:556   */\n  tag_13\n  jump\t// in\ntag_23:\n    /* \"#utility.yul\":521:556   */\n  swap1\n  pop\n    /* \"#utility.yul\":466:562   */\n  swap2\n  swap1\n  pop\n  jump\t// out\n    /* \"#utility.yul\":568:690   */\ntag_15:\n    /* \"#utility.yul\":641:665   */\n  tag_25\n    /* \"#utility.yul\":659:664   */\n  dup2\n    /* \"#utility.yul\":641:665   */\n  tag_14\n  jump\t// in\ntag_25:\n    /* \"#utility.yul\":634:639   */\n  dup2\n    /* \"#utility.yul\":631:666   */\n  eq\n    /* \"#utility.yul\":621:684   */\n  tag_26\n  jumpi\n    /* \"#utility.yul\":680:681   */\n  0x00\n    /* \"#utility.yul\":677:678   */\n  dup1\n    /* \"#utility.yul\":670:682   */\n  revert\n    /* \"#utility.yul\":621:684   */\ntag_26:\n    /* \"#utility.yul\":568:690   */\n  pop\n  jump\t// out\n    /* \"#utility.yul\":696:839   */\ntag_16:\n    /* \"#utility.yul\":753:758   */\n  0x00\n    /* \"#utility.yul\":784:790   */\n  dup2\n    /* \"#utility.yul\":778:791   */\n  mload\n    /* \"#utility.yul\":769:791   */\n  swap1\n  pop\n    /* \"#utility.yul\":800:833   */\n  tag_28\n    /* \"#utility.yul\":827:832   */\n  dup2\n    /* \"#utility.yul\":800:833   */\n  tag_15\n  jump\t// in\ntag_28:\n    /* \"#utility.yul\":696:839   */\n  swap3\n  swap2\n  pop\n  pop\n  jump\t// out\n    /* \"#utility.yul\":845:1196   */\ntag_3:\n    /* \"#utility.yul\":915:921   */\n  0x00\n    /* \"#utility.yul\":964:966   */\n  0x20\n    /* \"#utility.yul\":952:961   */\n  dup3\n    /* \"#utility.yul\":943:950   */\n  dup5\n    /* \"#utility.yul\":939:962   */\n  sub\n    /* \"#utility.yul\":935:967   */\n  slt\n    /* \"#utility.yul\":932:1051   */\n  iszero\n  tag_30\n  jumpi\n    /* \"#utility.yul\":970:1049   */\n  tag_31\n  tag_11\n  jump\t// in\ntag_31:\n    /* \"#utility.yul\":932:1051   */\ntag_30:\n    /* \"#utility.yul\":1090:1091   */\n  0x00\n    /* \"#utility.yul\":1115:1179   */\n  tag_32\n    /* \"#utility.yul\":1171:1178   */\n  dup5\n    /* \"#utility.yul\":1162:1168   */\n  dup3\n    /* \"#utility.yul\":1151:1160   */\n  dup6\n    /* \"#utility.yul\":1147:1169   */\n  add\n    /* \"#utility.yul\":1115:1179   */\n  tag_16\n  jump\t// in\ntag_32:\n    /* \"#utility.yul\":1105:1179   */\n  swap2\n  pop\n    /* \"#utility.yul\":1061:1189   */\n  pop\n    /* \"#utility.yul\":845:1196   */\n  swap3\n  swap2\n  pop\n  pop\n  jump\t// out\n    /* \"Tictactoe.sol\":491:9331  contract Tictactoe {... */\ntag_9:\n  dataSize(sub_0)\n  dup1\n  dataOffset(sub_0)\n  0x00\n  codecopy\n  0x00\n  return\nstop\n\nsub_0: assembly {\n        /* \"Tictactoe.sol\":491:9331  contract Tictactoe {... */\n      mstore(0x40, 0x80)\n      callvalue\n      dup1\n      iszero\n      tag_1\n      jumpi\n      0x00\n      dup1\n      revert\n    tag_1:\n      pop\n      jumpi(tag_2, lt(calldatasize, 0x04))\n      shr(0xe0, calldataload(0x00))\n      dup1\n      0x0fdcf877\n      eq\n      tag_3\n      jumpi\n      dup1\n      0x4494fd9f\n      eq\n      tag_4\n      jumpi\n      dup1\n      0x7d03f5f3\n      eq\n      tag_5\n      jumpi\n      dup1\n      0x87cb15f7\n      eq\n      tag_6\n      jumpi\n      dup1\n      0x8b5b9ccc\n      eq\n      tag_7\n      jumpi\n    tag_2:\n      0x00\n      dup1\n      revert\n        /* \"Tictactoe.sol\":5907:9231  function checkState(uint256 _playerId) public view returns (uint256) {... */\n    tag_3:\n      tag_8\n      0x04\n      dup1\n      calldatasize\n      sub\n      dup2\n      add\n      swap1\n      tag_9\n      swap2\n      swap1\n      tag_10\n      jump\t// in\n    tag_9:\n      tag_11\n      jump\t// in\n    tag_8:\n      mload(0x40)\n      tag_12\n      swap2\n      swap1\n      tag_13\n      jump\t// in\n    tag_12:\n      mload(0x40)\n      dup1\n      swap2\n      sub\n      swap1\n      return\n        /* \"Tictactoe.sol\":3140:3224  function getGame() external view returns (uint256) {... */\n    tag_4:\n      tag_14\n      tag_15\n      jump\t// in\n    tag_14:\n      mload(0x40)\n      tag_16\n      swap2\n      swap1\n      tag_13\n      jump\t// in\n    tag_16:\n      mload(0x40)\n      dup1\n      swap2\n      sub\n      swap1\n      return\n        /* \"Tictactoe.sol\":2918:3134  function newGame() external isPlayer(msg.sender) {... */\n    tag_5:\n      tag_17\n      tag_18\n      jump\t// in\n    tag_17:\n      stop\n        /* \"Tictactoe.sol\":3492:5901  function move(uint256 _move)... */\n    tag_6:\n      tag_19\n      0x04\n      dup1\n      calldatasize\n      sub\n      dup2\n      add\n      swap1\n      tag_20\n      swap2\n      swap1\n      tag_10\n      jump\t// in\n    tag_20:\n      tag_21\n      jump\t// in\n    tag_19:\n      mload(0x40)\n      tag_22\n      swap2\n      swap1\n      tag_13\n      jump\t// in\n    tag_22:\n      mload(0x40)\n      dup1\n      swap2\n      sub\n      swap1\n      return\n        /* \"Tictactoe.sol\":9237:9329  function getPlayers() public view returns (address[] memory) {... */\n    tag_7:\n      tag_23\n      tag_24\n      jump\t// in\n    tag_23:\n      mload(0x40)\n      tag_25\n      swap2\n      swap1\n      tag_26\n      jump\t// in\n    tag_25:\n      mload(0x40)\n      dup1\n      swap2\n      sub\n      swap1\n      return\n        /* \"Tictactoe.sol\":5907:9231  function checkState(uint256 _playerId) public view returns (uint256) {... */\n    tag_11:\n        /* \"Tictactoe.sol\":5967:5974  uint256 */\n      0x00\n        /* \"Tictactoe.sol\":5986:6004  uint256 _gameBoard */\n      dup1\n        /* \"Tictactoe.sol\":6007:6016  gameBoard */\n      sload(0x00)\n        /* \"Tictactoe.sol\":5986:6016  uint256 _gameBoard = gameBoard */\n      swap1\n      pop\n        /* \"Tictactoe.sol\":6830:6839  _playerId */\n      dup3\n        /* \"Tictactoe.sol\":6824:6825  3 */\n      0x03\n        /* \"Tictactoe.sol\":714:718  0x3F */\n      0x3f\n        /* \"Tictactoe.sol\":6806:6825  HORIZONTAL_MASK / 3 */\n      tag_28\n      swap2\n      swap1\n      tag_29\n      jump\t// in\n    tag_28:\n        /* \"Tictactoe.sol\":6805:6839  (HORIZONTAL_MASK / 3) << _playerId */\n      swap1\n      shl\n        /* \"Tictactoe.sol\":714:718  0x3F */\n      0x3f\n        /* \"Tictactoe.sol\":6771:6781  _gameBoard */\n      dup3\n        /* \"Tictactoe.sol\":6771:6799  _gameBoard & HORIZONTAL_MASK */\n      and\n        /* \"Tictactoe.sol\":6770:6840  (_gameBoard & HORIZONTAL_MASK) == ((HORIZONTAL_MASK / 3) << _playerId) */\n      sub\n        /* \"Tictactoe.sol\":6766:7131  if ((_gameBoard & HORIZONTAL_MASK) == ((HORIZONTAL_MASK / 3) << _playerId)) {... */\n      tag_30\n      jumpi\n        /* \"Tictactoe.sol\":6863:6864  1 */\n      0x01\n        /* \"Tictactoe.sol\":6856:6864  return 1 */\n      swap2\n      pop\n      pop\n      jump(tag_27)\n        /* \"Tictactoe.sol\":6766:7131  if ((_gameBoard & HORIZONTAL_MASK) == ((HORIZONTAL_MASK / 3) << _playerId)) {... */\n    tag_30:\n        /* \"Tictactoe.sol\":6966:6967  6 */\n      0x06\n        /* \"Tictactoe.sol\":6952:6961  _playerId */\n      dup4\n        /* \"Tictactoe.sol\":6946:6947  3 */\n      0x03\n        /* \"Tictactoe.sol\":714:718  0x3F */\n      0x3f\n        /* \"Tictactoe.sol\":6928:6947  HORIZONTAL_MASK / 3 */\n      tag_32\n      swap2\n      swap1\n      tag_29\n      jump\t// in\n    tag_32:\n        /* \"Tictactoe.sol\":6927:6961  (HORIZONTAL_MASK / 3) << _playerId */\n      swap1\n      shl\n        /* \"Tictactoe.sol\":6926:6967  ((HORIZONTAL_MASK / 3) << _playerId) << 6 */\n      swap1\n      shl\n        /* \"Tictactoe.sol\":6919:6920  6 */\n      0x06\n        /* \"Tictactoe.sol\":714:718  0x3F */\n      0x3f\n        /* \"Tictactoe.sol\":6900:6920  HORIZONTAL_MASK << 6 */\n      swap1\n      shl\n        /* \"Tictactoe.sol\":6886:6896  _gameBoard */\n      dup3\n        /* \"Tictactoe.sol\":6886:6921  _gameBoard & (HORIZONTAL_MASK << 6) */\n      and\n        /* \"Tictactoe.sol\":6885:6967  (_gameBoard & (HORIZONTAL_MASK << 6)) == ((HORIZONTAL_MASK / 3) << _playerId) << 6 */\n      sub\n        /* \"Tictactoe.sol\":6881:7131  if ((_gameBoard & (HORIZONTAL_MASK << 6)) == ((HORIZONTAL_MASK / 3) << _playerId) << 6) {... */\n      tag_33\n      jumpi\n        /* \"Tictactoe.sol\":6990:6991  1 */\n      0x01\n        /* \"Tictactoe.sol\":6983:6991  return 1 */\n      swap2\n      pop\n      pop\n      jump(tag_27)\n        /* \"Tictactoe.sol\":6881:7131  if ((_gameBoard & (HORIZONTAL_MASK << 6)) == ((HORIZONTAL_MASK / 3) << _playerId) << 6) {... */\n    tag_33:\n        /* \"Tictactoe.sol\":7094:7096  12 */\n      0x0c\n        /* \"Tictactoe.sol\":7080:7089  _playerId */\n      dup4\n        /* \"Tictactoe.sol\":7074:7075  3 */\n      0x03\n        /* \"Tictactoe.sol\":714:718  0x3F */\n      0x3f\n        /* \"Tictactoe.sol\":7056:7075  HORIZONTAL_MASK / 3 */\n      tag_35\n      swap2\n      swap1\n      tag_29\n      jump\t// in\n    tag_35:\n        /* \"Tictactoe.sol\":7055:7089  (HORIZONTAL_MASK / 3) << _playerId */\n      swap1\n      shl\n        /* \"Tictactoe.sol\":7054:7096  ((HORIZONTAL_MASK / 3) << _playerId) << 12 */\n      swap1\n      shl\n        /* \"Tictactoe.sol\":7046:7048  12 */\n      0x0c\n        /* \"Tictactoe.sol\":714:718  0x3F */\n      0x3f\n        /* \"Tictactoe.sol\":7027:7048  HORIZONTAL_MASK << 12 */\n      swap1\n      shl\n        /* \"Tictactoe.sol\":7013:7023  _gameBoard */\n      dup3\n        /* \"Tictactoe.sol\":7013:7049  _gameBoard & (HORIZONTAL_MASK << 12) */\n      and\n        /* \"Tictactoe.sol\":7012:7096  (_gameBoard & (HORIZONTAL_MASK << 12)) == ((HORIZONTAL_MASK / 3) << _playerId) << 12 */\n      sub\n        /* \"Tictactoe.sol\":7008:7131  if ((_gameBoard & (HORIZONTAL_MASK << 12)) == ((HORIZONTAL_MASK / 3) << _playerId) << 12) {... */\n      tag_36\n      jumpi\n        /* \"Tictactoe.sol\":7119:7120  1 */\n      0x01\n        /* \"Tictactoe.sol\":7112:7120  return 1 */\n      swap2\n      pop\n      pop\n      jump(tag_27)\n        /* \"Tictactoe.sol\":7008:7131  if ((_gameBoard & (HORIZONTAL_MASK << 12)) == ((HORIZONTAL_MASK / 3) << _playerId) << 12) {... */\n    tag_36:\n        /* \"Tictactoe.sol\":7828:7837  _playerId */\n      dup3\n        /* \"Tictactoe.sol\":7822:7823  3 */\n      0x03\n        /* \"Tictactoe.sol\":875:881  0x30C3 */\n      0x30c3\n        /* \"Tictactoe.sol\":7806:7823  VERTICAL_MASK / 3 */\n      tag_37\n      swap2\n      swap1\n      tag_29\n      jump\t// in\n    tag_37:\n        /* \"Tictactoe.sol\":7805:7837  (VERTICAL_MASK / 3) << _playerId */\n      swap1\n      shl\n        /* \"Tictactoe.sol\":875:881  0x30C3 */\n      0x30c3\n        /* \"Tictactoe.sol\":7774:7784  _gameBoard */\n      dup3\n        /* \"Tictactoe.sol\":7774:7800  _gameBoard & VERTICAL_MASK */\n      and\n        /* \"Tictactoe.sol\":7773:7837  (_gameBoard & VERTICAL_MASK) == (VERTICAL_MASK / 3) << _playerId */\n      sub\n        /* \"Tictactoe.sol\":7769:8114  if ((_gameBoard & VERTICAL_MASK) == (VERTICAL_MASK / 3) << _playerId) {... */\n      tag_38\n      jumpi\n        /* \"Tictactoe.sol\":7860:7861  1 */\n      0x01\n        /* \"Tictactoe.sol\":7853:7861  return 1 */\n      swap2\n      pop\n      pop\n      jump(tag_27)\n        /* \"Tictactoe.sol\":7769:8114  if ((_gameBoard & VERTICAL_MASK) == (VERTICAL_MASK / 3) << _playerId) {... */\n    tag_38:\n        /* \"Tictactoe.sol\":7957:7958  2 */\n      0x02\n        /* \"Tictactoe.sol\":7944:7953  _playerId */\n      dup4\n        /* \"Tictactoe.sol\":7938:7939  3 */\n      0x03\n        /* \"Tictactoe.sol\":875:881  0x30C3 */\n      0x30c3\n        /* \"Tictactoe.sol\":7922:7939  VERTICAL_MASK / 3 */\n      tag_40\n      swap2\n      swap1\n      tag_29\n      jump\t// in\n    tag_40:\n        /* \"Tictactoe.sol\":7921:7953  (VERTICAL_MASK / 3) << _playerId */\n      swap1\n      shl\n        /* \"Tictactoe.sol\":7921:7958  (VERTICAL_MASK / 3) << _playerId << 2 */\n      swap1\n      shl\n        /* \"Tictactoe.sol\":7914:7915  2 */\n      0x02\n        /* \"Tictactoe.sol\":875:881  0x30C3 */\n      0x30c3\n        /* \"Tictactoe.sol\":7897:7915  VERTICAL_MASK << 2 */\n      swap1\n      shl\n        /* \"Tictactoe.sol\":7883:7893  _gameBoard */\n      dup3\n        /* \"Tictactoe.sol\":7883:7916  _gameBoard & (VERTICAL_MASK << 2) */\n      and\n        /* \"Tictactoe.sol\":7882:7958  (_gameBoard & (VERTICAL_MASK << 2)) == (VERTICAL_MASK / 3) << _playerId << 2 */\n      sub\n        /* \"Tictactoe.sol\":7878:8114  if ((_gameBoard & (VERTICAL_MASK << 2)) == (VERTICAL_MASK / 3) << _playerId << 2) {... */\n      tag_41\n      jumpi\n        /* \"Tictactoe.sol\":7981:7982  1 */\n      0x01\n        /* \"Tictactoe.sol\":7974:7982  return 1 */\n      swap2\n      pop\n      pop\n      jump(tag_27)\n        /* \"Tictactoe.sol\":7878:8114  if ((_gameBoard & (VERTICAL_MASK << 2)) == (VERTICAL_MASK / 3) << _playerId << 2) {... */\n    tag_41:\n        /* \"Tictactoe.sol\":8078:8079  4 */\n      0x04\n        /* \"Tictactoe.sol\":8065:8074  _playerId */\n      dup4\n        /* \"Tictactoe.sol\":8059:8060  3 */\n      0x03\n        /* \"Tictactoe.sol\":875:881  0x30C3 */\n      0x30c3\n        /* \"Tictactoe.sol\":8043:8060  VERTICAL_MASK / 3 */\n      tag_43\n      swap2\n      swap1\n      tag_29\n      jump\t// in\n    tag_43:\n        /* \"Tictactoe.sol\":8042:8074  (VERTICAL_MASK / 3) << _playerId */\n      swap1\n      shl\n        /* \"Tictactoe.sol\":8042:8079  (VERTICAL_MASK / 3) << _playerId << 4 */\n      swap1\n      shl\n        /* \"Tictactoe.sol\":8035:8036  4 */\n      0x04\n        /* \"Tictactoe.sol\":875:881  0x30C3 */\n      0x30c3\n        /* \"Tictactoe.sol\":8018:8036  VERTICAL_MASK << 4 */\n      swap1\n      shl\n        /* \"Tictactoe.sol\":8004:8014  _gameBoard */\n      dup3\n        /* \"Tictactoe.sol\":8004:8037  _gameBoard & (VERTICAL_MASK << 4) */\n      and\n        /* \"Tictactoe.sol\":8003:8079  (_gameBoard & (VERTICAL_MASK << 4)) == (VERTICAL_MASK / 3) << _playerId << 4 */\n      sub\n        /* \"Tictactoe.sol\":7999:8114  if ((_gameBoard & (VERTICAL_MASK << 4)) == (VERTICAL_MASK / 3) << _playerId << 4) {... */\n      tag_44\n      jumpi\n        /* \"Tictactoe.sol\":8102:8103  1 */\n      0x01\n        /* \"Tictactoe.sol\":8095:8103  return 1 */\n      swap2\n      pop\n      pop\n      jump(tag_27)\n        /* \"Tictactoe.sol\":7999:8114  if ((_gameBoard & (VERTICAL_MASK << 4)) == (VERTICAL_MASK / 3) << _playerId << 4) {... */\n    tag_44:\n        /* \"Tictactoe.sol\":8700:8709  _playerId */\n      dup3\n        /* \"Tictactoe.sol\":8694:8695  3 */\n      0x03\n        /* \"Tictactoe.sol\":1052:1059  0x30303 */\n      0x030303\n        /* \"Tictactoe.sol\":8669:8695  BR_TO_TL_DIAGONAL_MASK / 3 */\n      tag_45\n      swap2\n      swap1\n      tag_29\n      jump\t// in\n    tag_45:\n        /* \"Tictactoe.sol\":8668:8709  (BR_TO_TL_DIAGONAL_MASK / 3) << _playerId */\n      swap1\n      shl\n        /* \"Tictactoe.sol\":1052:1059  0x30303 */\n      0x030303\n        /* \"Tictactoe.sol\":8628:8638  _gameBoard */\n      dup3\n        /* \"Tictactoe.sol\":8628:8663  _gameBoard & BR_TO_TL_DIAGONAL_MASK */\n      and\n        /* \"Tictactoe.sol\":8627:8709  (_gameBoard & BR_TO_TL_DIAGONAL_MASK) == (BR_TO_TL_DIAGONAL_MASK / 3) << _playerId */\n      sub\n        /* \"Tictactoe.sol\":8623:8744  if ((_gameBoard & BR_TO_TL_DIAGONAL_MASK) == (BR_TO_TL_DIAGONAL_MASK / 3) << _playerId) {... */\n      tag_46\n      jumpi\n        /* \"Tictactoe.sol\":8732:8733  1 */\n      0x01\n        /* \"Tictactoe.sol\":8725:8733  return 1 */\n      swap2\n      pop\n      pop\n      jump(tag_27)\n        /* \"Tictactoe.sol\":8623:8744  if ((_gameBoard & BR_TO_TL_DIAGONAL_MASK) == (BR_TO_TL_DIAGONAL_MASK / 3) << _playerId) {... */\n    tag_46:\n        /* \"Tictactoe.sol\":8831:8840  _playerId */\n      dup3\n        /* \"Tictactoe.sol\":8825:8826  3 */\n      0x03\n        /* \"Tictactoe.sol\":1221:1227  0x3330 */\n      0x3330\n        /* \"Tictactoe.sol\":8800:8826  BL_TO_TR_DIAGONAL_MASK / 3 */\n      tag_47\n      swap2\n      swap1\n      tag_29\n      jump\t// in\n    tag_47:\n        /* \"Tictactoe.sol\":8799:8840  (BL_TO_TR_DIAGONAL_MASK / 3) << _playerId */\n      swap1\n      shl\n        /* \"Tictactoe.sol\":1221:1227  0x3330 */\n      0x3330\n        /* \"Tictactoe.sol\":8759:8769  _gameBoard */\n      dup3\n        /* \"Tictactoe.sol\":8759:8794  _gameBoard & BL_TO_TR_DIAGONAL_MASK */\n      and\n        /* \"Tictactoe.sol\":8758:8840  (_gameBoard & BL_TO_TR_DIAGONAL_MASK) == (BL_TO_TR_DIAGONAL_MASK / 3) << _playerId */\n      sub\n        /* \"Tictactoe.sol\":8754:8875  if ((_gameBoard & BL_TO_TR_DIAGONAL_MASK) == (BL_TO_TR_DIAGONAL_MASK / 3) << _playerId) {... */\n      tag_48\n      jumpi\n        /* \"Tictactoe.sol\":8863:8864  1 */\n      0x01\n        /* \"Tictactoe.sol\":8856:8864  return 1 */\n      swap2\n      pop\n      pop\n      jump(tag_27)\n        /* \"Tictactoe.sol\":8754:8875  if ((_gameBoard & BL_TO_TR_DIAGONAL_MASK) == (BL_TO_TR_DIAGONAL_MASK / 3) << _playerId) {... */\n    tag_48:\n        /* \"Tictactoe.sol\":8967:8976  uint256 x */\n      0x00\n        /* \"Tictactoe.sol\":8962:9169  for (uint256 x = 0; x < 9; x++) {... */\n    tag_49:\n        /* \"Tictactoe.sol\":8986:8987  9 */\n      0x09\n        /* \"Tictactoe.sol\":8982:8983  x */\n      dup2\n        /* \"Tictactoe.sol\":8982:8987  x < 9 */\n      lt\n        /* \"Tictactoe.sol\":8962:9169  for (uint256 x = 0; x < 9; x++) {... */\n      iszero\n      tag_50\n      jumpi\n        /* \"Tictactoe.sol\":9034:9035  0 */\n      0x00\n        /* \"Tictactoe.sol\":9029:9030  1 */\n      0x01\n        /* \"Tictactoe.sol\":9016:9026  _gameBoard */\n      dup4\n        /* \"Tictactoe.sol\":9016:9030  _gameBoard & 1 */\n      and\n        /* \"Tictactoe.sol\":9016:9035  _gameBoard & 1 == 0 */\n      eq\n        /* \"Tictactoe.sol\":9016:9058  _gameBoard & 1 == 0 && _gameBoard & 2 == 0 */\n      dup1\n      iszero\n      tag_52\n      jumpi\n      pop\n        /* \"Tictactoe.sol\":9057:9058  0 */\n      0x00\n        /* \"Tictactoe.sol\":9052:9053  2 */\n      0x02\n        /* \"Tictactoe.sol\":9039:9049  _gameBoard */\n      dup4\n        /* \"Tictactoe.sol\":9039:9053  _gameBoard & 2 */\n      and\n        /* \"Tictactoe.sol\":9039:9058  _gameBoard & 2 == 0 */\n      eq\n        /* \"Tictactoe.sol\":9016:9058  _gameBoard & 1 == 0 && _gameBoard & 2 == 0 */\n    tag_52:\n        /* \"Tictactoe.sol\":9012:9109  if (_gameBoard & 1 == 0 && _gameBoard & 2 == 0) {... */\n      iszero\n      tag_53\n      jumpi\n        /* \"Tictactoe.sol\":9089:9090  0 */\n      0x00\n        /* \"Tictactoe.sol\":9082:9090  return 0 */\n      swap3\n      pop\n      pop\n      pop\n      jump(tag_27)\n        /* \"Tictactoe.sol\":9012:9109  if (_gameBoard & 1 == 0 && _gameBoard & 2 == 0) {... */\n    tag_53:\n        /* \"Tictactoe.sol\":9153:9154  2 */\n      0x02\n        /* \"Tictactoe.sol\":9139:9149  _gameBoard */\n      dup3\n        /* \"Tictactoe.sol\":9139:9154  _gameBoard >> 2 */\n      swap1\n      shr\n        /* \"Tictactoe.sol\":9126:9154  _gameBoard = _gameBoard >> 2 */\n      swap2\n      pop\n        /* \"Tictactoe.sol\":8989:8992  x++ */\n      dup1\n      dup1\n      0x01\n      add\n      swap2\n      pop\n      pop\n        /* \"Tictactoe.sol\":8962:9169  for (uint256 x = 0; x < 9; x++) {... */\n      jump(tag_49)\n    tag_50:\n      pop\n        /* \"Tictactoe.sol\":9213:9214  2 */\n      0x02\n        /* \"Tictactoe.sol\":9206:9214  return 2 */\n      swap2\n      pop\n      pop\n        /* \"Tictactoe.sol\":5907:9231  function checkState(uint256 _playerId) public view returns (uint256) {... */\n    tag_27:\n      swap2\n      swap1\n      pop\n      jump\t// out\n        /* \"Tictactoe.sol\":3140:3224  function getGame() external view returns (uint256) {... */\n    tag_15:\n        /* \"Tictactoe.sol\":3182:3189  uint256 */\n      0x00\n        /* \"Tictactoe.sol\":3208:3217  gameBoard */\n      dup1\n      sload\n        /* \"Tictactoe.sol\":3201:3217  return gameBoard */\n      swap1\n      pop\n        /* \"Tictactoe.sol\":3140:3224  function getGame() external view returns (uint256) {... */\n      swap1\n      jump\t// out\n        /* \"Tictactoe.sol\":2918:3134  function newGame() external isPlayer(msg.sender) {... */\n    tag_18:\n        /* \"Tictactoe.sol\":2955:2965  msg.sender */\n      caller\n        /* \"Tictactoe.sol\":1793:1802  playerOne */\n      0x01\n      0x00\n      swap1\n      sload\n      swap1\n      0x0100\n      exp\n      swap1\n      div\n      0xffffffffffffffffffffffffffffffffffffffff\n      and\n        /* \"Tictactoe.sol\":1782:1802  _player != playerOne */\n      0xffffffffffffffffffffffffffffffffffffffff\n      and\n        /* \"Tictactoe.sol\":1782:1789  _player */\n      dup2\n        /* \"Tictactoe.sol\":1782:1802  _player != playerOne */\n      0xffffffffffffffffffffffffffffffffffffffff\n      and\n      eq\n      iszero\n        /* \"Tictactoe.sol\":1782:1826  _player != playerOne && _player != playerTwo */\n      dup1\n      iszero\n      tag_56\n      jumpi\n      pop\n        /* \"Tictactoe.sol\":1817:1826  playerTwo */\n      0x02\n      0x00\n      swap1\n      sload\n      swap1\n      0x0100\n      exp\n      swap1\n      div\n      0xffffffffffffffffffffffffffffffffffffffff\n      and\n        /* \"Tictactoe.sol\":1806:1826  _player != playerTwo */\n      0xffffffffffffffffffffffffffffffffffffffff\n      and\n        /* \"Tictactoe.sol\":1806:1813  _player */\n      dup2\n        /* \"Tictactoe.sol\":1806:1826  _player != playerTwo */\n      0xffffffffffffffffffffffffffffffffffffffff\n      and\n      eq\n      iszero\n        /* \"Tictactoe.sol\":1782:1826  _player != playerOne && _player != playerTwo */\n    tag_56:\n        /* \"Tictactoe.sol\":1778:1874  if (_player != playerOne && _player != playerTwo) {... */\n      iszero\n      tag_57\n      jumpi\n        /* \"Tictactoe.sol\":1849:1863  Unauthorized() */\n      mload(0x40)\n      0x82b4290000000000000000000000000000000000000000000000000000000000\n      dup2\n      mstore\n      0x04\n      add\n      mload(0x40)\n      dup1\n      swap2\n      sub\n      swap1\n      revert\n        /* \"Tictactoe.sol\":1778:1874  if (_player != playerOne && _player != playerTwo) {... */\n    tag_57:\n        /* \"Tictactoe.sol\":3120:3127  1 << 20 */\n      0x100000\n        /* \"Tictactoe.sol\":3108:3117  gameBoard */\n      0x00\n        /* \"Tictactoe.sol\":3108:3127  gameBoard = 1 << 20 */\n      dup2\n      swap1\n      sstore\n      pop\n        /* \"Tictactoe.sol\":2918:3134  function newGame() external isPlayer(msg.sender) {... */\n      pop\n      jump\t// out\n        /* \"Tictactoe.sol\":3492:5901  function move(uint256 _move)... */\n    tag_21:\n        /* \"Tictactoe.sol\":3638:3645  uint256 */\n      0x00\n        /* \"Tictactoe.sol\":3555:3565  msg.sender */\n      caller\n        /* \"Tictactoe.sol\":1793:1802  playerOne */\n      0x01\n      0x00\n      swap1\n      sload\n      swap1\n      0x0100\n      exp\n      swap1\n      div\n      0xffffffffffffffffffffffffffffffffffffffff\n      and\n        /* \"Tictactoe.sol\":1782:1802  _player != playerOne */\n      0xffffffffffffffffffffffffffffffffffffffff\n      and\n        /* \"Tictactoe.sol\":1782:1789  _player */\n      dup2\n        /* \"Tictactoe.sol\":1782:1802  _player != playerOne */\n      0xffffffffffffffffffffffffffffffffffffffff\n      and\n      eq\n      iszero\n        /* \"Tictactoe.sol\":1782:1826  _player != playerOne && _player != playerTwo */\n      dup1\n      iszero\n      tag_60\n      jumpi\n      pop\n        /* \"Tictactoe.sol\":1817:1826  playerTwo */\n      0x02\n      0x00\n      swap1\n      sload\n      swap1\n      0x0100\n      exp\n      swap1\n      div\n      0xffffffffffffffffffffffffffffffffffffffff\n      and\n        /* \"Tictactoe.sol\":1806:1826  _player != playerTwo */\n      0xffffffffffffffffffffffffffffffffffffffff\n      and\n        /* \"Tictactoe.sol\":1806:1813  _player */\n      dup2\n        /* \"Tictactoe.sol\":1806:1826  _player != playerTwo */\n      0xffffffffffffffffffffffffffffffffffffffff\n      and\n      eq\n      iszero\n        /* \"Tictactoe.sol\":1782:1826  _player != playerOne && _player != playerTwo */\n    tag_60:\n        /* \"Tictactoe.sol\":1778:1874  if (_player != playerOne && _player != playerTwo) {... */\n      iszero\n      tag_61\n      jumpi\n        /* \"Tictactoe.sol\":1849:1863  Unauthorized() */\n      mload(0x40)\n      0x82b4290000000000000000000000000000000000000000000000000000000000\n      dup2\n      mstore\n      0x04\n      add\n      mload(0x40)\n      dup1\n      swap2\n      sub\n      swap1\n      revert\n        /* \"Tictactoe.sol\":1778:1874  if (_player != playerOne && _player != playerTwo) {... */\n    tag_61:\n        /* \"Tictactoe.sol\":3582:3592  msg.sender */\n      caller\n        /* \"Tictactoe.sol\":2149:2166  playerId(_player) */\n      tag_63\n        /* \"Tictactoe.sol\":2158:2165  _player */\n      dup2\n        /* \"Tictactoe.sol\":2149:2157  playerId */\n      tag_64\n        /* \"Tictactoe.sol\":2149:2166  playerId(_player) */\n      jump\t// in\n    tag_63:\n        /* \"Tictactoe.sol\":2141:2144  0x1 */\n      0x01\n        /* \"Tictactoe.sol\":2136:2138  18 */\n      0x12\n        /* \"Tictactoe.sol\":2123:2132  gameBoard */\n      sload(0x00)\n        /* \"Tictactoe.sol\":2123:2138  gameBoard >> 18 */\n      swap1\n      shr\n        /* \"Tictactoe.sol\":2123:2144  gameBoard >> 18 & 0x1 */\n      and\n        /* \"Tictactoe.sol\":2122:2166  (gameBoard >> 18 & 0x1) == playerId(_player) */\n      eq\n        /* \"Tictactoe.sol\":2114:2184  require((gameBoard >> 18 & 0x1) == playerId(_player), \"Not your turn\") */\n      tag_65\n      jumpi\n      mload(0x40)\n      0x08c379a000000000000000000000000000000000000000000000000000000000\n      dup2\n      mstore\n      0x04\n      add\n      tag_66\n      swap1\n      tag_67\n      jump\t// in\n    tag_66:\n      mload(0x40)\n      dup1\n      swap2\n      sub\n      swap1\n      revert\n    tag_65:\n        /* \"Tictactoe.sol\":3614:3619  _move */\n      dup4\n        /* \"Tictactoe.sol\":2447:2457  uint256 p1 */\n      0x00\n        /* \"Tictactoe.sol\":2469:2470  1 */\n      0x01\n        /* \"Tictactoe.sol\":2460:2465  _move */\n      dup3\n        /* \"Tictactoe.sol\":2460:2470  _move << 1 */\n      swap1\n      shl\n        /* \"Tictactoe.sol\":2447:2470  uint256 p1 = _move << 1 */\n      swap1\n      pop\n        /* \"Tictactoe.sol\":2480:2490  uint256 p2 */\n      0x00\n        /* \"Tictactoe.sol\":2498:2499  1 */\n      0x01\n        /* \"Tictactoe.sol\":2493:2495  p1 */\n      dup3\n        /* \"Tictactoe.sol\":2493:2499  p1 + 1 */\n      tag_69\n      swap2\n      swap1\n      tag_70\n      jump\t// in\n    tag_69:\n        /* \"Tictactoe.sol\":2480:2499  uint256 p2 = p1 + 1 */\n      swap1\n      pop\n        /* \"Tictactoe.sol\":2509:2527  uint256 _gameBoard */\n      0x00\n        /* \"Tictactoe.sol\":2530:2539  gameBoard */\n      dup1\n      sload\n        /* \"Tictactoe.sol\":2509:2539  uint256 _gameBoard = gameBoard */\n      swap1\n      pop\n        /* \"Tictactoe.sol\":2588:2589  1 */\n      0x01\n        /* \"Tictactoe.sol\":2582:2583  1 */\n      dup1\n        /* \"Tictactoe.sol\":2576:2578  p1 */\n      dup5\n        /* \"Tictactoe.sol\":2562:2572  _gameBoard */\n      dup4\n        /* \"Tictactoe.sol\":2562:2578  _gameBoard >> p1 */\n      swap1\n      shr\n        /* \"Tictactoe.sol\":2561:2583  (_gameBoard >> p1) & 1 */\n      and\n        /* \"Tictactoe.sol\":2560:2589  ((_gameBoard >> p1) & 1) == 1 */\n      eq\n        /* \"Tictactoe.sol\":2560:2622  ((_gameBoard >> p1) & 1) == 1 || ((_gameBoard >> p2) & 1) == 1 */\n      dup1\n      tag_71\n      jumpi\n      pop\n        /* \"Tictactoe.sol\":2621:2622  1 */\n      0x01\n        /* \"Tictactoe.sol\":2615:2616  1 */\n      dup1\n        /* \"Tictactoe.sol\":2609:2611  p2 */\n      dup4\n        /* \"Tictactoe.sol\":2595:2605  _gameBoard */\n      dup4\n        /* \"Tictactoe.sol\":2595:2611  _gameBoard >> p2 */\n      swap1\n      shr\n        /* \"Tictactoe.sol\":2594:2616  (_gameBoard >> p2) & 1 */\n      and\n        /* \"Tictactoe.sol\":2593:2622  ((_gameBoard >> p2) & 1) == 1 */\n      eq\n        /* \"Tictactoe.sol\":2560:2622  ((_gameBoard >> p1) & 1) == 1 || ((_gameBoard >> p2) & 1) == 1 */\n    tag_71:\n        /* \"Tictactoe.sol\":2558:2623  !(((_gameBoard >> p1) & 1) == 1 || ((_gameBoard >> p2) & 1) == 1) */\n      iszero\n        /* \"Tictactoe.sol\":2550:2640  require(!(((_gameBoard >> p1) & 1) == 1 || ((_gameBoard >> p2) & 1) == 1), \"invalid move\") */\n      tag_72\n      jumpi\n      mload(0x40)\n      0x08c379a000000000000000000000000000000000000000000000000000000000\n      dup2\n      mstore\n      0x04\n      add\n      tag_73\n      swap1\n      tag_74\n      jump\t// in\n    tag_73:\n      mload(0x40)\n      dup1\n      swap2\n      sub\n      swap1\n      revert\n    tag_72:\n        /* \"Tictactoe.sol\":2666:2667  9 */\n      0x09\n        /* \"Tictactoe.sol\":2658:2663  _move */\n      dup5\n        /* \"Tictactoe.sol\":2658:2667  _move < 9 */\n      lt\n        /* \"Tictactoe.sol\":2650:2684  require(_move < 9, \"invalid move\") */\n      tag_75\n      jumpi\n      mload(0x40)\n      0x08c379a000000000000000000000000000000000000000000000000000000000\n      dup2\n      mstore\n      0x04\n      add\n      tag_76\n      swap1\n      tag_74\n      jump\t// in\n    tag_76:\n      mload(0x40)\n      dup1\n      swap2\n      sub\n      swap1\n      revert\n    tag_75:\n        /* \"Tictactoe.sol\":3967:3985  uint256 _gameBoard */\n      0x00\n        /* \"Tictactoe.sol\":3988:3997  gameBoard */\n      dup1\n      sload\n        /* \"Tictactoe.sol\":3967:3997  uint256 _gameBoard = gameBoard */\n      swap1\n      pop\n        /* \"Tictactoe.sol\":4040:4041  0 */\n      0x00\n        /* \"Tictactoe.sol\":4035:4036  1 */\n      0x01\n        /* \"Tictactoe.sol\":4030:4032  19 */\n      0x13\n        /* \"Tictactoe.sol\":4016:4026  _gameBoard */\n      dup4\n        /* \"Tictactoe.sol\":4016:4032  _gameBoard >> 19 */\n      swap1\n      shr\n        /* \"Tictactoe.sol\":4016:4036  _gameBoard >> 19 & 1 */\n      and\n        /* \"Tictactoe.sol\":4016:4041  _gameBoard >> 19 & 1 == 0 */\n      eq\n        /* \"Tictactoe.sol\":4016:4070  _gameBoard >> 19 & 1 == 0 && _gameBoard >> 20 & 1 == 1 */\n      dup1\n      iszero\n      tag_78\n      jumpi\n      pop\n        /* \"Tictactoe.sol\":4069:4070  1 */\n      0x01\n        /* \"Tictactoe.sol\":4064:4065  1 */\n      dup1\n        /* \"Tictactoe.sol\":4059:4061  20 */\n      0x14\n        /* \"Tictactoe.sol\":4045:4055  _gameBoard */\n      dup4\n        /* \"Tictactoe.sol\":4045:4061  _gameBoard >> 20 */\n      swap1\n      shr\n        /* \"Tictactoe.sol\":4045:4065  _gameBoard >> 20 & 1 */\n      and\n        /* \"Tictactoe.sol\":4045:4070  _gameBoard >> 20 & 1 == 1 */\n      eq\n        /* \"Tictactoe.sol\":4016:4070  _gameBoard >> 19 & 1 == 0 && _gameBoard >> 20 & 1 == 1 */\n    tag_78:\n        /* \"Tictactoe.sol\":4008:4089  require(_gameBoard >> 19 & 1 == 0 && _gameBoard >> 20 & 1 == 1, \"Game has ended\") */\n      tag_79\n      jumpi\n      mload(0x40)\n      0x08c379a000000000000000000000000000000000000000000000000000000000\n      dup2\n      mstore\n      0x04\n      add\n      tag_80\n      swap1\n      tag_81\n      jump\t// in\n    tag_80:\n      mload(0x40)\n      dup1\n      swap2\n      sub\n      swap1\n      revert\n    tag_79:\n        /* \"Tictactoe.sol\":4100:4117  uint256 _playerId */\n      0x00\n        /* \"Tictactoe.sol\":4120:4140  playerId(msg.sender) */\n      tag_82\n        /* \"Tictactoe.sol\":4129:4139  msg.sender */\n      caller\n        /* \"Tictactoe.sol\":4120:4128  playerId */\n      tag_64\n        /* \"Tictactoe.sol\":4120:4140  playerId(msg.sender) */\n      jump\t// in\n    tag_82:\n        /* \"Tictactoe.sol\":4100:4140  uint256 _playerId = playerId(msg.sender) */\n      swap1\n      pop\n        /* \"Tictactoe.sol\":4996:5005  _playerId */\n      dup1\n        /* \"Tictactoe.sol\":4991:4992  1 */\n      0x01\n        /* \"Tictactoe.sol\":4982:4987  _move */\n      dup12\n        /* \"Tictactoe.sol\":4982:4992  _move << 1 */\n      swap1\n      shl\n        /* \"Tictactoe.sol\":4981:5005  (_move << 1) + _playerId */\n      tag_83\n      swap2\n      swap1\n      tag_70\n      jump\t// in\n    tag_83:\n        /* \"Tictactoe.sol\":4975:4976  1 */\n      0x01\n        /* \"Tictactoe.sol\":4975:5006  1 << ((_move << 1) + _playerId) */\n      swap1\n      shl\n        /* \"Tictactoe.sol\":4961:4971  _gameBoard */\n      dup3\n        /* \"Tictactoe.sol\":4961:5007  _gameBoard ^ (1 << ((_move << 1) + _playerId)) */\n      xor\n        /* \"Tictactoe.sol\":4948:5007  _gameBoard = _gameBoard ^ (1 << ((_move << 1) + _playerId)) */\n      swap2\n      pop\n        /* \"Tictactoe.sol\":5440:5447  1 << 18 */\n      0x040000\n        /* \"Tictactoe.sol\":5426:5436  _gameBoard */\n      dup3\n        /* \"Tictactoe.sol\":5426:5448  _gameBoard ^ (1 << 18) */\n      xor\n        /* \"Tictactoe.sol\":5414:5423  gameBoard */\n      0x00\n        /* \"Tictactoe.sol\":5414:5448  gameBoard = _gameBoard ^ (1 << 18) */\n      dup2\n      swap1\n      sstore\n      pop\n        /* \"Tictactoe.sol\":5651:5668  uint256 gameState */\n      0x00\n        /* \"Tictactoe.sol\":5671:5692  checkState(_playerId) */\n      tag_84\n        /* \"Tictactoe.sol\":5682:5691  _playerId */\n      dup3\n        /* \"Tictactoe.sol\":5671:5681  checkState */\n      tag_11\n        /* \"Tictactoe.sol\":5671:5692  checkState(_playerId) */\n      jump\t// in\n    tag_84:\n        /* \"Tictactoe.sol\":5651:5692  uint256 gameState = checkState(_playerId) */\n      swap1\n      pop\n        /* \"Tictactoe.sol\":5720:5721  1 */\n      0x01\n        /* \"Tictactoe.sol\":5707:5716  gameState */\n      dup2\n        /* \"Tictactoe.sol\":5707:5721  gameState == 1 */\n      sub\n        /* \"Tictactoe.sol\":5703:5876  if (gameState == 1) {... */\n      tag_85\n      jumpi\n        /* \"Tictactoe.sol\":5773:5782  _playerId */\n      dup2\n        /* \"Tictactoe.sol\":5768:5770  19 */\n      0x13\n        /* \"Tictactoe.sol\":5768:5782  19 + _playerId */\n      tag_86\n      swap2\n      swap1\n      tag_70\n      jump\t// in\n    tag_86:\n        /* \"Tictactoe.sol\":5762:5763  1 */\n      0x01\n        /* \"Tictactoe.sol\":5762:5783  1 << (19 + _playerId) */\n      swap1\n      shl\n        /* \"Tictactoe.sol\":5749:5758  gameBoard */\n      sload(0x00)\n        /* \"Tictactoe.sol\":5749:5784  gameBoard ^ (1 << (19 + _playerId)) */\n      xor\n        /* \"Tictactoe.sol\":5737:5746  gameBoard */\n      0x00\n        /* \"Tictactoe.sol\":5737:5784  gameBoard = gameBoard ^ (1 << (19 + _playerId)) */\n      dup2\n      swap1\n      sstore\n      pop\n        /* \"Tictactoe.sol\":5805:5806  1 */\n      0x01\n        /* \"Tictactoe.sol\":5798:5806  return 1 */\n      swap10\n      pop\n      pop\n      pop\n      pop\n      jump(tag_77)\n        /* \"Tictactoe.sol\":5703:5876  if (gameState == 1) {... */\n    tag_85:\n        /* \"Tictactoe.sol\":5840:5841  2 */\n      0x02\n        /* \"Tictactoe.sol\":5827:5836  gameState */\n      dup2\n        /* \"Tictactoe.sol\":5827:5841  gameState == 2 */\n      sub\n        /* \"Tictactoe.sol\":5823:5876  if (gameState == 2) {... */\n      tag_88\n      jumpi\n        /* \"Tictactoe.sol\":5864:5865  2 */\n      0x02\n        /* \"Tictactoe.sol\":5857:5865  return 2 */\n      swap10\n      pop\n      pop\n      pop\n      pop\n      jump(tag_77)\n        /* \"Tictactoe.sol\":5823:5876  if (gameState == 2) {... */\n    tag_88:\n        /* \"Tictactoe.sol\":5893:5894  0 */\n      0x00\n        /* \"Tictactoe.sol\":5886:5894  return 0 */\n      swap10\n      pop\n      pop\n      pop\n      pop\n        /* \"Tictactoe.sol\":2694:2695  _ */\n    tag_77:\n        /* \"Tictactoe.sol\":2437:2702  {... */\n      pop\n      pop\n      pop\n        /* \"Tictactoe.sol\":2194:2195  _ */\n      pop\n        /* \"Tictactoe.sol\":1883:1884  _ */\n      pop\n        /* \"Tictactoe.sol\":3492:5901  function move(uint256 _move)... */\n      pop\n      swap2\n      swap1\n      pop\n      jump\t// out\n        /* \"Tictactoe.sol\":9237:9329  function getPlayers() public view returns (address[] memory) {... */\n    tag_24:\n        /* \"Tictactoe.sol\":9280:9296  address[] memory */\n      0x60\n        /* \"Tictactoe.sol\":9315:9322  players */\n      0x03\n        /* \"Tictactoe.sol\":9308:9322  return players */\n      dup1\n      sload\n      dup1\n      0x20\n      mul\n      0x20\n      add\n      mload(0x40)\n      swap1\n      dup2\n      add\n      0x40\n      mstore\n      dup1\n      swap3\n      swap2\n      swap1\n      dup2\n      dup2\n      mstore\n      0x20\n      add\n      dup3\n      dup1\n      sload\n      dup1\n      iszero\n      tag_90\n      jumpi\n      0x20\n      mul\n      dup3\n      add\n      swap2\n      swap1\n      0x00\n      mstore\n      keccak256(0x00, 0x20)\n      swap1\n    tag_91:\n      dup2\n      0x00\n      swap1\n      sload\n      swap1\n      0x0100\n      exp\n      swap1\n      div\n      0xffffffffffffffffffffffffffffffffffffffff\n      and\n      0xffffffffffffffffffffffffffffffffffffffff\n      and\n      dup2\n      mstore\n      0x20\n      add\n      swap1\n      0x01\n      add\n      swap1\n      dup1\n      dup4\n      gt\n      tag_91\n      jumpi\n    tag_90:\n      pop\n      pop\n      pop\n      pop\n      pop\n      swap1\n      pop\n        /* \"Tictactoe.sol\":9237:9329  function getPlayers() public view returns (address[] memory) {... */\n      swap1\n      jump\t// out\n        /* \"Tictactoe.sol\":2708:2833  function playerId(address playerAddr) internal view returns (uint256) {... */\n    tag_64:\n        /* \"Tictactoe.sol\":2769:2776  uint256 */\n      0x00\n        /* \"Tictactoe.sol\":2809:2818  playerOne */\n      0x01\n      0x00\n      swap1\n      sload\n      swap1\n      0x0100\n      exp\n      swap1\n      div\n      0xffffffffffffffffffffffffffffffffffffffff\n      and\n        /* \"Tictactoe.sol\":2795:2818  playerAddr == playerOne */\n      0xffffffffffffffffffffffffffffffffffffffff\n      and\n        /* \"Tictactoe.sol\":2795:2805  playerAddr */\n      dup3\n        /* \"Tictactoe.sol\":2795:2818  playerAddr == playerOne */\n      0xffffffffffffffffffffffffffffffffffffffff\n      and\n      eq\n        /* \"Tictactoe.sol\":2795:2826  playerAddr == playerOne ? 0 : 1 */\n      tag_93\n      jumpi\n        /* \"Tictactoe.sol\":2825:2826  1 */\n      0x01\n        /* \"Tictactoe.sol\":2795:2826  playerAddr == playerOne ? 0 : 1 */\n      jump(tag_94)\n    tag_93:\n        /* \"Tictactoe.sol\":2821:2822  0 */\n      0x00\n        /* \"Tictactoe.sol\":2795:2826  playerAddr == playerOne ? 0 : 1 */\n    tag_94:\n        /* \"Tictactoe.sol\":2788:2826  return playerAddr == playerOne ? 0 : 1 */\n      0xff\n      and\n      swap1\n      pop\n        /* \"Tictactoe.sol\":2708:2833  function playerId(address playerAddr) internal view returns (uint256) {... */\n      swap2\n      swap1\n      pop\n      jump\t// out\n        /* \"#utility.yul\":88:205   */\n    tag_96:\n        /* \"#utility.yul\":197:198   */\n      0x00\n        /* \"#utility.yul\":194:195   */\n      dup1\n        /* \"#utility.yul\":187:199   */\n      revert\n        /* \"#utility.yul\":334:411   */\n    tag_98:\n        /* \"#utility.yul\":371:378   */\n      0x00\n        /* \"#utility.yul\":400:405   */\n      dup2\n        /* \"#utility.yul\":389:405   */\n      swap1\n      pop\n        /* \"#utility.yul\":334:411   */\n      swap2\n      swap1\n      pop\n      jump\t// out\n        /* \"#utility.yul\":417:539   */\n    tag_99:\n        /* \"#utility.yul\":490:514   */\n      tag_126\n        /* \"#utility.yul\":508:513   */\n      dup2\n        /* \"#utility.yul\":490:514   */\n      tag_98\n      jump\t// in\n    tag_126:\n        /* \"#utility.yul\":483:488   */\n      dup2\n        /* \"#utility.yul\":480:515   */\n      eq\n        /* \"#utility.yul\":470:533   */\n      tag_127\n      jumpi\n        /* \"#utility.yul\":529:530   */\n      0x00\n        /* \"#utility.yul\":526:527   */\n      dup1\n        /* \"#utility.yul\":519:531   */\n      revert\n        /* \"#utility.yul\":470:533   */\n    tag_127:\n        /* \"#utility.yul\":417:539   */\n      pop\n      jump\t// out\n        /* \"#utility.yul\":545:684   */\n    tag_100:\n        /* \"#utility.yul\":591:596   */\n      0x00\n        /* \"#utility.yul\":629:635   */\n      dup2\n        /* \"#utility.yul\":616:636   */\n      calldataload\n        /* \"#utility.yul\":607:636   */\n      swap1\n      pop\n        /* \"#utility.yul\":645:678   */\n      tag_129\n        /* \"#utility.yul\":672:677   */\n      dup2\n        /* \"#utility.yul\":645:678   */\n      tag_99\n      jump\t// in\n    tag_129:\n        /* \"#utility.yul\":545:684   */\n      swap3\n      swap2\n      pop\n      pop\n      jump\t// out\n        /* \"#utility.yul\":690:1019   */\n    tag_10:\n        /* \"#utility.yul\":749:755   */\n      0x00\n        /* \"#utility.yul\":798:800   */\n      0x20\n        /* \"#utility.yul\":786:795   */\n      dup3\n        /* \"#utility.yul\":777:784   */\n      dup5\n        /* \"#utility.yul\":773:796   */\n      sub\n        /* \"#utility.yul\":769:801   */\n      slt\n        /* \"#utility.yul\":766:885   */\n      iszero\n      tag_131\n      jumpi\n        /* \"#utility.yul\":804:883   */\n      tag_132\n      tag_96\n      jump\t// in\n    tag_132:\n        /* \"#utility.yul\":766:885   */\n    tag_131:\n        /* \"#utility.yul\":924:925   */\n      0x00\n        /* \"#utility.yul\":949:1002   */\n      tag_133\n        /* \"#utility.yul\":994:1001   */\n      dup5\n        /* \"#utility.yul\":985:991   */\n      dup3\n        /* \"#utility.yul\":974:983   */\n      dup6\n        /* \"#utility.yul\":970:992   */\n      add\n        /* \"#utility.yul\":949:1002   */\n      tag_100\n      jump\t// in\n    tag_133:\n        /* \"#utility.yul\":939:1002   */\n      swap2\n      pop\n        /* \"#utility.yul\":895:1012   */\n      pop\n        /* \"#utility.yul\":690:1019   */\n      swap3\n      swap2\n      pop\n      pop\n      jump\t// out\n        /* \"#utility.yul\":1025:1143   */\n    tag_101:\n        /* \"#utility.yul\":1112:1136   */\n      tag_135\n        /* \"#utility.yul\":1130:1135   */\n      dup2\n        /* \"#utility.yul\":1112:1136   */\n      tag_98\n      jump\t// in\n    tag_135:\n        /* \"#utility.yul\":1107:1110   */\n      dup3\n        /* \"#utility.yul\":1100:1137   */\n      mstore\n        /* \"#utility.yul\":1025:1143   */\n      pop\n      pop\n      jump\t// out\n        /* \"#utility.yul\":1149:1371   */\n    tag_13:\n        /* \"#utility.yul\":1242:1246   */\n      0x00\n        /* \"#utility.yul\":1280:1282   */\n      0x20\n        /* \"#utility.yul\":1269:1278   */\n      dup3\n        /* \"#utility.yul\":1265:1283   */\n      add\n        /* \"#utility.yul\":1257:1283   */\n      swap1\n      pop\n        /* \"#utility.yul\":1293:1364   */\n      tag_137\n        /* \"#utility.yul\":1361:1362   */\n      0x00\n        /* \"#utility.yul\":1350:1359   */\n      dup4\n        /* \"#utility.yul\":1346:1363   */\n      add\n        /* \"#utility.yul\":1337:1343   */\n      dup5\n        /* \"#utility.yul\":1293:1364   */\n      tag_101\n      jump\t// in\n    tag_137:\n        /* \"#utility.yul\":1149:1371   */\n      swap3\n      swap2\n      pop\n      pop\n      jump\t// out\n        /* \"#utility.yul\":1377:1491   */\n    tag_102:\n        /* \"#utility.yul\":1444:1450   */\n      0x00\n        /* \"#utility.yul\":1478:1483   */\n      dup2\n        /* \"#utility.yul\":1472:1484   */\n      mload\n        /* \"#utility.yul\":1462:1484   */\n      swap1\n      pop\n        /* \"#utility.yul\":1377:1491   */\n      swap2\n      swap1\n      pop\n      jump\t// out\n        /* \"#utility.yul\":1497:1681   */\n    tag_103:\n        /* \"#utility.yul\":1596:1607   */\n      0x00\n        /* \"#utility.yul\":1630:1636   */\n      dup3\n        /* \"#utility.yul\":1625:1628   */\n      dup3\n        /* \"#utility.yul\":1618:1637   */\n      mstore\n        /* \"#utility.yul\":1670:1674   */\n      0x20\n        /* \"#utility.yul\":1665:1668   */\n      dup3\n        /* \"#utility.yul\":1661:1675   */\n      add\n        /* \"#utility.yul\":1646:1675   */\n      swap1\n      pop\n        /* \"#utility.yul\":1497:1681   */\n      swap3\n      swap2\n      pop\n      pop\n      jump\t// out\n        /* \"#utility.yul\":1687:1819   */\n    tag_104:\n        /* \"#utility.yul\":1754:1758   */\n      0x00\n        /* \"#utility.yul\":1777:1780   */\n      dup2\n        /* \"#utility.yul\":1769:1780   */\n      swap1\n      pop\n        /* \"#utility.yul\":1807:1811   */\n      0x20\n        /* \"#utility.yul\":1802:1805   */\n      dup3\n        /* \"#utility.yul\":1798:1812   */\n      add\n        /* \"#utility.yul\":1790:1812   */\n      swap1\n      pop\n        /* \"#utility.yul\":1687:1819   */\n      swap2\n      swap1\n      pop\n      jump\t// out\n        /* \"#utility.yul\":1825:1951   */\n    tag_105:\n        /* \"#utility.yul\":1862:1869   */\n      0x00\n        /* \"#utility.yul\":1902:1944   */\n      0xffffffffffffffffffffffffffffffffffffffff\n        /* \"#utility.yul\":1895:1900   */\n      dup3\n        /* \"#utility.yul\":1891:1945   */\n      and\n        /* \"#utility.yul\":1880:1945   */\n      swap1\n      pop\n        /* \"#utility.yul\":1825:1951   */\n      swap2\n      swap1\n      pop\n      jump\t// out\n        /* \"#utility.yul\":1957:2053   */\n    tag_106:\n        /* \"#utility.yul\":1994:2001   */\n      0x00\n        /* \"#utility.yul\":2023:2047   */\n      tag_143\n        /* \"#utility.yul\":2041:2046   */\n      dup3\n        /* \"#utility.yul\":2023:2047   */\n      tag_105\n      jump\t// in\n    tag_143:\n        /* \"#utility.yul\":2012:2047   */\n      swap1\n      pop\n        /* \"#utility.yul\":1957:2053   */\n      swap2\n      swap1\n      pop\n      jump\t// out\n        /* \"#utility.yul\":2059:2167   */\n    tag_107:\n        /* \"#utility.yul\":2136:2160   */\n      tag_145\n        /* \"#utility.yul\":2154:2159   */\n      dup2\n        /* \"#utility.yul\":2136:2160   */\n      tag_106\n      jump\t// in\n    tag_145:\n        /* \"#utility.yul\":2131:2134   */\n      dup3\n        /* \"#utility.yul\":2124:2161   */\n      mstore\n        /* \"#utility.yul\":2059:2167   */\n      pop\n      pop\n      jump\t// out\n        /* \"#utility.yul\":2173:2352   */\n    tag_108:\n        /* \"#utility.yul\":2242:2252   */\n      0x00\n        /* \"#utility.yul\":2263:2309   */\n      tag_147\n        /* \"#utility.yul\":2305:2308   */\n      dup4\n        /* \"#utility.yul\":2297:2303   */\n      dup4\n        /* \"#utility.yul\":2263:2309   */\n      tag_107\n      jump\t// in\n    tag_147:\n        /* \"#utility.yul\":2341:2345   */\n      0x20\n        /* \"#utility.yul\":2336:2339   */\n      dup4\n        /* \"#utility.yul\":2332:2346   */\n      add\n        /* \"#utility.yul\":2318:2346   */\n      swap1\n      pop\n        /* \"#utility.yul\":2173:2352   */\n      swap3\n      swap2\n      pop\n      pop\n      jump\t// out\n        /* \"#utility.yul\":2358:2471   */\n    tag_109:\n        /* \"#utility.yul\":2428:2432   */\n      0x00\n        /* \"#utility.yul\":2460:2464   */\n      0x20\n        /* \"#utility.yul\":2455:2458   */\n      dup3\n        /* \"#utility.yul\":2451:2465   */\n      add\n        /* \"#utility.yul\":2443:2465   */\n      swap1\n      pop\n        /* \"#utility.yul\":2358:2471   */\n      swap2\n      swap1\n      pop\n      jump\t// out\n        /* \"#utility.yul\":2507:3239   */\n    tag_110:\n        /* \"#utility.yul\":2626:2629   */\n      0x00\n        /* \"#utility.yul\":2655:2709   */\n      tag_150\n        /* \"#utility.yul\":2703:2708   */\n      dup3\n        /* \"#utility.yul\":2655:2709   */\n      tag_102\n      jump\t// in\n    tag_150:\n        /* \"#utility.yul\":2725:2811   */\n      tag_151\n        /* \"#utility.yul\":2804:2810   */\n      dup2\n        /* \"#utility.yul\":2799:2802   */\n      dup6\n        /* \"#utility.yul\":2725:2811   */\n      tag_103\n      jump\t// in\n    tag_151:\n        /* \"#utility.yul\":2718:2811   */\n      swap4\n      pop\n        /* \"#utility.yul\":2835:2891   */\n      tag_152\n        /* \"#utility.yul\":2885:2890   */\n      dup4\n        /* \"#utility.yul\":2835:2891   */\n      tag_104\n      jump\t// in\n    tag_152:\n        /* \"#utility.yul\":2914:2921   */\n      dup1\n        /* \"#utility.yul\":2945:2946   */\n      0x00\n        /* \"#utility.yul\":2930:3214   */\n    tag_153:\n        /* \"#utility.yul\":2955:2961   */\n      dup4\n        /* \"#utility.yul\":2952:2953   */\n      dup2\n        /* \"#utility.yul\":2949:2962   */\n      lt\n        /* \"#utility.yul\":2930:3214   */\n      iszero\n      tag_155\n      jumpi\n        /* \"#utility.yul\":3031:3037   */\n      dup2\n        /* \"#utility.yul\":3025:3038   */\n      mload\n        /* \"#utility.yul\":3058:3121   */\n      tag_156\n        /* \"#utility.yul\":3117:3120   */\n      dup9\n        /* \"#utility.yul\":3102:3115   */\n      dup3\n        /* \"#utility.yul\":3058:3121   */\n      tag_108\n      jump\t// in\n    tag_156:\n        /* \"#utility.yul\":3051:3121   */\n      swap8\n      pop\n        /* \"#utility.yul\":3144:3204   */\n      tag_157\n        /* \"#utility.yul\":3197:3203   */\n      dup4\n        /* \"#utility.yul\":3144:3204   */\n      tag_109\n      jump\t// in\n    tag_157:\n        /* \"#utility.yul\":3134:3204   */\n      swap3\n      pop\n        /* \"#utility.yul\":2990:3214   */\n      pop\n        /* \"#utility.yul\":2977:2978   */\n      0x01\n        /* \"#utility.yul\":2974:2975   */\n      dup2\n        /* \"#utility.yul\":2970:2979   */\n      add\n        /* \"#utility.yul\":2965:2979   */\n      swap1\n      pop\n        /* \"#utility.yul\":2930:3214   */\n      jump(tag_153)\n    tag_155:\n        /* \"#utility.yul\":2934:2948   */\n      pop\n        /* \"#utility.yul\":3230:3233   */\n      dup6\n        /* \"#utility.yul\":3223:3233   */\n      swap4\n      pop\n        /* \"#utility.yul\":2631:3239   */\n      pop\n      pop\n      pop\n        /* \"#utility.yul\":2507:3239   */\n      swap3\n      swap2\n      pop\n      pop\n      jump\t// out\n        /* \"#utility.yul\":3245:3618   */\n    tag_26:\n        /* \"#utility.yul\":3388:3392   */\n      0x00\n        /* \"#utility.yul\":3426:3428   */\n      0x20\n        /* \"#utility.yul\":3415:3424   */\n      dup3\n        /* \"#utility.yul\":3411:3429   */\n      add\n        /* \"#utility.yul\":3403:3429   */\n      swap1\n      pop\n        /* \"#utility.yul\":3475:3484   */\n      dup2\n        /* \"#utility.yul\":3469:3473   */\n      dup2\n        /* \"#utility.yul\":3465:3485   */\n      sub\n        /* \"#utility.yul\":3461:3462   */\n      0x00\n        /* \"#utility.yul\":3450:3459   */\n      dup4\n        /* \"#utility.yul\":3446:3463   */\n      add\n        /* \"#utility.yul\":3439:3486   */\n      mstore\n        /* \"#utility.yul\":3503:3611   */\n      tag_159\n        /* \"#utility.yul\":3606:3610   */\n      dup2\n        /* \"#utility.yul\":3597:3603   */\n      dup5\n        /* \"#utility.yul\":3503:3611   */\n      tag_110\n      jump\t// in\n    tag_159:\n        /* \"#utility.yul\":3495:3611   */\n      swap1\n      pop\n        /* \"#utility.yul\":3245:3618   */\n      swap3\n      swap2\n      pop\n      pop\n      jump\t// out\n        /* \"#utility.yul\":3624:3804   */\n    tag_111:\n        /* \"#utility.yul\":3672:3749   */\n      0x4e487b7100000000000000000000000000000000000000000000000000000000\n        /* \"#utility.yul\":3669:3670   */\n      0x00\n        /* \"#utility.yul\":3662:3750   */\n      mstore\n        /* \"#utility.yul\":3769:3773   */\n      0x12\n        /* \"#utility.yul\":3766:3767   */\n      0x04\n        /* \"#utility.yul\":3759:3774   */\n      mstore\n        /* \"#utility.yul\":3793:3797   */\n      0x24\n        /* \"#utility.yul\":3790:3791   */\n      0x00\n        /* \"#utility.yul\":3783:3798   */\n      revert\n        /* \"#utility.yul\":3810:3990   */\n    tag_112:\n        /* \"#utility.yul\":3858:3935   */\n      0x4e487b7100000000000000000000000000000000000000000000000000000000\n        /* \"#utility.yul\":3855:3856   */\n      0x00\n        /* \"#utility.yul\":3848:3936   */\n      mstore\n        /* \"#utility.yul\":3955:3959   */\n      0x11\n        /* \"#utility.yul\":3952:3953   */\n      0x04\n        /* \"#utility.yul\":3945:3960   */\n      mstore\n        /* \"#utility.yul\":3979:3983   */\n      0x24\n        /* \"#utility.yul\":3976:3977   */\n      0x00\n        /* \"#utility.yul\":3969:3984   */\n      revert\n        /* \"#utility.yul\":3996:4181   */\n    tag_29:\n        /* \"#utility.yul\":4036:4037   */\n      0x00\n        /* \"#utility.yul\":4053:4073   */\n      tag_163\n        /* \"#utility.yul\":4071:4072   */\n      dup3\n        /* \"#utility.yul\":4053:4073   */\n      tag_98\n      jump\t// in\n    tag_163:\n        /* \"#utility.yul\":4048:4073   */\n      swap2\n      pop\n        /* \"#utility.yul\":4087:4107   */\n      tag_164\n        /* \"#utility.yul\":4105:4106   */\n      dup4\n        /* \"#utility.yul\":4087:4107   */\n      tag_98\n      jump\t// in\n    tag_164:\n        /* \"#utility.yul\":4082:4107   */\n      swap3\n      pop\n        /* \"#utility.yul\":4126:4127   */\n      dup3\n        /* \"#utility.yul\":4116:4151   */\n      tag_165\n      jumpi\n        /* \"#utility.yul\":4131:4149   */\n      tag_166\n      tag_111\n      jump\t// in\n    tag_166:\n        /* \"#utility.yul\":4116:4151   */\n    tag_165:\n        /* \"#utility.yul\":4173:4174   */\n      dup3\n        /* \"#utility.yul\":4170:4171   */\n      dup3\n        /* \"#utility.yul\":4166:4175   */\n      div\n        /* \"#utility.yul\":4161:4175   */\n      swap1\n      pop\n        /* \"#utility.yul\":3996:4181   */\n      swap3\n      swap2\n      pop\n      pop\n      jump\t// out\n        /* \"#utility.yul\":4187:4356   */\n    tag_113:\n        /* \"#utility.yul\":4271:4282   */\n      0x00\n        /* \"#utility.yul\":4305:4311   */\n      dup3\n        /* \"#utility.yul\":4300:4303   */\n      dup3\n        /* \"#utility.yul\":4293:4312   */\n      mstore\n        /* \"#utility.yul\":4345:4349   */\n      0x20\n        /* \"#utility.yul\":4340:4343   */\n      dup3\n        /* \"#utility.yul\":4336:4350   */\n      add\n        /* \"#utility.yul\":4321:4350   */\n      swap1\n      pop\n        /* \"#utility.yul\":4187:4356   */\n      swap3\n      swap2\n      pop\n      pop\n      jump\t// out\n        /* \"#utility.yul\":4362:4525   */\n    tag_114:\n        /* \"#utility.yul\":4502:4517   */\n      0x4e6f7420796f7572207475726e00000000000000000000000000000000000000\n        /* \"#utility.yul\":4498:4499   */\n      0x00\n        /* \"#utility.yul\":4490:4496   */\n      dup3\n        /* \"#utility.yul\":4486:4500   */\n      add\n        /* \"#utility.yul\":4479:4518   */\n      mstore\n        /* \"#utility.yul\":4362:4525   */\n      pop\n      jump\t// out\n        /* \"#utility.yul\":4531:4897   */\n    tag_115:\n        /* \"#utility.yul\":4673:4676   */\n      0x00\n        /* \"#utility.yul\":4694:4761   */\n      tag_170\n        /* \"#utility.yul\":4758:4760   */\n      0x0d\n        /* \"#utility.yul\":4753:4756   */\n      dup4\n        /* \"#utility.yul\":4694:4761   */\n      tag_113\n      jump\t// in\n    tag_170:\n        /* \"#utility.yul\":4687:4761   */\n      swap2\n      pop\n        /* \"#utility.yul\":4770:4863   */\n      tag_171\n        /* \"#utility.yul\":4859:4862   */\n      dup3\n        /* \"#utility.yul\":4770:4863   */\n      tag_114\n      jump\t// in\n    tag_171:\n        /* \"#utility.yul\":4888:4890   */\n      0x20\n        /* \"#utility.yul\":4883:4886   */\n      dup3\n        /* \"#utility.yul\":4879:4891   */\n      add\n        /* \"#utility.yul\":4872:4891   */\n      swap1\n      pop\n        /* \"#utility.yul\":4531:4897   */\n      swap2\n      swap1\n      pop\n      jump\t// out\n        /* \"#utility.yul\":4903:5322   */\n    tag_67:\n        /* \"#utility.yul\":5069:5073   */\n      0x00\n        /* \"#utility.yul\":5107:5109   */\n      0x20\n        /* \"#utility.yul\":5096:5105   */\n      dup3\n        /* \"#utility.yul\":5092:5110   */\n      add\n        /* \"#utility.yul\":5084:5110   */\n      swap1\n      pop\n        /* \"#utility.yul\":5156:5165   */\n      dup2\n        /* \"#utility.yul\":5150:5154   */\n      dup2\n        /* \"#utility.yul\":5146:5166   */\n      sub\n        /* \"#utility.yul\":5142:5143   */\n      0x00\n        /* \"#utility.yul\":5131:5140   */\n      dup4\n        /* \"#utility.yul\":5127:5144   */\n      add\n        /* \"#utility.yul\":5120:5167   */\n      mstore\n        /* \"#utility.yul\":5184:5315   */\n      tag_173\n        /* \"#utility.yul\":5310:5314   */\n      dup2\n        /* \"#utility.yul\":5184:5315   */\n      tag_115\n      jump\t// in\n    tag_173:\n        /* \"#utility.yul\":5176:5315   */\n      swap1\n      pop\n        /* \"#utility.yul\":4903:5322   */\n      swap2\n      swap1\n      pop\n      jump\t// out\n        /* \"#utility.yul\":5328:5519   */\n    tag_70:\n        /* \"#utility.yul\":5368:5371   */\n      0x00\n        /* \"#utility.yul\":5387:5407   */\n      tag_175\n        /* \"#utility.yul\":5405:5406   */\n      dup3\n        /* \"#utility.yul\":5387:5407   */\n      tag_98\n      jump\t// in\n    tag_175:\n        /* \"#utility.yul\":5382:5407   */\n      swap2\n      pop\n        /* \"#utility.yul\":5421:5441   */\n      tag_176\n        /* \"#utility.yul\":5439:5440   */\n      dup4\n        /* \"#utility.yul\":5421:5441   */\n      tag_98\n      jump\t// in\n    tag_176:\n        /* \"#utility.yul\":5416:5441   */\n      swap3\n      pop\n        /* \"#utility.yul\":5464:5465   */\n      dup3\n        /* \"#utility.yul\":5461:5462   */\n      dup3\n        /* \"#utility.yul\":5457:5466   */\n      add\n        /* \"#utility.yul\":5450:5466   */\n      swap1\n      pop\n        /* \"#utility.yul\":5485:5488   */\n      dup1\n        /* \"#utility.yul\":5482:5483   */\n      dup3\n        /* \"#utility.yul\":5479:5489   */\n      gt\n        /* \"#utility.yul\":5476:5512   */\n      iszero\n      tag_177\n      jumpi\n        /* \"#utility.yul\":5492:5510   */\n      tag_178\n      tag_112\n      jump\t// in\n    tag_178:\n        /* \"#utility.yul\":5476:5512   */\n    tag_177:\n        /* \"#utility.yul\":5328:5519   */\n      swap3\n      swap2\n      pop\n      pop\n      jump\t// out\n        /* \"#utility.yul\":5525:5687   */\n    tag_116:\n        /* \"#utility.yul\":5665:5679   */\n      0x696e76616c6964206d6f76650000000000000000000000000000000000000000\n        /* \"#utility.yul\":5661:5662   */\n      0x00\n        /* \"#utility.yul\":5653:5659   */\n      dup3\n        /* \"#utility.yul\":5649:5663   */\n      add\n        /* \"#utility.yul\":5642:5680   */\n      mstore\n        /* \"#utility.yul\":5525:5687   */\n      pop\n      jump\t// out\n        /* \"#utility.yul\":5693:6059   */\n    tag_117:\n        /* \"#utility.yul\":5835:5838   */\n      0x00\n        /* \"#utility.yul\":5856:5923   */\n      tag_181\n        /* \"#utility.yul\":5920:5922   */\n      0x0c\n        /* \"#utility.yul\":5915:5918   */\n      dup4\n        /* \"#utility.yul\":5856:5923   */\n      tag_113\n      jump\t// in\n    tag_181:\n        /* \"#utility.yul\":5849:5923   */\n      swap2\n      pop\n        /* \"#utility.yul\":5932:6025   */\n      tag_182\n        /* \"#utility.yul\":6021:6024   */\n      dup3\n        /* \"#utility.yul\":5932:6025   */\n      tag_116\n      jump\t// in\n    tag_182:\n        /* \"#utility.yul\":6050:6052   */\n      0x20\n        /* \"#utility.yul\":6045:6048   */\n      dup3\n        /* \"#utility.yul\":6041:6053   */\n      add\n        /* \"#utility.yul\":6034:6053   */\n      swap1\n      pop\n        /* \"#utility.yul\":5693:6059   */\n      swap2\n      swap1\n      pop\n      jump\t// out\n        /* \"#utility.yul\":6065:6484   */\n    tag_74:\n        /* \"#utility.yul\":6231:6235   */\n      0x00\n        /* \"#utility.yul\":6269:6271   */\n      0x20\n        /* \"#utility.yul\":6258:6267   */\n      dup3\n        /* \"#utility.yul\":6254:6272   */\n      add\n        /* \"#utility.yul\":6246:6272   */\n      swap1\n      pop\n        /* \"#utility.yul\":6318:6327   */\n      dup2\n        /* \"#utility.yul\":6312:6316   */\n      dup2\n        /* \"#utility.yul\":6308:6328   */\n      sub\n        /* \"#utility.yul\":6304:6305   */\n      0x00\n        /* \"#utility.yul\":6293:6302   */\n      dup4\n        /* \"#utility.yul\":6289:6306   */\n      add\n        /* \"#utility.yul\":6282:6329   */\n      mstore\n        /* \"#utility.yul\":6346:6477   */\n      tag_184\n        /* \"#utility.yul\":6472:6476   */\n      dup2\n        /* \"#utility.yul\":6346:6477   */\n      tag_117\n      jump\t// in\n    tag_184:\n        /* \"#utility.yul\":6338:6477   */\n      swap1\n      pop\n        /* \"#utility.yul\":6065:6484   */\n      swap2\n      swap1\n      pop\n      jump\t// out\n        /* \"#utility.yul\":6490:6654   */\n    tag_118:\n        /* \"#utility.yul\":6630:6646   */\n      0x47616d652068617320656e646564000000000000000000000000000000000000\n        /* \"#utility.yul\":6626:6627   */\n      0x00\n        /* \"#utility.yul\":6618:6624   */\n      dup3\n        /* \"#utility.yul\":6614:6628   */\n      add\n        /* \"#utility.yul\":6607:6647   */\n      mstore\n        /* \"#utility.yul\":6490:6654   */\n      pop\n      jump\t// out\n        /* \"#utility.yul\":6660:7026   */\n    tag_119:\n        /* \"#utility.yul\":6802:6805   */\n      0x00\n        /* \"#utility.yul\":6823:6890   */\n      tag_187\n        /* \"#utility.yul\":6887:6889   */\n      0x0e\n        /* \"#utility.yul\":6882:6885   */\n      dup4\n        /* \"#utility.yul\":6823:6890   */\n      tag_113\n      jump\t// in\n    tag_187:\n        /* \"#utility.yul\":6816:6890   */\n      swap2\n      pop\n        /* \"#utility.yul\":6899:6992   */\n      tag_188\n        /* \"#utility.yul\":6988:6991   */\n      dup3\n        /* \"#utility.yul\":6899:6992   */\n      tag_118\n      jump\t// in\n    tag_188:\n        /* \"#utility.yul\":7017:7019   */\n      0x20\n        /* \"#utility.yul\":7012:7015   */\n      dup3\n        /* \"#utility.yul\":7008:7020   */\n      add\n        /* \"#utility.yul\":7001:7020   */\n      swap1\n      pop\n        /* \"#utility.yul\":6660:7026   */\n      swap2\n      swap1\n      pop\n      jump\t// out\n        /* \"#utility.yul\":7032:7451   */\n    tag_81:\n        /* \"#utility.yul\":7198:7202   */\n      0x00\n        /* \"#utility.yul\":7236:7238   */\n      0x20\n        /* \"#utility.yul\":7225:7234   */\n      dup3\n        /* \"#utility.yul\":7221:7239   */\n      add\n        /* \"#utility.yul\":7213:7239   */\n      swap1\n      pop\n        /* \"#utility.yul\":7285:7294   */\n      dup2\n        /* \"#utility.yul\":7279:7283   */\n      dup2\n        /* \"#utility.yul\":7275:7295   */\n      sub\n        /* \"#utility.yul\":7271:7272   */\n      0x00\n        /* \"#utility.yul\":7260:7269   */\n      dup4\n        /* \"#utility.yul\":7256:7273   */\n      add\n        /* \"#utility.yul\":7249:7296   */\n      mstore\n        /* \"#utility.yul\":7313:7444   */\n      tag_190\n        /* \"#utility.yul\":7439:7443   */\n      dup2\n        /* \"#utility.yul\":7313:7444   */\n      tag_119\n      jump\t// in\n    tag_190:\n        /* \"#utility.yul\":7305:7444   */\n      swap1\n      pop\n        /* \"#utility.yul\":7032:7451   */\n      swap2\n      swap1\n      pop\n      jump\t// out\n\n    auxdata: 0xa264697066735822122069d0cc605a9965cf10a8a896dd084bfa5a799d5e72d2c2790ca52270836f814364736f6c63430008160033\n}\n",
				"bytecode": {
					"linkReferences": {},
					"object": "60806040525f8055348015610012575f80fd5b50604051610dc7380380610dc78339818101604052810190610034919061025d565b5f73ffffffffffffffffffffffffffffffffffffffff168173ffffffffffffffffffffffffffffffffffffffff160361006b575f80fd5b3360015f6101000a81548173ffffffffffffffffffffffffffffffffffffffff021916908373ffffffffffffffffffffffffffffffffffffffff1602179055508060025f6101000a81548173ffffffffffffffffffffffffffffffffffffffff021916908373ffffffffffffffffffffffffffffffffffffffff160217905550600360015f9054906101000a900473ffffffffffffffffffffffffffffffffffffffff16908060018154018082558091505060019003905f5260205f20015f9091909190916101000a81548173ffffffffffffffffffffffffffffffffffffffff021916908373ffffffffffffffffffffffffffffffffffffffff160217905550600360025f9054906101000a900473ffffffffffffffffffffffffffffffffffffffff16908060018154018082558091505060019003905f5260205f20015f9091909190916101000a81548173ffffffffffffffffffffffffffffffffffffffff021916908373ffffffffffffffffffffffffffffffffffffffff160217905550621000005f54175f8190555050610288565b5f80fd5b5f73ffffffffffffffffffffffffffffffffffffffff82169050919050565b5f61022c82610203565b9050919050565b61023c81610222565b8114610246575f80fd5b50565b5f8151905061025781610233565b92915050565b5f60208284031215610272576102716101ff565b5b5f61027f84828501610249565b91505092915050565b610b32806102955f395ff3fe608060405234801561000f575f80fd5b5060043610610055575f3560e01c80630fdcf877146100595780634494fd9f146100895780637d03f5f3146100a757806387cb15f7146100b15780638b5b9ccc146100e1575b5f80fd5b610073600480360381019061006e919061079d565b6100ff565b60405161008091906107d7565b60405180910390f35b61009161029f565b60405161009e91906107d7565b60405180910390f35b6100af6102a7565b005b6100cb60048036038101906100c6919061079d565b610395565b6040516100d891906107d7565b60405180910390f35b6100e9610673565b6040516100f691906108d7565b60405180910390f35b5f805f549050826003603f6101149190610951565b901b603f82160361012957600191505061029a565b6006836003603f61013a9190610951565b901b901b6006603f901b82160361015557600191505061029a565b600c836003603f6101669190610951565b901b901b600c603f901b82160361018157600191505061029a565b8260036130c36101919190610951565b901b6130c38216036101a757600191505061029a565b60028360036130c36101b99190610951565b901b901b60026130c3901b8216036101d557600191505061029a565b60048360036130c36101e79190610951565b901b901b60046130c3901b82160361020357600191505061029a565b826003620303036102149190610951565b901b6203030382160361022b57600191505061029a565b82600361333061023b9190610951565b901b61333082160361025157600191505061029a565b5f5b6009811015610293575f6001831614801561027057505f60028316145b1561027f575f9250505061029a565b600282901c91508080600101915050610253565b5060029150505b919050565b5f8054905090565b3360015f9054906101000a900473ffffffffffffffffffffffffffffffffffffffff1673ffffffffffffffffffffffffffffffffffffffff168173ffffffffffffffffffffffffffffffffffffffff1614158015610352575060025f9054906101000a900473ffffffffffffffffffffffffffffffffffffffff1673ffffffffffffffffffffffffffffffffffffffff168173ffffffffffffffffffffffffffffffffffffffff1614155b15610389576040517f82b4290000000000000000000000000000000000000000000000000000000000815260040160405180910390fd5b621000005f8190555050565b5f3360015f9054906101000a900473ffffffffffffffffffffffffffffffffffffffff1673ffffffffffffffffffffffffffffffffffffffff168173ffffffffffffffffffffffffffffffffffffffff1614158015610441575060025f9054906101000a900473ffffffffffffffffffffffffffffffffffffffff1673ffffffffffffffffffffffffffffffffffffffff168173ffffffffffffffffffffffffffffffffffffffff1614155b15610478576040517f82b4290000000000000000000000000000000000000000000000000000000000815260040160405180910390fd5b33610482816106fe565b600160125f54901c16146104cb576040517f08c379a00000000000000000000000000000000000000000000000000000000081526004016104c2906109db565b60405180910390fd5b835f600182901b90505f6001826104e291906109f9565b90505f805490506001808483901c16148061050257506001808383901c16145b15610542576040517f08c379a000000000000000000000000000000000000000000000000000000000815260040161053990610a76565b60405180910390fd5b60098410610585576040517f08c379a000000000000000000000000000000000000000000000000000000000815260040161057c90610a76565b60405180910390fd5b5f805490505f6001601383901c161480156105a65750600180601483901c16145b6105e5576040517f08c379a00000000000000000000000000000000000000000000000000000000081526004016105dc90610ade565b60405180910390fd5b5f6105ef336106fe565b90508060018b901b61060191906109f9565b6001901b821891506204000082185f819055505f61061e826100ff565b90506001810361064d5781601361063591906109f9565b6001901b5f54185f8190555060019950505050610668565b600281036106615760029950505050610668565b5f99505050505b505050505050919050565b606060038054806020026020016040519081016040528092919081815260200182805480156106f457602002820191905f5260205f20905b815f9054906101000a900473ffffffffffffffffffffffffffffffffffffffff1673ffffffffffffffffffffffffffffffffffffffff16815260200190600101908083116106ab575b5050505050905090565b5f60015f9054906101000a900473ffffffffffffffffffffffffffffffffffffffff1673ffffffffffffffffffffffffffffffffffffffff168273ffffffffffffffffffffffffffffffffffffffff161461075a57600161075c565b5f5b60ff169050919050565b5f80fd5b5f819050919050565b61077c8161076a565b8114610786575f80fd5b50565b5f8135905061079781610773565b92915050565b5f602082840312156107b2576107b1610766565b5b5f6107bf84828501610789565b91505092915050565b6107d18161076a565b82525050565b5f6020820190506107ea5f8301846107c8565b92915050565b5f81519050919050565b5f82825260208201905092915050565b5f819050602082019050919050565b5f73ffffffffffffffffffffffffffffffffffffffff82169050919050565b5f61084282610819565b9050919050565b61085281610838565b82525050565b5f6108638383610849565b60208301905092915050565b5f602082019050919050565b5f610885826107f0565b61088f81856107fa565b935061089a8361080a565b805f5b838110156108ca5781516108b18882610858565b97506108bc8361086f565b92505060018101905061089d565b5085935050505092915050565b5f6020820190508181035f8301526108ef818461087b565b905092915050565b7f4e487b71000000000000000000000000000000000000000000000000000000005f52601260045260245ffd5b7f4e487b71000000000000000000000000000000000000000000000000000000005f52601160045260245ffd5b5f61095b8261076a565b91506109668361076a565b925082610976576109756108f7565b5b828204905092915050565b5f82825260208201905092915050565b7f4e6f7420796f7572207475726e000000000000000000000000000000000000005f82015250565b5f6109c5600d83610981565b91506109d082610991565b602082019050919050565b5f6020820190508181035f8301526109f2816109b9565b9050919050565b5f610a038261076a565b9150610a0e8361076a565b9250828201905080821115610a2657610a25610924565b5b92915050565b7f696e76616c6964206d6f766500000000000000000000000000000000000000005f82015250565b5f610a60600c83610981565b9150610a6b82610a2c565b602082019050919050565b5f6020820190508181035f830152610a8d81610a54565b9050919050565b7f47616d652068617320656e6465640000000000000000000000000000000000005f82015250565b5f610ac8600e83610981565b9150610ad382610a94565b602082019050919050565b5f6020820190508181035f830152610af581610abc565b905091905056fea264697066735822122069d0cc605a9965cf10a8a896dd084bfa5a799d5e72d2c2790ca52270836f814364736f6c63430008160033",
					"opcodes": "PUSH1 0x80 PUSH1 0x40 MSTORE PUSH0 DUP1 SSTORE CALLVALUE DUP1 ISZERO PUSH2 0x12 JUMPI PUSH0 DUP1 REVERT JUMPDEST POP PUSH1 0x40 MLOAD PUSH2 0xDC7 CODESIZE SUB DUP1 PUSH2 0xDC7 DUP4 CODECOPY DUP2 DUP2 ADD PUSH1 0x40 MSTORE DUP2 ADD SWAP1 PUSH2 0x34 SWAP2 SWAP1 PUSH2 0x25D JUMP JUMPDEST PUSH0 PUSH20 0xFFFFFFFFFFFFFFFFFFFFFFFFFFFFFFFFFFFFFFFF AND DUP2 PUSH20 0xFFFFFFFFFFFFFFFFFFFFFFFFFFFFFFFFFFFFFFFF AND SUB PUSH2 0x6B JUMPI PUSH0 DUP1 REVERT JUMPDEST CALLER PUSH1 0x1 PUSH0 PUSH2 0x100 EXP DUP2 SLOAD DUP2 PUSH20 0xFFFFFFFFFFFFFFFFFFFFFFFFFFFFFFFFFFFFFFFF MUL NOT AND SWAP1 DUP4 PUSH20 0xFFFFFFFFFFFFFFFFFFFFFFFFFFFFFFFFFFFFFFFF AND MUL OR SWAP1 SSTORE POP DUP1 PUSH1 0x2 PUSH0 PUSH2 0x100 EXP DUP2 SLOAD DUP2 PUSH20 0xFFFFFFFFFFFFFFFFFFFFFFFFFFFFFFFFFFFFFFFF MUL NOT AND SWAP1 DUP4 PUSH20 0xFFFFFFFFFFFFFFFFFFFFFFFFFFFFFFFFFFFFFFFF AND MUL OR SWAP1 SSTORE POP PUSH1 0x3 PUSH1 0x1 PUSH0 SWAP1 SLOAD SWAP1 PUSH2 0x100 EXP SWAP1 DIV PUSH20 0xFFFFFFFFFFFFFFFFFFFFFFFFFFFFFFFFFFFFFFFF AND SWAP1 DUP1 PUSH1 0x1 DUP2 SLOAD ADD DUP1 DUP3 SSTORE DUP1 SWAP2 POP POP PUSH1 0x1 SWAP1 SUB SWAP1 PUSH0 MSTORE PUSH1 0x20 PUSH0 KECCAK256 ADD PUSH0 SWAP1 SWAP2 SWAP1 SWAP2 SWAP1 SWAP2 PUSH2 0x100 EXP DUP2 SLOAD DUP2 PUSH20 0xFFFFFFFFFFFFFFFFFFFFFFFFFFFFFFFFFFFFFFFF MUL NOT AND SWAP1 DUP4 PUSH20 0xFFFFFFFFFFFFFFFFFFFFFFFFFFFFFFFFFFFFFFFF AND MUL OR SWAP1 SSTORE POP PUSH1 0x3 PUSH1 0x2 PUSH0 SWAP1 SLOAD SWAP1 PUSH2 0x100 EXP SWAP1 DIV PUSH20 0xFFFFFFFFFFFFFFFFFFFFFFFFFFFFFFFFFFFFFFFF AND SWAP1 DUP1 PUSH1 0x1 DUP2 SLOAD ADD DUP1 DUP3 SSTORE DUP1 SWAP2 POP POP PUSH1 0x1 SWAP1 SUB SWAP1 PUSH0 MSTORE PUSH1 0x20 PUSH0 KECCAK256 ADD PUSH0 SWAP1 SWAP2 SWAP1 SWAP2 SWAP1 SWAP2 PUSH2 0x100 EXP DUP2 SLOAD DUP2 PUSH20 0xFFFFFFFFFFFFFFFFFFFFFFFFFFFFFFFFFFFFFFFF MUL NOT AND SWAP1 DUP4 PUSH20 0xFFFFFFFFFFFFFFFFFFFFFFFFFFFFFFFFFFFFFFFF AND MUL OR SWAP1 SSTORE POP PUSH3 0x100000 PUSH0 SLOAD OR PUSH0 DUP2 SWAP1 SSTORE POP POP PUSH2 0x288 JUMP JUMPDEST PUSH0 DUP1 REVERT JUMPDEST PUSH0 PUSH20 0xFFFFFFFFFFFFFFFFFFFFFFFFFFFFFFFFFFFFFFFF DUP3 AND SWAP1 POP SWAP2 SWAP1 POP JUMP JUMPDEST PUSH0 PUSH2 0x22C DUP3 PUSH2 0x203 JUMP JUMPDEST SWAP1 POP SWAP2 SWAP1 POP JUMP JUMPDEST PUSH2 0x23C DUP2 PUSH2 0x222 JUMP JUMPDEST DUP2 EQ PUSH2 0x246 JUMPI PUSH0 DUP1 REVERT JUMPDEST POP JUMP JUMPDEST PUSH0 DUP2 MLOAD SWAP1 POP PUSH2 0x257 DUP2 PUSH2 0x233 JUMP JUMPDEST SWAP3 SWAP2 POP POP JUMP JUMPDEST PUSH0 PUSH1 0x20 DUP3 DUP5 SUB SLT ISZERO PUSH2 0x272 JUMPI PUSH2 0x271 PUSH2 0x1FF JUMP JUMPDEST JUMPDEST PUSH0 PUSH2 0x27F DUP5 DUP3 DUP6 ADD PUSH2 0x249 JUMP JUMPDEST SWAP2 POP POP SWAP3 SWAP2 POP POP JUMP JUMPDEST PUSH2 0xB32 DUP1 PUSH2 0x295 PUSH0 CODECOPY PUSH0 RETURN INVALID PUSH1 0x80 PUSH1 0x40 MSTORE CALLVALUE DUP1 ISZERO PUSH2 0xF JUMPI PUSH0 DUP1 REVERT JUMPDEST POP PUSH1 0x4 CALLDATASIZE LT PUSH2 0x55 JUMPI PUSH0 CALLDATALOAD PUSH1 0xE0 SHR DUP1 PUSH4 0xFDCF877 EQ PUSH2 0x59 JUMPI DUP1 PUSH4 0x4494FD9F EQ PUSH2 0x89 JUMPI DUP1 PUSH4 0x7D03F5F3 EQ PUSH2 0xA7 JUMPI DUP1 PUSH4 0x87CB15F7 EQ PUSH2 0xB1 JUMPI DUP1 PUSH4 0x8B5B9CCC EQ PUSH2 0xE1 JUMPI JUMPDEST PUSH0 DUP1 REVERT JUMPDEST PUSH2 0x73 PUSH1 0x4 DUP1 CALLDATASIZE SUB DUP2 ADD SWAP1 PUSH2 0x6E SWAP2 SWAP1 PUSH2 0x79D JUMP JUMPDEST PUSH2 0xFF JUMP JUMPDEST PUSH1 0x40 MLOAD PUSH2 0x80 SWAP2 SWAP1 PUSH2 0x7D7 JUMP JUMPDEST PUSH1 0x40 MLOAD DUP1 SWAP2 SUB SWAP1 RETURN JUMPDEST PUSH2 0x91 PUSH2 0x29F JUMP JUMPDEST PUSH1 0x40 MLOAD PUSH2 0x9E SWAP2 SWAP1 PUSH2 0x7D7 JUMP JUMPDEST PUSH1 0x40 MLOAD DUP1 SWAP2 SUB SWAP1 RETURN JUMPDEST PUSH2 0xAF PUSH2 0x2A7 JUMP JUMPDEST STOP JUMPDEST PUSH2 0xCB PUSH1 0x4 DUP1 CALLDATASIZE SUB DUP2 ADD SWAP1 PUSH2 0xC6 SWAP2 SWAP1 PUSH2 0x79D JUMP JUMPDEST PUSH2 0x395 JUMP JUMPDEST PUSH1 0x40 MLOAD PUSH2 0xD8 SWAP2 SWAP1 PUSH2 0x7D7 JUMP JUMPDEST PUSH1 0x40 MLOAD DUP1 SWAP2 SUB SWAP1 RETURN JUMPDEST PUSH2 0xE9 PUSH2 0x673 JUMP JUMPDEST PUSH1 0x40 MLOAD PUSH2 0xF6 SWAP2 SWAP1 PUSH2 0x8D7 JUMP JUMPDEST PUSH1 0x40 MLOAD DUP1 SWAP2 SUB SWAP1 RETURN JUMPDEST PUSH0 DUP1 PUSH0 SLOAD SWAP1 POP DUP3 PUSH1 0x3 PUSH1 0x3F PUSH2 0x114 SWAP2 SWAP1 PUSH2 0x951 JUMP JUMPDEST SWAP1 SHL PUSH1 0x3F DUP3 AND SUB PUSH2 0x129 JUMPI PUSH1 0x1 SWAP2 POP POP PUSH2 0x29A JUMP JUMPDEST PUSH1 0x6 DUP4 PUSH1 0x3 PUSH1 0x3F PUSH2 0x13A SWAP2 SWAP1 PUSH2 0x951 JUMP JUMPDEST SWAP1 SHL SWAP1 SHL PUSH1 0x6 PUSH1 0x3F SWAP1 SHL DUP3 AND SUB PUSH2 0x155 JUMPI PUSH1 0x1 SWAP2 POP POP PUSH2 0x29A JUMP JUMPDEST PUSH1 0xC DUP4 PUSH1 0x3 PUSH1 0x3F PUSH2 0x166 SWAP2 SWAP1 PUSH2 0x951 JUMP JUMPDEST SWAP1 SHL SWAP1 SHL PUSH1 0xC PUSH1 0x3F SWAP1 SHL DUP3 AND SUB PUSH2 0x181 JUMPI PUSH1 0x1 SWAP2 POP POP PUSH2 0x29A JUMP JUMPDEST DUP3 PUSH1 0x3 PUSH2 0x30C3 PUSH2 0x191 SWAP2 SWAP1 PUSH2 0x951 JUMP JUMPDEST SWAP1 SHL PUSH2 0x30C3 DUP3 AND SUB PUSH2 0x1A7 JUMPI PUSH1 0x1 SWAP2 POP POP PUSH2 0x29A JUMP JUMPDEST PUSH1 0x2 DUP4 PUSH1 0x3 PUSH2 0x30C3 PUSH2 0x1B9 SWAP2 SWAP1 PUSH2 0x951 JUMP JUMPDEST SWAP1 SHL SWAP1 SHL PUSH1 0x2 PUSH2 0x30C3 SWAP1 SHL DUP3 AND SUB PUSH2 0x1D5 JUMPI PUSH1 0x1 SWAP2 POP POP PUSH2 0x29A JUMP JUMPDEST PUSH1 0x4 DUP4 PUSH1 0x3 PUSH2 0x30C3 PUSH2 0x1E7 SWAP2 SWAP1 PUSH2 0x951 JUMP JUMPDEST SWAP1 SHL SWAP1 SHL PUSH1 0x4 PUSH2 0x30C3 SWAP1 SHL DUP3 AND SUB PUSH2 0x203 JUMPI PUSH1 0x1 SWAP2 POP POP PUSH2 0x29A JUMP JUMPDEST DUP3 PUSH1 0x3 PUSH3 0x30303 PUSH2 0x214 SWAP2 SWAP1 PUSH2 0x951 JUMP JUMPDEST SWAP1 SHL PUSH3 0x30303 DUP3 AND SUB PUSH2 0x22B JUMPI PUSH1 0x1 SWAP2 POP POP PUSH2 0x29A JUMP JUMPDEST DUP3 PUSH1 0x3 PUSH2 0x3330 PUSH2 0x23B SWAP2 SWAP1 PUSH2 0x951 JUMP JUMPDEST SWAP1 SHL PUSH2 0x3330 DUP3 AND SUB PUSH2 0x251 JUMPI PUSH1 0x1 SWAP2 POP POP PUSH2 0x29A JUMP JUMPDEST PUSH0 JUMPDEST PUSH1 0x9 DUP2 LT ISZERO PUSH2 0x293 JUMPI PUSH0 PUSH1 0x1 DUP4 AND EQ DUP1 ISZERO PUSH2 0x270 JUMPI POP PUSH0 PUSH1 0x2 DUP4 AND EQ JUMPDEST ISZERO PUSH2 0x27F JUMPI PUSH0 SWAP3 POP POP POP PUSH2 0x29A JUMP JUMPDEST PUSH1 0x2 DUP3 SWAP1 SHR SWAP2 POP DUP1 DUP1 PUSH1 0x1 ADD SWAP2 POP POP PUSH2 0x253 JUMP JUMPDEST POP PUSH1 0x2 SWAP2 POP POP JUMPDEST SWAP2 SWAP1 POP JUMP JUMPDEST PUSH0 DUP1 SLOAD SWAP1 POP SWAP1 JUMP JUMPDEST CALLER PUSH1 0x1 PUSH0 SWAP1 SLOAD SWAP1 PUSH2 0x100 EXP SWAP1 DIV PUSH20 0xFFFFFFFFFFFFFFFFFFFFFFFFFFFFFFFFFFFFFFFF AND PUSH20 0xFFFFFFFFFFFFFFFFFFFFFFFFFFFFFFFFFFFFFFFF AND DUP2 PUSH20 0xFFFFFFFFFFFFFFFFFFFFFFFFFFFFFFFFFFFFFFFF AND EQ ISZERO DUP1 ISZERO PUSH2 0x352 JUMPI POP PUSH1 0x2 PUSH0 SWAP1 SLOAD SWAP1 PUSH2 0x100 EXP SWAP1 DIV PUSH20 0xFFFFFFFFFFFFFFFFFFFFFFFFFFFFFFFFFFFFFFFF AND PUSH20 0xFFFFFFFFFFFFFFFFFFFFFFFFFFFFFFFFFFFFFFFF AND DUP2 PUSH20 0xFFFFFFFFFFFFFFFFFFFFFFFFFFFFFFFFFFFFFFFF AND EQ ISZERO JUMPDEST ISZERO PUSH2 0x389 JUMPI PUSH1 0x40 MLOAD PUSH32 0x82B4290000000000000000000000000000000000000000000000000000000000 DUP2 MSTORE PUSH1 0x4 ADD PUSH1 0x40 MLOAD DUP1 SWAP2 SUB SWAP1 REVERT JUMPDEST PUSH3 0x100000 PUSH0 DUP2 SWAP1 SSTORE POP POP JUMP JUMPDEST PUSH0 CALLER PUSH1 0x1 PUSH0 SWAP1 SLOAD SWAP1 PUSH2 0x100 EXP SWAP1 DIV PUSH20 0xFFFFFFFFFFFFFFFFFFFFFFFFFFFFFFFFFFFFFFFF AND PUSH20 0xFFFFFFFFFFFFFFFFFFFFFFFFFFFFFFFFFFFFFFFF AND DUP2 PUSH20 0xFFFFFFFFFFFFFFFFFFFFFFFFFFFFFFFFFFFFFFFF AND EQ ISZERO DUP1 ISZERO PUSH2 0x441 JUMPI POP PUSH1 0x2 PUSH0 SWAP1 SLOAD SWAP1 PUSH2 0x100 EXP SWAP1 DIV PUSH20 0xFFFFFFFFFFFFFFFFFFFFFFFFFFFFFFFFFFFFFFFF AND PUSH20 0xFFFFFFFFFFFFFFFFFFFFFFFFFFFFFFFFFFFFFFFF AND DUP2 PUSH20 0xFFFFFFFFFFFFFFFFFFFFFFFFFFFFFFFFFFFFFFFF AND EQ ISZERO JUMPDEST ISZERO PUSH2 0x478 JUMPI PUSH1 0x40 MLOAD PUSH32 0x82B4290000000000000000000000000000000000000000000000000000000000 DUP2 MSTORE PUSH1 0x4 ADD PUSH1 0x40 MLOAD DUP1 SWAP2 SUB SWAP1 REVERT JUMPDEST CALLER PUSH2 0x482 DUP2 PUSH2 0x6FE JUMP JUMPDEST PUSH1 0x1 PUSH1 0x12 PUSH0 SLOAD SWAP1 SHR AND EQ PUSH2 0x4CB JUMPI PUSH1 0x40 MLOAD PUSH32 0x8C379A000000000000000000000000000000000000000000000000000000000 DUP2 MSTORE PUSH1 0x4 ADD PUSH2 0x4C2 SWAP1 PUSH2 0x9DB JUMP JUMPDEST PUSH1 0x40 MLOAD DUP1 SWAP2 SUB SWAP1 REVERT JUMPDEST DUP4 PUSH0 PUSH1 0x1 DUP3 SWAP1 SHL SWAP1 POP PUSH0 PUSH1 0x1 DUP3 PUSH2 0x4E2 SWAP2 SWAP1 PUSH2 0x9F9 JUMP JUMPDEST SWAP1 POP PUSH0 DUP1 SLOAD SWAP1 POP PUSH1 0x1 DUP1 DUP5 DUP4 SWAP1 SHR AND EQ DUP1 PUSH2 0x502 JUMPI POP PUSH1 0x1 DUP1 DUP4 DUP4 SWAP1 SHR AND EQ JUMPDEST ISZERO PUSH2 0x542 JUMPI PUSH1 0x40 MLOAD PUSH32 0x8C379A000000000000000000000000000000000000000000000000000000000 DUP2 MSTORE PUSH1 0x4 ADD PUSH2 0x539 SWAP1 PUSH2 0xA76 JUMP JUMPDEST PUSH1 0x40 MLOAD DUP1 SWAP2 SUB SWAP1 REVERT JUMPDEST PUSH1 0x9 DUP5 LT PUSH2 0x585 JUMPI PUSH1 0x40 MLOAD PUSH32 0x8C379A000000000000000000000000000000000000000000000000000000000 DUP2 MSTORE PUSH1 0x4 ADD PUSH2 0x57C SWAP1 PUSH2 0xA76 JUMP JUMPDEST PUSH1 0x40 MLOAD DUP1 SWAP2 SUB SWAP1 REVERT JUMPDEST PUSH0 DUP1 SLOAD SWAP1 POP PUSH0 PUSH1 0x1 PUSH1 0x13 DUP4 SWAP1 SHR AND EQ DUP1 ISZERO PUSH2 0x5A6 JUMPI POP PUSH1 0x1 DUP1 PUSH1 0x14 DUP4 SWAP1 SHR AND EQ JUMPDEST PUSH2 0x5E5 JUMPI PUSH1 0x40 MLOAD PUSH32 0x8C379A000000000000000000000000000000000000000000000000000000000 DUP2 MSTORE PUSH1 0x4 ADD PUSH2 0x5DC SWAP1 PUSH2 0xADE JUMP JUMPDEST PUSH1 0x40 MLOAD DUP1 SWAP2 SUB SWAP1 REVERT JUMPDEST PUSH0 PUSH2 0x5EF CALLER PUSH2 0x6FE JUMP JUMPDEST SWAP1 POP DUP1 PUSH1 0x1 DUP12 SWAP1 SHL PUSH2 0x601 SWAP2 SWAP1 PUSH2 0x9F9 JUMP JUMPDEST PUSH1 0x1 SWAP1 SHL DUP3 XOR SWAP2 POP PUSH3 0x40000 DUP3 XOR PUSH0 DUP2 SWAP1 SSTORE POP PUSH0 PUSH2 0x61E DUP3 PUSH2 0xFF JUMP JUMPDEST SWAP1 POP PUSH1 0x1 DUP2 SUB PUSH2 0x64D JUMPI DUP2 PUSH1 0x13 PUSH2 0x635 SWAP2 SWAP1 PUSH2 0x9F9 JUMP JUMPDEST PUSH1 0x1 SWAP1 SHL PUSH0 SLOAD XOR PUSH0 DUP2 SWAP1 SSTORE POP PUSH1 0x1 SWAP10 POP POP POP POP PUSH2 0x668 JUMP JUMPDEST PUSH1 0x2 DUP2 SUB PUSH2 0x661 JUMPI PUSH1 0x2 SWAP10 POP POP POP POP PUSH2 0x668 JUMP JUMPDEST PUSH0 SWAP10 POP POP POP POP JUMPDEST POP POP POP POP POP POP SWAP2 SWAP1 POP JUMP JUMPDEST PUSH1 0x60 PUSH1 0x3 DUP1 SLOAD DUP1 PUSH1 0x20 MUL PUSH1 0x20 ADD PUSH1 0x40 MLOAD SWAP1 DUP2 ADD PUSH1 0x40 MSTORE DUP1 SWAP3 SWAP2 SWAP1 DUP2 DUP2 MSTORE PUSH1 0x20 ADD DUP3 DUP1 SLOAD DUP1 ISZERO PUSH2 0x6F4 JUMPI PUSH1 0x20 MUL DUP3 ADD SWAP2 SWAP1 PUSH0 MSTORE PUSH1 0x20 PUSH0 KECCAK256 SWAP1 JUMPDEST DUP2 PUSH0 SWAP1 SLOAD SWAP1 PUSH2 0x100 EXP SWAP1 DIV PUSH20 0xFFFFFFFFFFFFFFFFFFFFFFFFFFFFFFFFFFFFFFFF AND PUSH20 0xFFFFFFFFFFFFFFFFFFFFFFFFFFFFFFFFFFFFFFFF AND DUP2 MSTORE PUSH1 0x20 ADD SWAP1 PUSH1 0x1 ADD SWAP1 DUP1 DUP4 GT PUSH2 0x6AB JUMPI JUMPDEST POP POP POP POP POP SWAP1 POP SWAP1 JUMP JUMPDEST PUSH0 PUSH1 0x1 PUSH0 SWAP1 SLOAD SWAP1 PUSH2 0x100 EXP SWAP1 DIV PUSH20 0xFFFFFFFFFFFFFFFFFFFFFFFFFFFFFFFFFFFFFFFF AND PUSH20 0xFFFFFFFFFFFFFFFFFFFFFFFFFFFFFFFFFFFFFFFF AND DUP3 PUSH20 0xFFFFFFFFFFFFFFFFFFFFFFFFFFFFFFFFFFFFFFFF AND EQ PUSH2 0x75A JUMPI PUSH1 0x1 PUSH2 0x75C JUMP JUMPDEST PUSH0 JUMPDEST PUSH1 0xFF AND SWAP1 POP SWAP2 SWAP1 POP JUMP JUMPDEST PUSH0 DUP1 REVERT JUMPDEST PUSH0 DUP2 SWAP1 POP SWAP2 SWAP1 POP JUMP JUMPDEST PUSH2 0x77C DUP2 PUSH2 0x76A JUMP JUMPDEST DUP2 EQ PUSH2 0x786 JUMPI PUSH0 DUP1 REVERT JUMPDEST POP JUMP JUMPDEST PUSH0 DUP2 CALLDATALOAD SWAP1 POP PUSH2 0x797 DUP2 PUSH2 0x773 JUMP JUMPDEST SWAP3 SWAP2 POP POP JUMP JUMPDEST PUSH0 PUSH1 0x20 DUP3 DUP5 SUB SLT ISZERO PUSH2 0x7B2 JUMPI PUSH2 0x7B1 PUSH2 0x766 JUMP JUMPDEST JUMPDEST PUSH0 PUSH2 0x7BF DUP5 DUP3 DUP6 ADD PUSH2 0x789 JUMP JUMPDEST SWAP2 POP POP SWAP3 SWAP2 POP POP JUMP JUMPDEST PUSH2 0x7D1 DUP2 PUSH2 0x76A JUMP JUMPDEST DUP3 MSTORE POP POP JUMP JUMPDEST PUSH0 PUSH1 0x20 DUP3 ADD SWAP1 POP PUSH2 0x7EA PUSH0 DUP4 ADD DUP5 PUSH2 0x7C8 JUMP JUMPDEST SWAP3 SWAP2 POP POP JUMP JUMPDEST PUSH0 DUP2 MLOAD SWAP1 POP SWAP2 SWAP1 POP JUMP JUMPDEST PUSH0 DUP3 DUP3 MSTORE PUSH1 0x20 DUP3 ADD SWAP1 POP SWAP3 SWAP2 POP POP JUMP JUMPDEST PUSH0 DUP2 SWAP1 POP PUSH1 0x20 DUP3 ADD SWAP1 POP SWAP2 SWAP1 POP JUMP JUMPDEST PUSH0 PUSH20 0xFFFFFFFFFFFFFFFFFFFFFFFFFFFFFFFFFFFFFFFF DUP3 AND SWAP1 POP SWAP2 SWAP1 POP JUMP JUMPDEST PUSH0 PUSH2 0x842 DUP3 PUSH2 0x819 JUMP JUMPDEST SWAP1 POP SWAP2 SWAP1 POP JUMP JUMPDEST PUSH2 0x852 DUP2 PUSH2 0x838 JUMP JUMPDEST DUP3 MSTORE POP POP JUMP JUMPDEST PUSH0 PUSH2 0x863 DUP4 DUP4 PUSH2 0x849 JUMP JUMPDEST PUSH1 0x20 DUP4 ADD SWAP1 POP SWAP3 SWAP2 POP POP JUMP JUMPDEST PUSH0 PUSH1 0x20 DUP3 ADD SWAP1 POP SWAP2 SWAP1 POP JUMP JUMPDEST PUSH0 PUSH2 0x885 DUP3 PUSH2 0x7F0 JUMP JUMPDEST PUSH2 0x88F DUP2 DUP6 PUSH2 0x7FA JUMP JUMPDEST SWAP4 POP PUSH2 0x89A DUP4 PUSH2 0x80A JUMP JUMPDEST DUP1 PUSH0 JUMPDEST DUP4 DUP2 LT ISZERO PUSH2 0x8CA JUMPI DUP2 MLOAD PUSH2 0x8B1 DUP9 DUP3 PUSH2 0x858 JUMP JUMPDEST SWAP8 POP PUSH2 0x8BC DUP4 PUSH2 0x86F JUMP JUMPDEST SWAP3 POP POP PUSH1 0x1 DUP2 ADD SWAP1 POP PUSH2 0x89D JUMP JUMPDEST POP DUP6 SWAP4 POP POP POP POP SWAP3 SWAP2 POP POP JUMP JUMPDEST PUSH0 PUSH1 0x20 DUP3 ADD SWAP1 POP DUP2 DUP2 SUB PUSH0 DUP4 ADD MSTORE PUSH2 0x8EF DUP2 DUP5 PUSH2 0x87B JUMP JUMPDEST SWAP1 POP SWAP3 SWAP2 POP POP JUMP JUMPDEST PUSH32 0x4E487B7100000000000000000000000000000000000000000000000000000000 PUSH0 MSTORE PUSH1 0x12 PUSH1 0x4 MSTORE PUSH1 0x24 PUSH0 REVERT JUMPDEST PUSH32 0x4E487B7100000000000000000000000000000000000000000000000000000000 PUSH0 MSTORE PUSH1 0x11 PUSH1 0x4 MSTORE PUSH1 0x24 PUSH0 REVERT JUMPDEST PUSH0 PUSH2 0x95B DUP3 PUSH2 0x76A JUMP JUMPDEST SWAP2 POP PUSH2 0x966 DUP4 PUSH2 0x76A JUMP JUMPDEST SWAP3 POP DUP3 PUSH2 0x976 JUMPI PUSH2 0x975 PUSH2 0x8F7 JUMP JUMPDEST JUMPDEST DUP3 DUP3 DIV SWAP1 POP SWAP3 SWAP2 POP POP JUMP JUMPDEST PUSH0 DUP3 DUP3 MSTORE PUSH1 0x20 DUP3 ADD SWAP1 POP SWAP3 SWAP2 POP POP JUMP JUMPDEST PUSH32 0x4E6F7420796F7572207475726E00000000000000000000000000000000000000 PUSH0 DUP3 ADD MSTORE POP JUMP JUMPDEST PUSH0 PUSH2 0x9C5 PUSH1 0xD DUP4 PUSH2 0x981 JUMP JUMPDEST SWAP2 POP PUSH2 0x9D0 DUP3 PUSH2 0x991 JUMP JUMPDEST PUSH1 0x20 DUP3 ADD SWAP1 POP SWAP2 SWAP1 POP JUMP JUMPDEST PUSH0 PUSH1 0x20 DUP3 ADD SWAP1 POP DUP2 DUP2 SUB PUSH0 DUP4 ADD MSTORE PUSH2 0x9F2 DUP2 PUSH2 0x9B9 JUMP JUMPDEST SWAP1 POP SWAP2 SWAP1 POP JUMP JUMPDEST PUSH0 PUSH2 0xA03 DUP3 PUSH2 0x76A JUMP JUMPDEST SWAP2 POP PUSH2 0xA0E DUP4 PUSH2 0x76A JUMP JUMPDEST SWAP3 POP DUP3 DUP3 ADD SWAP1 POP DUP1 DUP3 GT ISZERO PUSH2 0xA26 JUMPI PUSH2 0xA25 PUSH2 0x924 JUMP JUMPDEST JUMPDEST SWAP3 SWAP2 POP POP JUMP JUMPDEST PUSH32 0x696E76616C6964206D6F76650000000000000000000000000000000000000000 PUSH0 DUP3 ADD MSTORE POP JUMP JUMPDEST PUSH0 PUSH2 0xA60 PUSH1 0xC DUP4 PUSH2 0x981 JUMP JUMPDEST SWAP2 POP PUSH2 0xA6B DUP3 PUSH2 0xA2C JUMP JUMPDEST PUSH1 0x20 DUP3 ADD SWAP1 POP SWAP2 SWAP1 POP JUMP JUMPDEST PUSH0 PUSH1 0x20 DUP3 ADD SWAP1 POP DUP2 DUP2 SUB PUSH0 DUP4 ADD MSTORE PUSH2 0xA8D DUP2 PUSH2 0xA54 JUMP JUMPDEST SWAP1 POP SWAP2 SWAP1 POP JUMP JUMPDEST PUSH32 0x47616D652068617320656E646564000000000000000000000000000000000000 PUSH0 DUP3 ADD MSTORE POP JUMP JUMPDEST PUSH0 PUSH2 0xAC8 PUSH1 0xE DUP4 PUSH2 0x981 JUMP JUMPDEST SWAP2 POP PUSH2 0xAD3 DUP3 PUSH2 0xA94 JUMP JUMPDEST PUSH1 0x20 DUP3 ADD SWAP1 POP SWAP2 SWAP1 POP JUMP JUMPDEST PUSH0 PUSH1 0x20 DUP3 ADD SWAP1 POP DUP2 DUP2 SUB PUSH0 DUP4 ADD MSTORE PUSH2 0xAF5 DUP2 PUSH2 0xABC JUMP JUMPDEST SWAP1 POP SWAP2 SWAP1 POP JUMP INVALID LOG2 PUSH5 0x6970667358 0x22 SLT KECCAK256 PUSH10 0xD0CC605A9965CF10A8A8 SWAP7 0xDD ADDMOD 0x4B STATICCALL GAS PUSH26 0x9D5E72D2C2790CA52270836F814364736F6C6343000816003300 "
				},
				"gasEstimates": {
					"creation": {
						"codeDepositCost": "573200",
						"executionCost": "infinite",
						"totalCost": "infinite"
					},
					"external": {
						"checkState(uint256)": "infinite",
						"getGame()": "2432",
						"getPlayers()": "infinite",
						"move(uint256)": "infinite",
						"newGame()": "26639"
					},
					"internal": {
						"playerId(address)": "2214"
					}
				},
				"methodIdentifiers": {
					"checkState(uint256)": "0fdcf877",
					"getGame()": "4494fd9f",
					"getPlayers()": "8b5b9ccc",
					"move(uint256)": "87cb15f7",
					"newGame()": "7d03f5f3"
				}
			},
			"storageLayout": {
				"storage": [
					{
						"astId": 7,
						"contract": "Tictactoe.sol:Tictactoe",
						"label": "gameBoard",
						"offset": 0,
						"slot": "0",
						"type": "t_uint256"
					},
					{
						"astId": 21,
						"contract": "Tictactoe.sol:Tictactoe",
						"label": "playerOne",
						"offset": 0,
						"slot": "1",
						"type": "t_address"
					},
					{
						"astId": 23,
						"contract": "Tictactoe.sol:Tictactoe",
						"label": "playerTwo",
						"offset": 0,
						"slot": "2",
						"type": "t_address"
					},
					{
						"astId": 26,
						"contract": "Tictactoe.sol:Tictactoe",
						"label": "players",
						"offset": 0,
						"slot": "3",
						"type": "t_array(t_address)dyn_storage"
					}
				],
				"types": {
					"t_address": {
						"encoding": "inplace",
						"label": "address",
						"numberOfBytes": "20"
					},
					"t_array(t_address)dyn_storage": {
						"base": "t_address",
						"encoding": "dynamic_array",
						"label": "address[]",
						"numberOfBytes": "32"
					},
					"t_uint256": {
						"encoding": "inplace",
						"label": "uint256",
						"numberOfBytes": "32"
					}
				}
			},
			"userdoc": {
				"kind": "user",
				"methods": {
					"move(uint256)": {
						"notice": "Adding move to the game board"
					},
					"newGame()": {
						"notice": "a new game is created by appending 21bits to the current board"
					}
				},
				"version": 1
			}
		}
	}
}