{
	"data": {
		"bytecode": {
			"linkReferences": {},
			"object": "60806040525f8055348015610012575f80fd5b50604051610dc7380380610dc78339818101604052810190610034919061025d565b5f73ffffffffffffffffffffffffffffffffffffffff168173ffffffffffffffffffffffffffffffffffffffff160361006b575f80fd5b3360015f6101000a81548173ffffffffffffffffffffffffffffffffffffffff021916908373ffffffffffffffffffffffffffffffffffffffff1602179055508060025f6101000a81548173ffffffffffffffffffffffffffffffffffffffff021916908373ffffffffffffffffffffffffffffffffffffffff160217905550600360015f9054906101000a900473ffffffffffffffffffffffffffffffffffffffff16908060018154018082558091505060019003905f5260205f20015f9091909190916101000a81548173ffffffffffffffffffffffffffffffffffffffff021916908373ffffffffffffffffffffffffffffffffffffffff160217905550600360025f9054906101000a900473ffffffffffffffffffffffffffffffffffffffff16908060018154018082558091505060019003905f5260205f20015f9091909190916101000a81548173ffffffffffffffffffffffffffffffffffffffff021916908373ffffffffffffffffffffffffffffffffffffffff160217905550621000005f54175f8190555050610288565b5f80fd5b5f73ffffffffffffffffffffffffffffffffffffffff82169050919050565b5f61022c82610203565b9050919050565b61023c81610222565b8114610246575f80fd5b50565b5f8151905061025781610233565b92915050565b5f60208284031215610272576102716101ff565b5b5f61027f84828501610249565b91505092915050565b610b32806102955f395ff3fe608060405234801561000f575f80fd5b5060043610610055575f3560e01c80630fdcf877146100595780634494fd9f146100895780637d03f5f3146100a757806387cb15f7146100b15780638b5b9ccc146100e1575b5f80fd5b610073600480360381019061006e919061079d565b6100ff565b60405161008091906107d7565b60405180910390f35b61009161029f565b60405161009e91906107d7565b60405180910390f35b6100af6102a7565b005b6100cb60048036038101906100c6919061079d565b610395565b6040516100d891906107d7565b60405180910390f35b6100e9610673565b6040516100f691906108d7565b60405180910390f35b5f805f549050826003603f6101149190610951565b901b603f82160361012957600191505061029a565b6006836003603f61013a9190610951565b901b901b6006603f901b82160361015557600191505061029a565b600c836003603f6101669190610951565b901b901b600c603f901b82160361018157600191505061029a565b8260036130c36101919190610951565b901b6130c38216036101a757600191505061029a565b60028360036130c36101b99190610951565b901b901b60026130c3901b8216036101d557600191505061029a565b60048360036130c36101e79190610951565b901b901b60046130c3901b82160361020357600191505061029a565b826003620303036102149190610951565b901b6203030382160361022b57600191505061029a565b82600361333061023b9190610951565b901b61333082160361025157600191505061029a565b5f5b6009811015610293575f6001831614801561027057505f60028316145b1561027f575f9250505061029a565b600282901c91508080600101915050610253565b5060029150505b919050565b5f8054905090565b3360015f9054906101000a900473ffffffffffffffffffffffffffffffffffffffff1673ffffffffffffffffffffffffffffffffffffffff168173ffffffffffffffffffffffffffffffffffffffff1614158015610352575060025f9054906101000a900473ffffffffffffffffffffffffffffffffffffffff1673ffffffffffffffffffffffffffffffffffffffff168173ffffffffffffffffffffffffffffffffffffffff1614155b15610389576040517f82b4290000000000000000000000000000000000000000000000000000000000815260040160405180910390fd5b621000005f8190555050565b5f3360015f9054906101000a900473ffffffffffffffffffffffffffffffffffffffff1673ffffffffffffffffffffffffffffffffffffffff168173ffffffffffffffffffffffffffffffffffffffff1614158015610441575060025f9054906101000a900473ffffffffffffffffffffffffffffffffffffffff1673ffffffffffffffffffffffffffffffffffffffff168173ffffffffffffffffffffffffffffffffffffffff1614155b15610478576040517f82b4290000000000000000000000000000000000000000000000000000000000815260040160405180910390fd5b33610482816106fe565b600160125f54901c16146104cb576040517f08c379a00000000000000000000000000000000000000000000000000000000081526004016104c2906109db565b60405180910390fd5b835f600182901b90505f6001826104e291906109f9565b90505f805490506001808483901c16148061050257506001808383901c16145b15610542576040517f08c379a000000000000000000000000000000000000000000000000000000000815260040161053990610a76565b60405180910390fd5b60098410610585576040517f08c379a000000000000000000000000000000000000000000000000000000000815260040161057c90610a76565b60405180910390fd5b5f805490505f6001601383901c161480156105a65750600180601483901c16145b6105e5576040517f08c379a00000000000000000000000000000000000000000000000000000000081526004016105dc90610ade565b60405180910390fd5b5f6105ef336106fe565b90508060018b901b61060191906109f9565b6001901b821891506204000082185f819055505f61061e826100ff565b90506001810361064d5781601361063591906109f9565b6001901b5f54185f8190555060019950505050610668565b600281036106615760029950505050610668565b5f99505050505b505050505050919050565b606060038054806020026020016040519081016040528092919081815260200182805480156106f457602002820191905f5260205f20905b815f9054906101000a900473ffffffffffffffffffffffffffffffffffffffff1673ffffffffffffffffffffffffffffffffffffffff16815260200190600101908083116106ab575b5050505050905090565b5f60015f9054906101000a900473ffffffffffffffffffffffffffffffffffffffff1673ffffffffffffffffffffffffffffffffffffffff168273ffffffffffffffffffffffffffffffffffffffff161461075a57600161075c565b5f5b60ff169050919050565b5f80fd5b5f819050919050565b61077c8161076a565b8114610786575f80fd5b50565b5f8135905061079781610773565b92915050565b5f602082840312156107b2576107b1610766565b5b5f6107bf84828501610789565b91505092915050565b6107d18161076a565b82525050565b5f6020820190506107ea5f8301846107c8565b92915050565b5f81519050919050565b5f82825260208201905092915050565b5f819050602082019050919050565b5f73ffffffffffffffffffffffffffffffffffffffff82169050919050565b5f61084282610819565b9050919050565b61085281610838565b82525050565b5f6108638383610849565b60208301905092915050565b5f602082019050919050565b5f610885826107f0565b61088f81856107fa565b935061089a8361080a565b805f5b838110156108ca5781516108b18882610858565b97506108bc8361086f565b92505060018101905061089d565b5085935050505092915050565b5f6020820190508181035f8301526108ef818461087b565b905092915050565b7f4e487b71000000000000000000000000000000000000000000000000000000005f52601260045260245ffd5b7f4e487b71000000000000000000000000000000000000000000000000000000005f52601160045260245ffd5b5f61095b8261076a565b91506109668361076a565b925082610976576109756108f7565b5b828204905092915050565b5f82825260208201905092915050565b7f4e6f7420796f7572207475726e000000000000000000000000000000000000005f82015250565b5f6109c5600d83610981565b91506109d082610991565b602082019050919050565b5f6020820190508181035f8301526109f2816109b9565b9050919050565b5f610a038261076a565b9150610a0e8361076a565b9250828201905080821115610a2657610a25610924565b5b92915050565b7f696e76616c6964206d6f766500000000000000000000000000000000000000005f82015250565b5f610a60600c83610981565b9150610a6b82610a2c565b602082019050919050565b5f6020820190508181035f830152610a8d81610a54565b9050919050565b7f47616d652068617320656e6465640000000000000000000000000000000000005f82015250565b5f610ac8600e83610981565b9150610ad382610a94565b602082019050919050565b5f6020820190508181035f830152610af581610abc565b905091905056fea264697066735822122069d0cc605a9965cf10a8a896dd084bfa5a799d5e72d2c2790ca52270836f814364736f6c63430008160033",
			"opcodes": "PUSH1 0x80 PUSH1 0x40 MSTORE PUSH0 DUP1 SSTORE CALLVALUE DUP1 ISZERO PUSH2 0x12 JUMPI PUSH0 DUP1 REVERT JUMPDEST POP PUSH1 0x40 MLOAD PUSH2 0xDC7 CODESIZE SUB DUP1 PUSH2 0xDC7 DUP4 CODECOPY DUP2 DUP2 ADD PUSH1 0x40 MSTORE DUP2 ADD SWAP1 PUSH2 0x34 SWAP2 SWAP1 PUSH2 0x25D JUMP JUMPDEST PUSH0 PUSH20 0xFFFFFFFFFFFFFFFFFFFFFFFFFFFFFFFFFFFFFFFF AND DUP2 PUSH20 0xFFFFFFFFFFFFFFFFFFFFFFFFFFFFFFFFFFFFFFFF AND SUB PUSH2 0x6B JUMPI PUSH0 DUP1 REVERT JUMPDEST CALLER PUSH1 0x1 PUSH0 PUSH2 0x100 EXP DUP2 SLOAD DUP2 PUSH20 0xFFFFFFFFFFFFFFFFFFFFFFFFFFFFFFFFFFFFFFFF MUL NOT AND SWAP1 DUP4 PUSH20 0xFFFFFFFFFFFFFFFFFFFFFFFFFFFFFFFFFFFFFFFF AND MUL OR SWAP1 SSTORE POP DUP1 PUSH1 0x2 PUSH0 PUSH2 0x100 EXP DUP2 SLOAD DUP2 PUSH20 0xFFFFFFFFFFFFFFFFFFFFFFFFFFFFFFFFFFFFFFFF MUL NOT AND SWAP1 DUP4 PUSH20 0xFFFFFFFFFFFFFFFFFFFFFFFFFFFFFFFFFFFFFFFF AND MUL OR SWAP1 SSTORE POP PUSH1 0x3 PUSH1 0x1 PUSH0 SWAP1 SLOAD SWAP1 PUSH2 0x100 EXP SWAP1 DIV PUSH20 0xFFFFFFFFFFFFFFFFFFFFFFFFFFFFFFFFFFFFFFFF AND SWAP1 DUP1 PUSH1 0x1 DUP2 SLOAD ADD DUP1 DUP3 SSTORE DUP1 SWAP2 POP POP PUSH1 0x1 SWAP1 SUB SWAP1 PUSH0 MSTORE PUSH1 0x20 PUSH0 KECCAK256 ADD PUSH0 SWAP1 SWAP2 SWAP1 SWAP2 SWAP1 SWAP2 PUSH2 0x100 EXP DUP2 SLOAD DUP2 PUSH20 0xFFFFFFFFFFFFFFFFFFFFFFFFFFFFFFFFFFFFFFFF MUL NOT AND SWAP1 DUP4 PUSH20 0xFFFFFFFFFFFFFFFFFFFFFFFFFFFFFFFFFFFFFFFF AND MUL OR SWAP1 SSTORE POP PUSH1 0x3 PUSH1 0x2 PUSH0 SWAP1 SLOAD SWAP1 PUSH2 0x100 EXP SWAP1 DIV PUSH20 0xFFFFFFFFFFFFFFFFFFFFFFFFFFFFFFFFFFFFFFFF AND SWAP1 DUP1 PUSH1 0x1 DUP2 SLOAD ADD DUP1 DUP3 SSTORE DUP1 SWAP2 POP POP PUSH1 0x1 SWAP1 SUB SWAP1 PUSH0 MSTORE PUSH1 0x20 PUSH0 KECCAK256 ADD PUSH0 SWAP1 SWAP2 SWAP1 SWAP2 SWAP1 SWAP2 PUSH2 0x100 EXP DUP2 SLOAD DUP2 PUSH20 0xFFFFFFFFFFFFFFFFFFFFFFFFFFFFFFFFFFFFFFFF MUL NOT AND SWAP1 DUP4 PUSH20 0xFFFFFFFFFFFFFFFFFFFFFFFFFFFFFFFFFFFFFFFF AND MUL OR SWAP1 SSTORE POP PUSH3 0x100000 PUSH0 SLOAD OR PUSH0 DUP2 SWAP1 SSTORE POP POP PUSH2 0x288 JUMP JUMPDEST PUSH0 DUP1 REVERT JUMPDEST PUSH0 PUSH20 0xFFFFFFFFFFFFFFFFFFFFFFFFFFFFFFFFFFFFFFFF DUP3 AND SWAP1 POP SWAP2 SWAP1 POP JUMP JUMPDEST PUSH0 PUSH2 0x22C DUP3 PUSH2 0x203 JUMP JUMPDEST SWAP1 POP SWAP2 SWAP1 POP JUMP JUMPDEST PUSH2 0x23C DUP2 PUSH2 0x222 JUMP JUMPDEST DUP2 EQ PUSH2 0x246 JUMPI PUSH0 DUP1 REVERT JUMPDEST POP JUMP JUMPDEST PUSH0 DUP2 MLOAD SWAP1 POP PUSH2 0x257 DUP2 PUSH2 0x233 JUMP JUMPDEST SWAP3 SWAP2 POP POP JUMP JUMPDEST PUSH0 PUSH1 0x20 DUP3 DUP5 SUB SLT ISZERO PUSH2 0x272 JUMPI PUSH2 0x271 PUSH2 0x1FF JUMP JUMPDEST JUMPDEST PUSH0 PUSH2 0x27F DUP5 DUP3 DUP6 ADD PUSH2 0x249 JUMP JUMPDEST SWAP2 POP POP SWAP3 SWAP2 POP POP JUMP JUMPDEST PUSH2 0xB32 DUP1 PUSH2 0x295 PUSH0 CODECOPY PUSH0 RETURN INVALID PUSH1 0x80 PUSH1 0x40 MSTORE CALLVALUE DUP1 ISZERO PUSH2 0xF JUMPI PUSH0 DUP1 REVERT JUMPDEST POP PUSH1 0x4 CALLDATASIZE LT PUSH2 0x55 JUMPI PUSH0 CALLDATALOAD PUSH1 0xE0 SHR DUP1 PUSH4 0xFDCF877 EQ PUSH2 0x59 JUMPI DUP1 PUSH4 0x4494FD9F EQ PUSH2 0x89 JUMPI DUP1 PUSH4 0x7D03F5F3 EQ PUSH2 0xA7 JUMPI DUP1 PUSH4 0x87CB15F7 EQ PUSH2 0xB1 JUMPI DUP1 PUSH4 0x8B5B9CCC EQ PUSH2 0xE1 JUMPI JUMPDEST PUSH0 DUP1 REVERT JUMPDEST PUSH2 0x73 PUSH1 0x4 DUP1 CALLDATASIZE SUB DUP2 ADD SWAP1 PUSH2 0x6E SWAP2 SWAP1 PUSH2 0x79D JUMP JUMPDEST PUSH2 0xFF JUMP JUMPDEST PUSH1 0x40 MLOAD PUSH2 0x80 SWAP2 SWAP1 PUSH2 0x7D7 JUMP JUMPDEST PUSH1 0x40 MLOAD DUP1 SWAP2 SUB SWAP1 RETURN JUMPDEST PUSH2 0x91 PUSH2 0x29F JUMP JUMPDEST PUSH1 0x40 MLOAD PUSH2 0x9E SWAP2 SWAP1 PUSH2 0x7D7 JUMP JUMPDEST PUSH1 0x40 MLOAD DUP1 SWAP2 SUB SWAP1 RETURN JUMPDEST PUSH2 0xAF PUSH2 0x2A7 JUMP JUMPDEST STOP JUMPDEST PUSH2 0xCB PUSH1 0x4 DUP1 CALLDATASIZE SUB DUP2 ADD SWAP1 PUSH2 0xC6 SWAP2 SWAP1 PUSH2 0x79D JUMP JUMPDEST PUSH2 0x395 JUMP JUMPDEST PUSH1 0x40 MLOAD PUSH2 0xD8 SWAP2 SWAP1 PUSH2 0x7D7 JUMP JUMPDEST PUSH1 0x40 MLOAD DUP1 SWAP2 SUB SWAP1 RETURN JUMPDEST PUSH2 0xE9 PUSH2 0x673 JUMP JUMPDEST PUSH1 0x40 MLOAD PUSH2 0xF6 SWAP2 SWAP1 PUSH2 0x8D7 JUMP JUMPDEST PUSH1 0x40 MLOAD DUP1 SWAP2 SUB SWAP1 RETURN JUMPDEST PUSH0 DUP1 PUSH0 SLOAD SWAP1 POP DUP3 PUSH1 0x3 PUSH1 0x3F PUSH2 0x114 SWAP2 SWAP1 PUSH2 0x951 JUMP JUMPDEST SWAP1 SHL PUSH1 0x3F DUP3 AND SUB PUSH2 0x129 JUMPI PUSH1 0x1 SWAP2 POP POP PUSH2 0x29A JUMP JUMPDEST PUSH1 0x6 DUP4 PUSH1 0x3 PUSH1 0x3F PUSH2 0x13A SWAP2 SWAP1 PUSH2 0x951 JUMP JUMPDEST SWAP1 SHL SWAP1 SHL PUSH1 0x6 PUSH1 0x3F SWAP1 SHL DUP3 AND SUB PUSH2 0x155 JUMPI PUSH1 0x1 SWAP2 POP POP PUSH2 0x29A JUMP JUMPDEST PUSH1 0xC DUP4 PUSH1 0x3 PUSH1 0x3F PUSH2 0x166 SWAP2 SWAP1 PUSH2 0x951 JUMP JUMPDEST SWAP1 SHL SWAP1 SHL PUSH1 0xC PUSH1 0x3F SWAP1 SHL DUP3 AND SUB PUSH2 0x181 JUMPI PUSH1 0x1 SWAP2 POP POP PUSH2 0x29A JUMP JUMPDEST DUP3 PUSH1 0x3 PUSH2 0x30C3 PUSH2 0x191 SWAP2 SWAP1 PUSH2 0x951 JUMP JUMPDEST SWAP1 SHL PUSH2 0x30C3 DUP3 AND SUB PUSH2 0x1A7 JUMPI PUSH1 0x1 SWAP2 POP POP PUSH2 0x29A JUMP JUMPDEST PUSH1 0x2 DUP4 PUSH1 0x3 PUSH2 0x30C3 PUSH2 0x1B9 SWAP2 SWAP1 PUSH2 0x951 JUMP JUMPDEST SWAP1 SHL SWAP1 SHL PUSH1 0x2 PUSH2 0x30C3 SWAP1 SHL DUP3 AND SUB PUSH2 0x1D5 JUMPI PUSH1 0x1 SWAP2 POP POP PUSH2 0x29A JUMP JUMPDEST PUSH1 0x4 DUP4 PUSH1 0x3 PUSH2 0x30C3 PUSH2 0x1E7 SWAP2 SWAP1 PUSH2 0x951 JUMP JUMPDEST SWAP1 SHL SWAP1 SHL PUSH1 0x4 PUSH2 0x30C3 SWAP1 SHL DUP3 AND SUB PUSH2 0x203 JUMPI PUSH1 0x1 SWAP2 POP POP PUSH2 0x29A JUMP JUMPDEST DUP3 PUSH1 0x3 PUSH3 0x30303 PUSH2 0x214 SWAP2 SWAP1 PUSH2 0x951 JUMP JUMPDEST SWAP1 SHL PUSH3 0x30303 DUP3 AND SUB PUSH2 0x22B JUMPI PUSH1 0x1 SWAP2 POP POP PUSH2 0x29A JUMP JUMPDEST DUP3 PUSH1 0x3 PUSH2 0x3330 PUSH2 0x23B SWAP2 SWAP1 PUSH2 0x951 JUMP JUMPDEST SWAP1 SHL PUSH2 0x3330 DUP3 AND SUB PUSH2 0x251 JUMPI PUSH1 0x1 SWAP2 POP POP PUSH2 0x29A JUMP JUMPDEST PUSH0 JUMPDEST PUSH1 0x9 DUP2 LT ISZERO PUSH2 0x293 JUMPI PUSH0 PUSH1 0x1 DUP4 AND EQ DUP1 ISZERO PUSH2 0x270 JUMPI POP PUSH0 PUSH1 0x2 DUP4 AND EQ JUMPDEST ISZERO PUSH2 0x27F JUMPI PUSH0 SWAP3 POP POP POP PUSH2 0x29A JUMP JUMPDEST PUSH1 0x2 DUP3 SWAP1 SHR SWAP2 POP DUP1 DUP1 PUSH1 0x1 ADD SWAP2 POP POP PUSH2 0x253 JUMP JUMPDEST POP PUSH1 0x2 SWAP2 POP POP JUMPDEST SWAP2 SWAP1 POP JUMP JUMPDEST PUSH0 DUP1 SLOAD SWAP1 POP SWAP1 JUMP JUMPDEST CALLER PUSH1 0x1 PUSH0 SWAP1 SLOAD SWAP1 PUSH2 0x100 EXP SWAP1 DIV PUSH20 0xFFFFFFFFFFFFFFFFFFFFFFFFFFFFFFFFFFFFFFFF AND PUSH20 0xFFFFFFFFFFFFFFFFFFFFFFFFFFFFFFFFFFFFFFFF AND DUP2 PUSH20 0xFFFFFFFFFFFFFFFFFFFFFFFFFFFFFFFFFFFFFFFF AND EQ ISZERO DUP1 ISZERO PUSH2 0x352 JUMPI POP PUSH1 0x2 PUSH0 SWAP1 SLOAD SWAP1 PUSH2 0x100 EXP SWAP1 DIV PUSH20 0xFFFFFFFFFFFFFFFFFFFFFFFFFFFFFFFFFFFFFFFF AND PUSH20 0xFFFFFFFFFFFFFFFFFFFFFFFFFFFFFFFFFFFFFFFF AND DUP2 PUSH20 0xFFFFFFFFFFFFFFFFFFFFFFFFFFFFFFFFFFFFFFFF AND EQ ISZERO JUMPDEST ISZERO PUSH2 0x389 JUMPI PUSH1 0x40 MLOAD PUSH32 0x82B4290000000000000000000000000000000000000000000000000000000000 DUP2 MSTORE PUSH1 0x4 ADD PUSH1 0x40 MLOAD DUP1 SWAP2 SUB SWAP1 REVERT JUMPDEST PUSH3 0x100000 PUSH0 DUP2 SWAP1 SSTORE POP POP JUMP JUMPDEST PUSH0 CALLER PUSH1 0x1 PUSH0 SWAP1 SLOAD SWAP1 PUSH2 0x100 EXP SWAP1 DIV PUSH20 0xFFFFFFFFFFFFFFFFFFFFFFFFFFFFFFFFFFFFFFFF AND PUSH20 0xFFFFFFFFFFFFFFFFFFFFFFFFFFFFFFFFFFFFFFFF AND DUP2 PUSH20 0xFFFFFFFFFFFFFFFFFFFFFFFFFFFFFFFFFFFFFFFF AND EQ ISZERO DUP1 ISZERO PUSH2 0x441 JUMPI POP PUSH1 0x2 PUSH0 SWAP1 SLOAD SWAP1 PUSH2 0x100 EXP SWAP1 DIV PUSH20 0xFFFFFFFFFFFFFFFFFFFFFFFFFFFFFFFFFFFFFFFF AND PUSH20 0xFFFFFFFFFFFFFFFFFFFFFFFFFFFFFFFFFFFFFFFF AND DUP2 PUSH20 0xFFFFFFFFFFFFFFFFFFFFFFFFFFFFFFFFFFFFFFFF AND EQ ISZERO JUMPDEST ISZERO PUSH2 0x478 JUMPI PUSH1 0x40 MLOAD PUSH32 0x82B4290000000000000000000000000000000000000000000000000000000000 DUP2 MSTORE PUSH1 0x4 ADD PUSH1 0x40 MLOAD DUP1 SWAP2 SUB SWAP1 REVERT JUMPDEST CALLER PUSH2 0x482 DUP2 PUSH2 0x6FE JUMP JUMPDEST PUSH1 0x1 PUSH1 0x12 PUSH0 SLOAD SWAP1 SHR AND EQ PUSH2 0x4CB JUMPI PUSH1 0x40 MLOAD PUSH32 0x8C379A000000000000000000000000000000000000000000000000000000000 DUP2 MSTORE PUSH1 0x4 ADD PUSH2 0x4C2 SWAP1 PUSH2 0x9DB JUMP JUMPDEST PUSH1 0x40 MLOAD DUP1 SWAP2 SUB SWAP1 REVERT JUMPDEST DUP4 PUSH0 PUSH1 0x1 DUP3 SWAP1 SHL SWAP1 POP PUSH0 PUSH1 0x1 DUP3 PUSH2 0x4E2 SWAP2 SWAP1 PUSH2 0x9F9 JUMP JUMPDEST SWAP1 POP PUSH0 DUP1 SLOAD SWAP1 POP PUSH1 0x1 DUP1 DUP5 DUP4 SWAP1 SHR AND EQ DUP1 PUSH2 0x502 JUMPI POP PUSH1 0x1 DUP1 DUP4 DUP4 SWAP1 SHR AND EQ JUMPDEST ISZERO PUSH2 0x542 JUMPI PUSH1 0x40 MLOAD PUSH32 0x8C379A000000000000000000000000000000000000000000000000000000000 DUP2 MSTORE PUSH1 0x4 ADD PUSH2 0x539 SWAP1 PUSH2 0xA76 JUMP JUMPDEST PUSH1 0x40 MLOAD DUP1 SWAP2 SUB SWAP1 REVERT JUMPDEST PUSH1 0x9 DUP5 LT PUSH2 0x585 JUMPI PUSH1 0x40 MLOAD PUSH32 0x8C379A000000000000000000000000000000000000000000000000000000000 DUP2 MSTORE PUSH1 0x4 ADD PUSH2 0x57C SWAP1 PUSH2 0xA76 JUMP JUMPDEST PUSH1 0x40 MLOAD DUP1 SWAP2 SUB SWAP1 REVERT JUMPDEST PUSH0 DUP1 SLOAD SWAP1 POP PUSH0 PUSH1 0x1 PUSH1 0x13 DUP4 SWAP1 SHR AND EQ DUP1 ISZERO PUSH2 0x5A6 JUMPI POP PUSH1 0x1 DUP1 PUSH1 0x14 DUP4 SWAP1 SHR AND EQ JUMPDEST PUSH2 0x5E5 JUMPI PUSH1 0x40 MLOAD PUSH32 0x8C379A000000000000000000000000000000000000000000000000000000000 DUP2 MSTORE PUSH1 0x4 ADD PUSH2 0x5DC SWAP1 PUSH2 0xADE JUMP JUMPDEST PUSH1 0x40 MLOAD DUP1 SWAP2 SUB SWAP1 REVERT JUMPDEST PUSH0 PUSH2 0x5EF CALLER PUSH2 0x6FE JUMP JUMPDEST SWAP1 POP DUP1 PUSH1 0x1 DUP12 SWAP1 SHL PUSH2 0x601 SWAP2 SWAP1 PUSH2 0x9F9 JUMP JUMPDEST PUSH1 0x1 SWAP1 SHL DUP3 XOR SWAP2 POP PUSH3 0x40000 DUP3 XOR PUSH0 DUP2 SWAP1 SSTORE POP PUSH0 PUSH2 0x61E DUP3 PUSH2 0xFF JUMP JUMPDEST SWAP1 POP PUSH1 0x1 DUP2 SUB PUSH2 0x64D JUMPI DUP2 PUSH1 0x13 PUSH2 0x635 SWAP2 SWAP1 PUSH2 0x9F9 JUMP JUMPDEST PUSH1 0x1 SWAP1 SHL PUSH0 SLOAD XOR PUSH0 DUP2 SWAP1 SSTORE POP PUSH1 0x1 SWAP10 POP POP POP POP PUSH2 0x668 JUMP JUMPDEST PUSH1 0x2 DUP2 SUB PUSH2 0x661 JUMPI PUSH1 0x2 SWAP10 POP POP POP POP PUSH2 0x668 JUMP JUMPDEST PUSH0 SWAP10 POP POP POP POP JUMPDEST POP POP POP POP POP POP SWAP2 SWAP1 POP JUMP JUMPDEST PUSH1 0x60 PUSH1 0x3 DUP1 SLOAD DUP1 PUSH1 0x20 MUL PUSH1 0x20 ADD PUSH1 0x40 MLOAD SWAP1 DUP2 ADD PUSH1 0x40 MSTORE DUP1 SWAP3 SWAP2 SWAP1 DUP2 DUP2 MSTORE PUSH1 0x20 ADD DUP3 DUP1 SLOAD DUP1 ISZERO PUSH2 0x6F4 JUMPI PUSH1 0x20 MUL DUP3 ADD SWAP2 SWAP1 PUSH0 MSTORE PUSH1 0x20 PUSH0 KECCAK256 SWAP1 JUMPDEST DUP2 PUSH0 SWAP1 SLOAD SWAP1 PUSH2 0x100 EXP SWAP1 DIV PUSH20 0xFFFFFFFFFFFFFFFFFFFFFFFFFFFFFFFFFFFFFFFF AND PUSH20 0xFFFFFFFFFFFFFFFFFFFFFFFFFFFFFFFFFFFFFFFF AND DUP2 MSTORE PUSH1 0x20 ADD SWAP1 PUSH1 0x1 ADD SWAP1 DUP1 DUP4 GT PUSH2 0x6AB JUMPI JUMPDEST POP POP POP POP POP SWAP1 POP SWAP1 JUMP JUMPDEST PUSH0 PUSH1 0x1 PUSH0 SWAP1 SLOAD SWAP1 PUSH2 0x100 EXP SWAP1 DIV PUSH20 0xFFFFFFFFFFFFFFFFFFFFFFFFFFFFFFFFFFFFFFFF AND PUSH20 0xFFFFFFFFFFFFFFFFFFFFFFFFFFFFFFFFFFFFFFFF AND DUP3 PUSH20 0xFFFFFFFFFFFFFFFFFFFFFFFFFFFFFFFFFFFFFFFF AND EQ PUSH2 0x75A JUMPI PUSH1 0x1 PUSH2 0x75C JUMP JUMPDEST PUSH0 JUMPDEST PUSH1 0xFF AND SWAP1 POP SWAP2 SWAP1 POP JUMP JUMPDEST PUSH0 DUP1 REVERT JUMPDEST PUSH0 DUP2 SWAP1 POP SWAP2 SWAP1 POP JUMP JUMPDEST PUSH2 0x77C DUP2 PUSH2 0x76A JUMP JUMPDEST DUP2 EQ PUSH2 0x786 JUMPI PUSH0 DUP1 REVERT JUMPDEST POP JUMP JUMPDEST PUSH0 DUP2 CALLDATALOAD SWAP1 POP PUSH2 0x797 DUP2 PUSH2 0x773 JUMP JUMPDEST SWAP3 SWAP2 POP POP JUMP JUMPDEST PUSH0 PUSH1 0x20 DUP3 DUP5 SUB SLT ISZERO PUSH2 0x7B2 JUMPI PUSH2 0x7B1 PUSH2 0x766 JUMP JUMPDEST JUMPDEST PUSH0 PUSH2 0x7BF DUP5 DUP3 DUP6 ADD PUSH2 0x789 JUMP JUMPDEST SWAP2 POP POP SWAP3 SWAP2 POP POP JUMP JUMPDEST PUSH2 0x7D1 DUP2 PUSH2 0x76A JUMP JUMPDEST DUP3 MSTORE POP POP JUMP JUMPDEST PUSH0 PUSH1 0x20 DUP3 ADD SWAP1 POP PUSH2 0x7EA PUSH0 DUP4 ADD DUP5 PUSH2 0x7C8 JUMP JUMPDEST SWAP3 SWAP2 POP POP JUMP JUMPDEST PUSH0 DUP2 MLOAD SWAP1 POP SWAP2 SWAP1 POP JUMP JUMPDEST PUSH0 DUP3 DUP3 MSTORE PUSH1 0x20 DUP3 ADD SWAP1 POP SWAP3 SWAP2 POP POP JUMP JUMPDEST PUSH0 DUP2 SWAP1 POP PUSH1 0x20 DUP3 ADD SWAP1 POP SWAP2 SWAP1 POP JUMP JUMPDEST PUSH0 PUSH20 0xFFFFFFFFFFFFFFFFFFFFFFFFFFFFFFFFFFFFFFFF DUP3 AND SWAP1 POP SWAP2 SWAP1 POP JUMP JUMPDEST PUSH0 PUSH2 0x842 DUP3 PUSH2 0x819 JUMP JUMPDEST SWAP1 POP SWAP2 SWAP1 POP JUMP JUMPDEST PUSH2 0x852 DUP2 PUSH2 0x838 JUMP JUMPDEST DUP3 MSTORE POP POP JUMP JUMPDEST PUSH0 PUSH2 0x863 DUP4 DUP4 PUSH2 0x849 JUMP JUMPDEST PUSH1 0x20 DUP4 ADD SWAP1 POP SWAP3 SWAP2 POP POP JUMP JUMPDEST PUSH0 PUSH1 0x20 DUP3 ADD SWAP1 POP SWAP2 SWAP1 POP JUMP JUMPDEST PUSH0 PUSH2 0x885 DUP3 PUSH2 0x7F0 JUMP JUMPDEST PUSH2 0x88F DUP2 DUP6 PUSH2 0x7FA JUMP JUMPDEST SWAP4 POP PUSH2 0x89A DUP4 PUSH2 0x80A JUMP JUMPDEST DUP1 PUSH0 JUMPDEST DUP4 DUP2 LT ISZERO PUSH2 0x8CA JUMPI DUP2 MLOAD PUSH2 0x8B1 DUP9 DUP3 PUSH2 0x858 JUMP JUMPDEST SWAP8 POP PUSH2 0x8BC DUP4 PUSH2 0x86F JUMP JUMPDEST SWAP3 POP POP PUSH1 0x1 DUP2 ADD SWAP1 POP PUSH2 0x89D JUMP JUMPDEST POP DUP6 SWAP4 POP POP POP POP SWAP3 SWAP2 POP POP JUMP JUMPDEST PUSH0 PUSH1 0x20 DUP3 ADD SWAP1 POP DUP2 DUP2 SUB PUSH0 DUP4 ADD MSTORE PUSH2 0x8EF DUP2 DUP5 PUSH2 0x87B JUMP JUMPDEST SWAP1 POP SWAP3 SWAP2 POP POP JUMP JUMPDEST PUSH32 0x4E487B7100000000000000000000000000000000000000000000000000000000 PUSH0 MSTORE PUSH1 0x12 PUSH1 0x4 MSTORE PUSH1 0x24 PUSH0 REVERT JUMPDEST PUSH32 0x4E487B7100000000000000000000000000000000000000000000000000000000 PUSH0 MSTORE PUSH1 0x11 PUSH1 0x4 MSTORE PUSH1 0x24 PUSH0 REVERT JUMPDEST PUSH0 PUSH2 0x95B DUP3 PUSH2 0x76A JUMP JUMPDEST SWAP2 POP PUSH2 0x966 DUP4 PUSH2 0x76A JUMP JUMPDEST SWAP3 POP DUP3 PUSH2 0x976 JUMPI PUSH2 0x975 PUSH2 0x8F7 JUMP JUMPDEST JUMPDEST DUP3 DUP3 DIV SWAP1 POP SWAP3 SWAP2 POP POP JUMP JUMPDEST PUSH0 DUP3 DUP3 MSTORE PUSH1 0x20 DUP3 ADD SWAP1 POP SWAP3 SWAP2 POP POP JUMP JUMPDEST PUSH32 0x4E6F7420796F7572207475726E00000000000000000000000000000000000000 PUSH0 DUP3 ADD MSTORE POP JUMP JUMPDEST PUSH0 PUSH2 0x9C5 PUSH1 0xD DUP4 PUSH2 0x981 JUMP JUMPDEST SWAP2 POP PUSH2 0x9D0 DUP3 PUSH2 0x991 JUMP JUMPDEST PUSH1 0x20 DUP3 ADD SWAP1 POP SWAP2 SWAP1 POP JUMP JUMPDEST PUSH0 PUSH1 0x20 DUP3 ADD SWAP1 POP DUP2 DUP2 SUB PUSH0 DUP4 ADD MSTORE PUSH2 0x9F2 DUP2 PUSH2 0x9B9 JUMP JUMPDEST SWAP1 POP SWAP2 SWAP1 POP JUMP JUMPDEST PUSH0 PUSH2 0xA03 DUP3 PUSH2 0x76A JUMP JUMPDEST SWAP2 POP PUSH2 0xA0E DUP4 PUSH2 0x76A JUMP JUMPDEST SWAP3 POP DUP3 DUP3 ADD SWAP1 POP DUP1 DUP3 GT ISZERO PUSH2 0xA26 JUMPI PUSH2 0xA25 PUSH2 0x924 JUMP JUMPDEST JUMPDEST SWAP3 SWAP2 POP POP JUMP JUMPDEST PUSH32 0x696E76616C6964206D6F76650000000000000000000000000000000000000000 PUSH0 DUP3 ADD MSTORE POP JUMP JUMPDEST PUSH0 PUSH2 0xA60 PUSH1 0xC DUP4 PUSH2 0x981 JUMP JUMPDEST SWAP2 POP PUSH2 0xA6B DUP3 PUSH2 0xA2C JUMP JUMPDEST PUSH1 0x20 DUP3 ADD SWAP1 POP SWAP2 SWAP1 POP JUMP JUMPDEST PUSH0 PUSH1 0x20 DUP3 ADD SWAP1 POP DUP2 DUP2 SUB PUSH0 DUP4 ADD MSTORE PUSH2 0xA8D DUP2 PUSH2 0xA54 JUMP JUMPDEST SWAP1 POP SWAP2 SWAP1 POP JUMP JUMPDEST PUSH32 0x47616D652068617320656E646564000000000000000000000000000000000000 PUSH0 DUP3 ADD MSTORE POP JUMP JUMPDEST PUSH0 PUSH2 0xAC8 PUSH1 0xE DUP4 PUSH2 0x981 JUMP JUMPDEST SWAP2 POP PUSH2 0xAD3 DUP3 PUSH2 0xA94 JUMP JUMPDEST PUSH1 0x20 DUP3 ADD SWAP1 POP SWAP2 SWAP1 POP JUMP JUMPDEST PUSH0 PUSH1 0x20 DUP3 ADD SWAP1 POP DUP2 DUP2 SUB PUSH0 DUP4 ADD MSTORE PUSH2 0xAF5 DUP2 PUSH2 0xABC JUMP JUMPDEST SWAP1 POP SWAP2 SWAP1 POP JUMP INVALID LOG2 PUSH5 0x6970667358 0x22 SLT KECCAK256 PUSH10 0xD0CC605A9965CF10A8A8 SWAP7 0xDD ADDMOD 0x4B STATICCALL GAS PUSH26 0x9D5E72D2C2790CA52270836F814364736F6C6343000816003300 "
		},
		"gasEstimates": {
			"creation": {
				"codeDepositCost": "573200",
				"executionCost": "infinite",
				"totalCost": "infinite"
			},
			"external": {
				"checkState(uint256)": "infinite",
				"getGame()": "2432",
				"getPlayers()": "infinite",
				"move(uint256)": "infinite",
				"newGame()": "26639"
			},
			"internal": {
				"playerId(address)": "2214"
			}
		},
		"methodIdentifiers": {
			"checkState(uint256)": "0fdcf877",
			"getGame()": "4494fd9f",
			"getPlayers()": "8b5b9ccc",
			"move(uint256)": "87cb15f7",
			"newGame()": "7d03f5f3"
		}
	},
	"abi": [
		{
			"inputs": [
				{
					"internalType": "address",
					"name": "_playerTwo",
					"type": "address"
				}
			],
			"stateMutability": "nonpayable",
			"type": "constructor"
		},
		{
			"inputs": [],
			"name": "Unauthorized",
			"type": "error"
		},
		{
			"inputs": [
				{
					"internalType": "uint256",
					"name": "_playerId",
					"type": "uint256"
				}
			],
			"name": "checkState",
			"outputs": [
				{
					"internalType": "uint256",
					"name": "",
					"type": "uint256"
				}
			],
			"stateMutability": "view",
			"type": "function"
		},
		{
			"inputs": [],
			"name": "getGame",
			"outputs": [
				{
					"internalType": "uint256",
					"name": "",
					"type": "uint256"
				}
			],
			"stateMutability": "view",
			"type": "function"
		},
		{
			"inputs": [],
			"name": "getPlayers",
			"outputs": [
				{
					"internalType": "address[]",
					"name": "",
					"type": "address[]"
				}
			],
			"stateMutability": "view",
			"type": "function"
		},
		{
			"inputs": [
				{
					"internalType": "uint256",
					"name": "_move",
					"type": "uint256"
				}
			],
			"name": "move",
			"outputs": [
				{
					"internalType": "uint256",
					"name": "",
					"type": "uint256"
				}
			],
			"stateMutability": "nonpayable",
			"type": "function"
		},
		{
			"inputs": [],
			"name": "newGame",
			"outputs": [],
			"stateMutability": "nonpayable",
			"type": "function"
		}
	]
}